:020000040800F2
:10000000C80900209D010008D7330008052A000810
:10001000D533000857090008FD3A00080000000029
:10002000000000000000000000000000DB330008BA
:10003000790B000800000000D9330008DD33000808
:10004000B7010008B7010008B7010008B7010008B0
:10005000B7010008B7010008B7010008B7010008A0
:10006000B7010008B7010008B7010008B701000890
:10007000B7010008B7010008B7010008B701000880
:10008000B7010008B7010008B7010008B701000870
:10009000B7010008B7010008B7010008B701000860
:1000A000B7010008C5340008B9340008B7010008DA
:1000B000B7010008D1340008DD340008B70100089A
:1000C000B7010008B7010008B7010008B701000830
:1000D000B7010008F13A0008B7010008B7010008AD
:1000E000B7010008B7010008B7010008B701000810
:1000F000E9340008B7010008B7010008B70100089B
:10010000B7010008B7010008B7010008B7010008EF
:10011000B7010008B7010008B7010008B7010008DF
:10012000B7010008B7010008BD0A0008B7010008C0
:10013000B7010008B7010008B7010008B7010008BF
:10014000B7010008B7010008B7010008B7010008AF
:10015000B7010008B7010008C90A0008B701000884
:10016000B7010008B7010008B7010008B70100088F
:10017000B7010008B7010008B7010008000000003F
:10018000B7010008B7010008DFF80CD000F070FBE1
:1001900000480047C94A0008C809002006488047AF
:1001A00006480047FEE7FEE7FEE7FEE7FEE7FEE75C
:1001B000FEE7FEE7FEE7FEE7653400088901000878
:1001C0002DE9F05F0546002092469B46884606468C
:1001D000814640241BE0284641464746224600F01F
:1001E00029FA53465A46C01A914110D3114618466F
:1001F000224600F010FA2D1A67EB01084F462246FE
:100200000120002100F007FA17EB00094E41201EE3
:10021000A4F10104DFDC484631462A464346BDE8E6
:10022000F09FD2B201E000F8012B491EFBD27047CB
:100230000022F6E710B513460A4604461946FFF7B2
:10024000F0FF204610BD10B5002200E0521C835C78
:100250008C5CA34201D1002BF8D1D8B2E1B2401A94
:1002600010BD70B5064603F083FC046805460A22FB
:100270000021304600F000FA2C6070BD2DE9FE4FE1
:10028000804681EA0300C00F0C46009021F0004137
:1002900023F00045B8EB0200A94105D240462146B3
:1002A00090461C460B46024623F00040104347D0C0
:1002B000270DC7F30A00C3F30A510290401A0190B8
:1002C00040286BDAC3F3130040F4801B0098924679
:1002D00020B10023D2EB030A63EB0B0B01985946C4
:1002E000C0F14002504600F096F906460D465046D1
:1002F0005946019A00F0AEF910EB08006141002464
:1003000087EA115284EAE7731A4340D0009A62B335
:10031000019A012A4FEA075215DC001B61EB02012A
:100320004FF0004202EA0752CDE90042001C41F5BD
:10033000801132462B4600F01DFA03B0BDE8F08F65
:1003400040462146F9E7001B61EB0201001C41F524
:10035000801300185B412018A2F5001747EB03013A
:1003600040EAD570B6196D4111E06D084FEA3606C6
:1003700045EAC0754FEA0752001B61EB0201001C01
:1003800041F5801149084FEA3000001951413246C9
:100390002B4603B0BDE8F04F00F0DDB90098012214
:1003A00040000023D0EB020263EBE073009821468B
:1003B0004FEAE074B8EB000061EB0401E9E783F079
:1003C00000435BE781F0004158E72DE9FE4F81EAE9
:1003D000030404F0004421F0004100944FF0000BAE
:1003E00023F0004350EA01045ED052EA03045BD0DC
:1003F000C3F30A54C1F30A552C44A4F2F334019414
:10040000A0FB0254C1F3130141F48011C3F31303A1
:1004100043F4801301FB024400FB034E840A970A55
:1004200044EA815447EA8357A4FB076802958D0A82
:1004300005FB07854FEA932C04FB0C542705029D0E
:100440004FEA065847EA1637B5EB08056EEB070C7E
:10045000870E920E47EA811742EA8312A7FB020138
:10046000B6EB0B0164EB00042B0D43EA0C335E1872
:1004700044EB1C50DA465146E7FB0201C5F3130476
:100480004FEA0B3343EA14534FEA0432019C43EA28
:100490000603A4F10C040294009CCDE900B400F022
:1004A00069F903B0BDE8F08F00200146F9E72DE9B6
:1004B000F04D81EA030404F0004B21F0004514469E
:1004C0004FF0000A23F0004150EA050220D054EA20
:1004D00001021DD0C5F30A570246C5F31303C1F349
:1004E0001300C1F30A5640F4801543F48013A7EBC0
:1004F0000608101BD64608F2FD3873EB050002D340
:1005000008F1010801E092185B41B8F1000F03DA2D
:1005100000200146BDE8F08D00204FF48011064612
:1005200084460EE0171B73EB050705D3121B63EB24
:10053000050306434CEA010C49084FEA30009218C3
:100540005B4150EA0107EDD152EA030012D082EA82
:10055000040083EA0501084305D0101BAB4106D215
:100560000122002306E000224FF0004302E06FF07A
:10057000010253101AEB06004CEB085110EB0A0075
:1005800041EB0B01BDE8F04D00F0E5B800F0004292
:1005900030F000400AD0C10D01F56071C0F31600C3
:1005A00042EA0151C208400711437047002001464A
:1005B000704701F0004330B421F0004150EA0102DD
:1005C00006D00A0DA2F56072C1F31301002A02DC05
:1005D00030BC00207047440F44EAC104C100E01859
:1005E00030BC00EBC25000F07FB830B50B4601467E
:1005F00000202022012409E021FA02F59D4205D3C2
:1006000003FA02F5491B04FA02F52844151EA2F16B
:100610000102F1DC30BD202A04DB203A00FA02F1AD
:10062000002070479140C2F1200320FA03F31943E0
:1006300090407047202A04DB203A21FA02F0002182
:10064000704721FA02F3D040C2F1200291400843E2
:1006500019467047202A06DBCB17203A41FA02F0F0
:1006600043EAE07306E041FA02F3D040C2F120020F
:1006700091400843194670472DE9F04791460F46CF
:1006800080460446002614F8015B2DB100F002F903
:100690000068405DC007F6D12B2D02D02D2D18D05B
:1006A000641E4A463946204600F0F8F827B13968FA
:1006B000A14201D1C7F8008071054FF002040BD5AB
:1006C0004042002803DD03F053FA0460A007BDE8B0
:1006D000F08746F48066E4E70028F8DA03F048FA89
:1006E00004606FF00040F2E70029A8BF7047401C8B
:1006F000490008BF20F00100704710B4B0FA80FC38
:1007000000FA0CF050EA010404BF10BC704749B174
:10071000CCF1200421FA04F411FA0CF118BF0121E4
:1007200021430843A3EB0C01CB1D4FEA00614FEAC4
:10073000102042BF002010BC704700EBC350104493
:100740000029A4BF10BC7047401C490008BF20F01E
:10075000010010BC704710B5141E73F1000408DAD4
:10076000401C41F1000192185B411A4301D120F075
:10077000010010BD2DE9F04D92469B4611B1B1FA32
:1007800081F202E0B0FA80F220329046FFF743FF98
:1007900004460F4640EA0A0041EA0B0153465A4616
:1007A000084313D0114653EA010019D0C8F14002A2
:1007B0005046FFF73FFF05460E4650465946424613
:1007C000FFF729FF084305D0012004E02046394601
:1007D000BDE8F08D0020054346EAE0762C43374320
:1007E0000A986305E40AA0EB08000022FD0A44EA27
:1007F00047540A3002D500200146E9E701051019E7
:100800006941DDE9084500196941BDE8F04DA2E7FD
:10081000C1F30A52C1F3130140F2FF3341F48011D6
:100820009A4202DA00200146704740F233439A426E
:10083000A2F2334202DC5242FFF7FCBEFFF7EBBEEE
:1008400030B5041E71F1000404DB4FF00044404257
:1008500064EB0101141E73F1000405DB1C464FF02C
:100860000043524263EB0403994208BF904230BDFB
:10087000064C074D06E0E06840F0010394E80700ED
:1008800098471034AC42F6D3FFF782FC484F00087B
:10089000684F000800487047444F00082DE9F05F9A
:1008A00082460078002715468B460AF10104B946B6
:1008B000302801D09DB113E014F8010B01277828EE
:1008C00003D0582801D045B10AE00DB1102D07D151
:1008D0000027102514F8010B02E0082500E00A2586
:1008E0000026B0460EE005FB080005FB06F10127D7
:1008F00001EB10461FFA80F8B6F5803F00D3B946E9
:1009000014F8010B294600F018F80028EBDABBF1C7
:10091000000F05D00FB1641E00E05446CBF8004034
:10092000B9F1000F06D003F023F902210160C81EBF
:10093000BDE8F09F48EA0640FAE73A2800D230388E
:1009400020F02002412A01D3A2F13700884201D3CE
:100950004FF0FF307047FEE730B50C462DED0A8BA7
:100960008DB005469FED4D8A06AA07A905A802F09D
:1009700057FA08AA02A901A802F096FA94ED000A13
:10098000DDED010A00EE880A84ED000A95ED000A0B
:10099000DDED020A00EEC80A85ED000ABDF914007B
:1009A000BDF91830BDF91C20002800DA4042111EA4
:1009B00000DA51420144181E00DA584208446FF42C
:1009C0000051084445F6FF71884263D200EE103AA8
:1009D000F8EEC00A00EE102AB8EEC00A03F0CCF818
:1009E0009FED2FCA20EE0C0A10EE100AFFF7CEFD85
:1009F0009FED2CAB53EC1A2BFFF759FDFFF7D9FDF8
:100A0000FFF7C4FD9FED29BB53EC1B2BFFF7DDFC6B
:100A100041EC180B2068FFF7B9FD9FED269B53ECC6
:100A2000192BFFF7D2FC53EC182BFFF727FCFFF72D
:100A3000C0FD2060BDF9180000EE100ABDF91400D9
:100A4000F8EEC00A00EE100AB8EEC00A03F094F8FF
:100A500020EE0C0A10EE100AFFF798FD53EC1A2B4B
:100A6000FFF725FDFFF7A5FDFFF790FD53EC1B2BCE
:100A7000FFF7ABFC41EC180B2868FFF787FD53EC40
:100A8000192BFFF7A2FC53EC182BFFF7F7FBFFF72E
:100A900090FD28600DB0BDEC0A8B30BD8E06703C19
:100AA00000003443182D4454FB210940BA490C027C
:100AB0002B87963FB29DEFA7C64BEF3F014800F052
:100AC0006FB8000064030020014800F069B800001E
:100AD0000403002001681823CAB2103AB2FBF3F2F3
:100AE000054B6FF30901032A9B5CC36500D9091DFF
:100AF0008165084670470000B84E000810B50146F1
:100B000000208B698A6A4FF0C07453B1B3F5005F5F
:100B100015D072B1012A0CD0022A0AD0032A09D1B9
:100B200004E01AB1012A06D0022A03D1C96AC90118
:100B300000D5012010BDC96AA142FAD010BD002A1B
:100B4000F7D0012AF2D0022AF3D0032AF3D010BD45
:100B500030B50468256825F4802525600468636045
:100B60008368402B036803D099600068C26030BD81
:100B70009A600068C16030BD7047704790F83510CA
:100B8000022903D08021416501207047052180F8AA
:100B900035100068016821F00101016000207047F4
:100BA0002DE9F84304464FF00009CDF80090634862
:100BB0004FF41651A56D0068B0FBF1F72E6894F85C
:100BC0005C10082000FA01F131420FD021680A6858
:100BD00052070BD50A6822F004020A6094F85C10F0
:100BE0008840A860606D40F00100606594F85C107A
:100BF0004FF0010808FA01F0304208D02168496935
:100C0000090604D5A860606D40F00200606594F8A4
:100C10005C1004208840304208D0216809688907A8
:100C200004D5A860606D40F00400606594F85C1025
:100C300010208840304218D021680968090714D56F
:100C4000A86020680168490304D50068000308D53E
:100C5000A16C07E00168C90503D4016821F008010F
:100C60000160216C09B12046884794F85C1020206F
:100C70008840304231D021680968C9062DD5A86066
:100C800094F8350005282068016806D0490347D547
:100C9000006800031DD4616C1CE021F016010160A6
:100CA0002068416921F080014161206C08B9A06C85
:100CB00020B12068016821F00801016094F85C10FF
:100CC0003F208840A86084F8349084F83580216DF6
:100CD0001FE0E16B09B120468847606D00282BD0EA
:100CE000606DC00714D0052084F8350020680168C5
:100CF00021F0010101600098401C0090B84203D827
:100D000020680068C007F6D184F8349084F83580F4
:100D1000E16C002910D001B02046BDE8F04308473F
:100D20000168C905D5D4016821F01001016084F87B
:100D3000349084F83580CCE7BDE8F8835C0000206F
:100D40002DE9F041044600F085F906465CB1002526
:100D500084F83450022084F835002068016821F0BE
:100D6000010101600DE00120BDE8F08100F072F9A1
:100D7000801B052805D920206065032084F83500F4
:100D8000F2E720680068C007F0D1226811682048A7
:100D90000140D4E901031843D4E90336334318432F
:100DA00063691843A3691843E3691843236A184326
:100DB0000843616A042903D1D4E90B13194308439A
:100DC000106020684069666A20F0070130460E43D3
:100DD000012704280CD1A06A0643E06A40B12046EE
:100DE000FFF78CFE20B14020606584F83570BAE7CB
:100DF000206846612046FFF76DFE94F85C203F2195
:100E000091408160656584F835700020ACE7000092
:100E10003F8010F02DE9F0410446866D90F83400D3
:100E2000002501280DD0012084F8340094F8357095
:100E30000020012F07D084F8340002252846BDE8A1
:100E4000F0810220FBE7022784F8357060652046B8
:100E5000FFF77EFE94F85C103F208840B060206869
:100E6000016841F016010160206C20B12068016822
:100E700041F0080101602068016841F00101016052
:100E8000DCE700002DE9F84F00224FF001080325B0
:100E90004FF00F0E0B6808FA02F42340A3426ED104
:100EA0004E68012E05D0022E03D0112E01D0122E35
:100EB00012D186684FEA420C05FA0CF7BE43CF68A0
:100EC00007FA0CF7374387604668A6430C79C4F3EA
:100ED0000014944034434460C668570005FA07FC88
:100EE0008C6826EA0C06BC403443C4604C68022C73
:100EF00001D0122C13D1D40800EB8404A346D4F8FB
:100F0000209054074FEAD46A0EFA0AF629EA060935
:100F10000E6906FA0AF646EA0906CBF8206006686A
:100F20000C7926EA0C0604F00304BC403443046048
:100F30004C68E40065D5364C266846F48046266049
:100F4000246822F0030604F480440094314C3444B5
:100F5000A446D4F808489607370F0EFA07F6B443AC
:100F60002D4EB04201D1002624E02C4EB04201D1DA
:100F700001261FE02A4EB04202D102261AE040E0CC
:100F8000284EB04201D1032614E0274EB04201D1D1
:100F900004260FE0254EB04201D105260AE0244E7A
:100FA000B04201D1062605E0224EB04201D107260B
:100FB00000E00826BE402643CCF808681E4E346880
:100FC0004F689C43FF0300D51C4334601A4C241D1A
:100FD00026684F689E43BF0300D51E432660164E09
:100FE000083634684F689C43FF0200D51C433460C8
:100FF000114E0C3634684F689C43BF0200D51C4329
:101000003460521C102AFFF445AFBDE8F88F000091
:101010004438024000300140000002400004024019
:1010200000080240000C0240001002400014024080
:1010300000180240001C0240003C0140426931EAB5
:10104000020200D10904816170470AB181617047D1
:101050000904FBE701488068704700006000002039
:1010600070B5040025D094F83D00002520B984F81F
:101070003C50204600F04CFA242084F83D002068C3
:10108000016821F0010101602068016841F400411C
:1010900001602068016821F40041016000F0A4FBB8
:1010A0004D4A6168914201D84C4900E04C49884260
:1010B00001D2012070BD4B492368B0FBF1F15E689D
:1010C00026F03F060E435E606368934206D94FF4F4
:1010D000967359434FF47A73B1FBF3F12368491CBB
:1010E0001E6A26F03F06314319626168914210D8AA
:1010F0004900401EB0FBF1F2521CC2F30B02042A5D
:1011000001D2042022E0B0FBF1F0401CC0F30B0040
:101110001CE0A268F2B301EBC10303EB0116431E0E
:10112000B3FBF6F35B1C43F480431B0549D092B339
:1011300001EBC10202EB0111401EB0FBF1F0401CBB
:10114000C0F30B0040F4804040F400402168CA69BD
:101150004CF6FF739A431043C861D4E9071001436A
:101160002068026822F0C00211430160D4E9030143
:1011700001432068826848F2FF339A43114381603B
:10118000D4E9050108432168CA6822F0FF02104330
:10119000C86001E00EE016E02068016841F001013E
:1011A00001602564202084F83D00256384F83E50CA
:1011B000002070BD01EB4106431EB3FBF6F35B1C40
:1011C000B3E70120C2E701EB4101401EB0FBF1F0A3
:1011D000401CC0F30B00B7E7A086010080841E000E
:1011E00000093D0040420F002DE9FF4F83B09A46B1
:1011F000DDE9119793460446DDF84080FFF72AFFAA
:10120000054694F83D00202870D119230122714928
:101210002046009501F006FD0028F5D194F83C0029
:10122000012863D0012084F83C0020680168C907C8
:1012300003D1016841F0010101602068016821F4D7
:1012400000610160222084F83D00402084F83E00C7
:1012500000262664C4F82480A4F82A90608D208596
:101260005D48E062CDE9007553465A462046049930
:1012700001F0E0FB00287CD1208DD0B1012821D0E5
:101280000228206824D0416980690090208D0328BD
:1012900069D801282BD0514902283B464FF0000263
:1012A000009559D08846204601F0BCFC002860D14A
:1012B0003CE02068416981690091016841F4007156
:1012C000016077E02068016821F480610160F0E747
:1012D000016821F4806101602068016841F40061C7
:1012E0000160206841698069009063E06FE02A46F0
:1012F0003946204601F015FD98BB20680069616AF7
:1013000008704EE02068016841F4007101602068B7
:101310000069616A0870606A401C6062218D491E24
:101320002185618D491E6185216838E0206801684A
:1013300021F48061016020680069616A0870606A58
:10134000401C6062208D401E2085608D401E60859F
:101350003B46002241460095204601F063FC00B95F
:10136000D0E706E0FFE72A463946204601F0D9FCDF
:1013700018B1012007B0BDE8F08F20680069616AEC
:101380000870606A401C6062218D491E2185618D54
:10139000491E618521684A69D24352070AD4096906
:1013A0000170606A401C6062208D401E2085608D47
:1013B000401E6085208D00287FF468AF202084F8CF
:1013C0003D0084F83E6084F83C600020D2E70220B3
:1013D000D0E70000020010000000FFFF0400010041
:1013E0002DE9FF4F83B09A46DDE9119793460446F5
:1013F000DDF84080FFF72EFE054694F83D002028DA
:101400007FD11923012240492046009501F00AFCB2
:10141000002876D194F83C00012872D0012084F88D
:101420003C0020680168C90703D1016841F001014F
:1014300001602068016821F400610160212084F8C6
:101440003D00402084F83E0000262664C4F8248035
:10145000A4F82A90608D20852C48E062CDE90075C3
:1014600053465A462046049901F062FB70B930E0B9
:101470002A463946204601F087FC58B1206C0428E2
:1014800004D12068016841F400710160012007B0B7
:10149000BDE8F08F606A216800780861606A401CCE
:1014A0006062218D491E89B22185628D521E62853E
:1014B00022685369DB435B070BD469B10078106184
:1014C000606A401C6062208D401E2085608D401E39
:1014D0006085208D0028CBD12A463946204601F070
:1014E0007BFB0028CAD154F83D0B016841F4007120
:1014F0000160202004F81E09E67766770020C6E721
:10150000FFE70220C3E70000020010000000FFFF19
:1015100010B586B0044614216846FEF789FE1449CA
:101520002068884221D11348016841F0020101601E
:101530000068694600F0020005904FF4407000908A
:1015400012200190012002900320039004200490B7
:101550000948FFF797FC07481030016841F4001173
:101560000160006800F40010059006B010BD000096
:1015700000540040303802400004024002488168B4
:101580000278114481607047600000200B4810B55C
:10159000016841F400710160016841F480610160FB
:1015A000016841F480710160032000F071F80020AF
:1015B00000F006F800F024F8002010BD003C0240C6
:1015C00070B50D4D04464FF47A712878B1FBF0F0F8
:1015D0000A490968B1FBF0F000F078FB48B9102C1B
:1015E00007D200222146501E00F032F800206C6025
:1015F00070BD012070BD0000600000205C00002074
:101600000B4882B0016841F480410160006800F439
:10161000804000900648001F016841F08051016041
:10162000006800F080500090072002B000F030B851
:1016300044380240002809DB00F01F0201219140DC
:101640004009800000F1E020C0F800117047000060
:10165000F0B40E4B1B680C46C3F30223C3F107051D
:10166000042D00D90425191D072901D2002300E00B
:10167000DB1E012606FA05F1491E214099409E40D5
:10168000761E16403143F0BC02F061BA0CED00E06A
:10169000064900F0070208684FF6FF03184040EAC9
:1016A0000220034A10430860704700000CED00E080
:1016B0000000FA052DE9F0470E46050065D0DFF879
:1016C0001481D8F80000F7B200F00F00B04207D242
:1016D00088F80070D8F8000000F00F00B04254D134
:1016E00028683D4C810712D5400703D5206840F497
:1016F000E05020602878000703D5206840F460405F
:1017000020602068A96820F0F00008432060287855
:10171000C0072DD0304968680839012812D0022846
:1017200013D0032811D00968890700292DDA216810
:1017300021F0030101432160FFF78CFC814641F257
:10174000883A0EE009688903EFE709688901ECE748
:10175000FFF780FCA0EB0901514502D90320BDE849
:10176000F0872068696800F00C00B0EB810FEFD1C2
:10177000D8F80010404601F00F01B14207D90770B8
:10178000006800F00F00B04201D00120E7E72878A0
:10179000400705D52068E96820F4E0500843206040
:1017A0002878000706D52068296920F4604040EABF
:1017B000C100206000F038F82168084AC1F3031125
:1017C000515CC8400649086006480068FFF7F8FE0B
:1017D0000020C4E7003C024008380240A04E000848
:1017E0005C00002064000020044805490068096886
:1017F000044AC1F38221515CC84070475C0000205C
:1018000008380240B04E00080448054900680968DD
:10181000044AC1F34231515CC84070475C0000206B
:1018200008380240B04E0008154810B5006810F0A6
:101830000C02144813D04110042A0FD0082A0ED1EC
:101840000F4C241F2268236802F03F025B0207D579
:101850002068C0F38810A0FB010106E0084610BD17
:101860002168C1F38811A1FB00010023FEF7A8FC49
:101870002168C1F30141491C4900B0FBF1F010BDE2
:10188000083802400024F4002DE9F84F04006ED01F
:101890002078DFF83C93C007A9F104054AD009F18C
:1018A00004000168C1F38101012908D00068C0F378
:1018B000810002280AD1D9F80000400206D5286824
:1018C000800337D560680028E1D033E06068B0F568
:1018D000803F10D0B0F5A02F286810D020F48030C1
:1018E0002860286820F4802028606068A8B1FFF78D
:1018F000B1FB06460DE0286840F48030F4E740F480
:1019000080202860F7E700BFFFF7A4FB801B642856
:1019100073D828688003F7D50CE0FFF79BFB0646D9
:1019200005E000BFFFF796FB801B6428F0D828680D
:101930008003F7D42078DFF89C8280074FF0000AFC
:101940003ED5A348001D016811F00C0F08D00068B7
:10195000C0F3810002280BD1D9F80000400207D45F
:101960002868800716D5E068012800D112E02BE135
:10197000E068B8B10120C8F80000FFF76BFB06462D
:1019800005E000BFFFF766FB801B0228C0D828686F
:101990008007F7D52868216920F0F80040EAC100E7
:1019A00028600DE0C8F800A0FFF754FB064604E0ED
:1019B000FFF750FB801B02281FD828688007F7D448
:1019C0002078000722D5824E83486169703671B154
:1019D00001210160FFF73EFB074604E0FFF73AFBF9
:1019E000C01B022809D830688007F7D50EE0C0F880
:1019F00000A0FFF72FFB074605E082E0FFF72AFB78
:101A0000C01B02287DD830688007F7D420784007B3
:101A100068D5DFF8BCB100270BF13C0BDBF8000008
:101A2000C0000BD4DBF8001041F08051CBF800105F
:101A3000DBF80000012700F080500090674E30680E
:101A4000C00510D4306840F480703060FFF702FBAE
:101A5000009005E0FFF7FEFA0099401A022850D8DE
:101A60003068C005F6D55A4EA0686C3601280FD0F4
:101A70000528306810D020F001003060306820F078
:101A800004003060A068B8B1FFF7E4FA00900FE0FE
:101A9000306840F00100F4E740F004003060F7E700
:101AA000FFF7D8FA0099411A41F28830814266D88E
:101AB00030688007F4D50EE0FFF7CCFA009007E01D
:101AC000FFF7C8FA0099411A41F28830814256D88E
:101AD00030688007F4D42FB1DBF8001021F080517A
:101AE000CBF80010A069C8B33949091D0968C1F3D2
:101AF000810102294AD00228504607D0C8F8600068
:101B000000E03CE0FFF7A6FA04463BE04746C8F891
:101B10006000FFF79FFA064605E000BFFFF79AFA5C
:101B2000801B02282BD828688001F7D4D4E907014C
:101B30000843A16A2A4A490802EB0141626A41EA64
:101B40008211084394F82C1040EA0161C9F8001092
:101B500001203866FFF77EFA044606E036E000BF53
:101B6000FFF778FA001B022809D828688001F7D50A
:101B70002CE000BFFFF76EFA001B022802D90320F9
:101B8000BDE8F88F28688001F4D41FE00128F7D061
:101B9000D9F80000E26900F48001914214D1226A70
:101BA00000F03F0191420FD147F6C071626A0140D7
:101BB000914209D1A26A00F44031914204D1E16A14
:101BC00000F07060884201D00120D9E70020D7E7FB
:101BD0000438024000004742800E47420070004037
:101BE0000000FFFF70B5040005D00025A56294F841
:101BF000510010B106E0012070BD84F8505020461D
:101C000000F030F8022084F851002068016821F0CB
:101C100040010160D4E901010843D4E903121143F2
:101C2000084361690843218B01F400710843E169AD
:101C30000843216A0843A16A084321680860A06933
:101C4000042101EA1040616A084321684860206865
:101C5000C16921F40061C1616565012084F851000A
:101C6000002070BD10B586B0044614216846FEF70A
:101C7000DFFA13492068884220D112480021026807
:101C800042F480520260006800F4805005900D48D4
:101C90001438026842F001020260006800F001009E
:101CA0000590E02000900220CDE90101032003907F
:101CB0000520049069460448FFF7E4F806B010BD1B
:101CC00000300140443802400000024010B5401E80
:101CD000B0F1807F01D3012010BD4FF0E02460619E
:101CE0000F21601701F033FF0020A0610720206161
:101CF000002010BD7047704770B590F83C20012A55
:101D000032D0012480F83C40022280F83D20036854
:101D10005A689D6822F070060A6832435A60134B75
:101D200002689A4214D0B2F1804F11D0104B9A42FF
:101D30000ED0104B9A420BD00F4B9A4208D00F4B4B
:101D40009A4205D00E4B9A4202D00E4B9A4204D1D1
:101D5000496825F080031943916080F83D400021D7
:101D600080F83C10084670BD022070BD00000140A4
:101D70000004004000080040000C00400004014046
:101D8000004001400018004010B5040003D094F852
:101D90003D0010B107E0012010BD002084F83C0098
:101DA000204600F00DF8022084F83D00211D206837
:101DB00001F0A0FB012084F83D00002010BD0000D0
:101DC00008B502683548B2F1804F11D034498A42D3
:101DD00017D1016841F0020101600068002200F0A3
:101DE0000200009011461D20FFF732FC1D2051E03B
:101DF000016841F001010160006800F001000090FD
:101E000008BD28498A420ED1016841F004010160F1
:101E10000068002200F00400009011461E20FFF729
:101E200017FC1E2036E01D491F4B091D9A420ED19A
:101E3000086840F4003008600868002200F40030B0
:101E4000009011461920FFF703FC192022E0174BE0
:101E50009A420ED1086840F4802008600868002289
:101E600000F48020009011461A20FFF7F1FB1A20A1
:101E700010E00F498A42C3D1016841F0800101603E
:101E80000068002200F08000009011462C20FFF72F
:101E9000DFFB2C20BDE80840FFF7CCBB40380240F8
:101EA0000004004000080040004401400048014098
:101EB000001C00400168CA6842F00102CA60006864
:101EC000816801F00701062903D0016841F0010192
:101ED00001600020704770B5044690F83C0001286E
:101EE00017D0012584F83C50022084F83D0020687A
:101EF000826822F0770222F47F42826008685028CC
:101F000030D00DDC20284DD005DC98B310283BD113
:101F100048E0022070BD302844D0402834D139E058
:101F2000602828D0702806D0B0F5805F2CD0B0F59E
:101F3000005F29D10AE0CB68D1E90121206801F0D6
:101F40004AFB2068816841F0770109E0CB68D1E95C
:101F50000121206801F03FFB2068816841F4804145
:101F6000816011E0CA684968206801F009FC5021CD
:101F7000206807E016E0CA684968206801F011FC93
:101F80006021206801F031FB84F83D50002084F886
:101F90003C0070BDCA684968206801F0F1FB40212F
:101FA0002068EFE7226801461046EBE7704770B5FE
:101FB0000446006801694FF00005C943890715D43C
:101FC000C168C943890711D4E91E01610120207746
:101FD000206880698007204602D0FFF7E7FF04E011
:101FE00000F0F0F8204600F072F9257720680169CA
:101FF000C943490717D4C168C943490713D46FF0CF
:1020000004010161022020772068806910F4407F7C
:10201000204602D0FFF7CAFF04E000F0D3F82046C4
:1020200000F055F9257720680169C943090716D4DE
:10203000C168C943090712D46FF008010161042087
:1020400020772068C0698007204602D0FFF7AEFFE6
:1020500004E000F0B7F8204600F039F92577206851
:102060000169C943C90617D4C168C943C90613D455
:102070006FF010010161082020772068C06910F41A
:10208000407F204602D0FFF791FF04E000F09AF86D
:10209000204600F01CF9257720680169C943C9076B
:1020A00008D1C168C943C90704D1891E016120460E
:1020B00000F030F920680169C943090609D4C168F4
:1020C000C943090605D46FF0800101612046FFF77E
:1020D00011FE20680169C943490609D4C168C94392
:1020E000490605D46FF040010161204600F038FA3E
:1020F00020680169C94389060BD4C168C9438906B0
:1021000007D46FF0200101612046BDE87040FFF761
:10211000F2BD70BD30B587B0044614216846FEF7A5
:1021200087F823680021214802221224B3F1804F4E
:1021300016D01F4DAB4224D1036843F00403036063
:10214000006800F00400059040200090CDE90121D6
:10215000CDE9031269461748FEF794FE07B030BD7B
:10216000036843F0010303600068009200F001007F
:102170000590CDE901410120CDE9031069460E48E3
:10218000EAE70E4DAB42E9D1036843F00803036070
:10219000006800F00800059028140090CDE9014186
:1021A000CDE9031269460648D6E700003038024000
:1021B0000004004000080240000002400008004007
:1021C000000C0240704770B5044690F83C000D4684
:1021D00001280DD0012684F83C60022084F83D00DF
:1021E00042B1042A18D0082A2AD00C2A4DD139E04D
:1021F000022070BD206801F001FA2068816941F079
:10220000080181612068816921F0040181612068F1
:1022100081692A69114311E0206801F01FFA2068E2
:10222000816941F4006181612068816921F48061E4
:102230008161206881692A6941EA0221816124E083
:10224000206801F041FA2068C16941F00801C161CC
:102250002068C16921F00401C1612068C1692A694F
:10226000114311E0206801F063FA2068C16941F46C
:102270000061C1612068C16921F48061C161206889
:10228000C1692A6941EA0221C16184F83D600020E8
:1022900084F83C0070BD10B5040003D094F83D00F4
:1022A00010B107E0012010BD002084F83C0020465A
:1022B00000F00CF8022084F83D00211D206801F098
:1022C00019F9012084F83D00002010BD70477047C7
:1022D00010B504460068012201F070F90B4920682E
:1022E000884202D00A49884203D1416C41F400413E
:1022F00041642068816801F00701062903D0016864
:1023000041F001010160002010BD0000000001400B
:10231000000401402DE9F0472DED048B814688B083
:1023200001687348DFF8CC814FF0804A814231D197
:1023300008F13C01081DFEF70FFBD8F80400FEF77A
:1023400025F906460F46D8F83C00FEF71FF904466B
:102350000D46D8F84000FEF719F941EC100B66481D
:10236000CDE9066798F800200068DAF83810009484
:10237000CDE90302CDE9015153EC102B5FA1664872
:1023800001F0BEFB82B26449A8F80220A1F140002E
:1023900000F0F6FA6149D9F80000884272D198ED50
:1023A000010AD8ED0F0A444630EE608A88ED028AB1
:1023B00098F80000012804D0022825D09FED580A83
:1023C00057E094ED080AD4ED030A94ED091A28EEBB
:1023D000000A00EE810AD4ED040A94ED0A1A00EE18
:1023E000810AD4ED060A94ED0B1A00EE810AD4EDB1
:1023F000070A94ED0C1A00EE810ADFED4A0A80EE1E
:10240000201A84ED051A36E0606BFEF7BFF89FEDE9
:10241000461B53EC112BFDF7D8FF94ED030A41EC5A
:10242000190B38EE400A10EE100AFEF7AFF853EC25
:10243000192BFDF7C4FF9FED3E1B53EC112BFEF74C
:1024400036F8FEF7B6F83C496063884202DD9FED3E
:102450003B0A04E03A49884203D99FED3A0A84EDE9
:102460000D0AD4ED0D0AB0EE480A02F001FAB1EE01
:10247000400A84ED050A34496069884203DD9FED16
:10248000330A05E02FE03249884203D99FED310A33
:1024900084ED050A2078012801D0022813D194ED9B
:1024A000050AF3EE0E0A9FED2C1A60EE200A80EE6C
:1024B000810ADFED2A0A30EE200ABDEEC00A10EED6
:1024C000100ACAF8380094ED060A84ED070A94ED64
:1024D000050A84ED060A94ED030A84ED040A94EDDE
:1024E000020A84ED030A08B0BDEC048BBDE8F08756
:1024F000004401400C00002034040040252E3266C8
:102500002C252E32662C25642C25642C25642C2544
:102510002E3266200A000000DC020020001C004071
:1025200000000000CDCCCC3D333333FB155FC1BF81
:10253000333333333333C33F0000F0420000F04203
:102540000000F0C20000F0C20000C6420000C64217
:102550000000C6C20000C6C20000C84200006442BB
:102560007047704770B5026804461068D1685369B7
:1025700010F00F0F52D003F0010501F490762E43B6
:102580005FD0C20705D0CA0503D5E26B42F0010255
:10259000E263420705D5DA0703D0E26B42F002029C
:1025A000E263820705D5DA0703D0E26B42F004024A
:1025B000E263020707D501F020022A4303D0E26B51
:1025C00042F00802E263E26B002A33D0800604D5B1
:1025D000880602D5204601F079F920684069E16B50
:1025E000C0F38010090700D428B3204601F057F942
:1025F0002068416949061AD5416921F040014161CD
:10260000606BA0B11B490165606BFEF7B7FA00284B
:1026100010D0606B016DBDE870400847830610D58F
:102620008B060ED52046BDE8704001F04FB920461C
:10263000FFF797FF70BD2046FFF793FF0020E06390
:1026400070BD030606D50B0604D52046BDE87040D4
:1026500001F01CBA4006F3D54806F1D5D1682046F2
:1026600021F04001D160202184F8391000F0C8F930
:1026700070BD0000C737000870B5040004D094F89E
:102680003900002510B106E0012070BD84F83850F3
:10269000204600F023F8242084F839002068C1681F
:1026A00021F40051C160204601F05CF92068016905
:1026B00021F4904101612068416921F02A014161C2
:1026C0002068C16841F40051C160E563202084F8AE
:1026D000390084F83A00002070BD00002DE9F04177
:1026E00086B0064614216846FDF7A2FD2E493068E3
:1026F000884256D12D480024016841F01001016044
:10270000006800F01000059028481438016841F076
:10271000020101600068694600F002000590C020D7
:1027200000900220CDE901040320039007200490CB
:102730001F48FEF7A7FB204D1E484FF00067E5E855
:10274000020740204FF48068A5E811011A4845F8B7
:102750001449AC61EC612C626C62FEF7F1FA08B1CD
:10276000FEF70BFA3563AE631248144D78382860D3
:10277000C5E90174C5E903486C61AC61EC612C6288
:1027800028466C62FEF7DCFA08B1FEF7F6F97563CD
:10279000002211462520AE63FEF75AFF2520FEF7E2
:1027A00049FF06B0BDE8F081001001404438024006
:1027B00000040240B86402400403002064030020C7
:1027C000F8B5044690F83A0020283CD1C1B3BAB31A
:1027D00094F83800012836D0012084F83800A1622E
:1027E000A2850025E563222084F83A00636B174830
:1027F000D863636B16481864636B1648D864606BC3
:10280000134605650846666B216802463046091D79
:10281000FEF700FB206801684168009184F8385099
:10282000C16841F48071C1602068416941F00101D3
:1028300041612068416941F0400141610020F8BDDB
:10284000FFE70120FBE70220F9E70000213800083C
:102850005D380008D737000870B54448A0F1380447
:102860000578502D17D0702D15D0462D15D0662D1A
:1028700013D04E2D13D06E2D11D04678801CFDF74D
:10288000F0FC6421532D13D0732D11D0542D28D07A
:10289000742D26D05DE0012002E0022000E000203F
:1028A0002070BDE87040042230493148FFF788BFEE
:1028B000304A462E06D0662E04D0522E09D0722EF3
:1028C00007D046E0D223584390FBF1F000F5967014
:1028D00005E0D223584390FBF1F0C0F596701060EC
:1028E00037E04FF08043522E06D0722E04D04C2E8B
:1028F00017D06C2E15D02CE0227822B1012A0BD0F3
:10290000022A09D025E0C0EB0012520092FBF1F13F
:10291000C1F13901996313E000EBD07040104042DF
:1029200011E0227822B1012A0AD0022A08D010E050
:10293000C0EB0012520092FBF1F139319963EBE7E1
:1029400000EBD070401000EE100AB8EEC00A84ED23
:10295000010A042205490648FFF732FFBDE870402E
:102960004FF400410448FEF769BB0000440000201A
:102970009C02002034040040000C0240704700001C
:1029800070B5044690F83900202830D169B362B39D
:1029900094F8380001282AD0012084F838002162F8
:1029A000A284E2840025E563212084F83900236BAA
:1029B0001048D863236B10481864236B0F48D86401
:1029C000206B134605652668206B321DFEF722FA40
:1029D00021686FF04000086084F838502068416931
:1029E00041F080014161002070BD012070BD0220D6
:1029F00070BD00006738000895380008D737000818
:102A000070477047FEE701684A69D24352050FD408
:102A10006FF480624A61002140F8301F2022427327
:102A20008173026942F00402026101730120704760
:102A3000002070472DE9F84F0446006889460B9D39
:102A400001689846174641F480610160206801687A
:102A500041F48071016000954FF0011B002259463E
:102A600020460A9B00F0DEF84FF4007A40B120685F
:102A70000068C00501D5C4F840A00320BDE8F88F68
:102A8000216809F0FE0008612B46284920460A9A71
:102A900000F0FCF8F0BB20684169806900902A468C
:102AA00020460A9900F070F940B1206C04283AD110
:102AB0002068016841F40071016034E0FEB2B8F1B1
:102AC000010F09D02168380A08612A4620460A9970
:102AD00000F05AF90028E8D1206806612A4620460D
:102AE0000A9900F051F90028DFD12068016841F40B
:102AF0008071016000950022594620460A9B00F033
:102B000091F80028B3D1216809F0FF0040F00100DE
:102B1000086100E007E02B46044920460A9A00F0CD
:102B2000B5F80028AAD00120A8E7000002000100A3
:102B30002DE9F843044600680D46DDE90897016871
:102B40009846164641F4807101604B4600224FF0D2
:102B500001112046009700F065F848B12068006830
:102B6000C00502D54FF4007020640320BDE8F8834F
:102B7000216805F0FE0008613B464A46154920469B
:102B800000F084F888B920684169806900903A466D
:102B90004946204600F0F8F848B1206C042804D1DA
:102BA0002068016841F4007101600120DEE7F5B2A0
:102BB000B8F1010F09D02168300A08613A46494648
:102BC000204600F0E1F80028E7D1206805610020E8
:102BD000CCE700000200010070B516460D46044621
:102BE0000DE02046FFF70FFF08B1012070BD681C03
:102BF00005D0FEF72FFA801BA84207D835B1206810
:102C00004069C0434007ECD4002070BD002044F868
:102C1000300F20216173A073216941F020012161EF
:102C20002073E2E72DE9F0471E4690460D46044624
:102C3000C1F30747DDF8209008E0701C06D0FEF7CE
:102C400009FAA0EB0900B0420FD876B12068012F35
:102C500018D0806925EA00000004000C14D000217F
:102C60004145EAD00020BDE8F087002044F8300F4D
:102C700020216173A073216941F02001216120733B
:102C80000120F0E74069E5E70121E9E72DE9F04798
:102C90009A4691460E46044600254FF02008C1F39F
:102CA000074725E020684069C043400514D42068E8
:102CB000016841F40071016021686FF4806048612F
:102CC000256384F83D8084F83E50206C40F0040079
:102CD000206484F83C501FE0B9F1FF3F08D0FEF7B4
:102CE000B9F9A0EB0A0149450CD8B9F1000F09D098
:102CF0002068012F13D0806926EA00000004000C30
:102D00000BD0CFE744F8305F84F80D80A5732069BD
:102D100040F02000206125730120BDE8F087406964
:102D2000EAE72DE9F041002590460E4604462027AB
:102D300017E04069C043C0060CD454F8301B6FF054
:102D40001000486144F810596777A577206A20621F
:102D5000257717E0FEF77EF9A0EB0800B04208D80F
:102D60003EB120684169C9434906E2D40020BDE86C
:102D7000F08144F8305F6773A573206940F020004C
:102D8000206125730120F2E770B516460D46044612
:102D90000DE02046FFF737FE08B1012070BD681C2A
:102DA00005D0FEF757F9801BA84207D835B1206837
:102DB0004069C0430006ECD4002070BD002044F8F8
:102DC000300F20216173A073216941F0200121613E
:102DD0002073E2E72DE9FF41012503AE0A240096A6
:102DE0000E4FCDE9015480462B466B22D021386826
:102DF000FEF7FAF99DF80C00009620F0800040EAFA
:102E0000C8108DF80C00CDE9015401236B22D021AC
:102E10003868FEF7E5FABDE8FF81000000000020F9
:102E200070B586B014460D4606460A22062103A850
:102E30008DE807000A4801233B22D0210068FEF7F5
:102E4000D3F9BDF80C0040BA3080BDF80E0040BA8E
:102E50002880BDF8100040BA208006B070BD000088
:102E60000000002070B586B014460D4606460A22C2
:102E7000062103A88DE807000A4801234322D02138
:102E80000068FEF7B1F9BDF80C0040BA3080BDF81B
:102E90000E0040BA2880BDF8100040BA208006B06D
:102EA00070BD000000000020FEB514460D46064629
:102EB00002AA01A96846FFF7D5FFBDF90000124B31
:102EC00000EE100AD3ED020AB8EEC00A20EE200A86
:102ED00086ED000ABDF90400D3ED020A00EE100AE7
:102EE000B8EEC00A20EE200A85ED000ABDF9080000
:102EF000D3ED020A00EE100AB8EEC00A20EE200A56
:102F000084ED000AFEBD0000000000200B4910B552
:102F100008600120FFF75EFF002000F0E9F80020C4
:102F200000F00EF8042000F031F8002000F09AF8CC
:102F3000BDE81040002000F04FB800000000002065
:102F40002DE9FF41012503AE0A2400960E4FCDE97D
:102F5000015480462B466B22D0213868FEF744F995
:102F60009DF80C0008F0070100F0F80001438DF80F
:102F70000C100096CDE9015401236B22D021386852
:102F8000FEF72EFABDE8FF81000000202DE9FF4189
:102F9000012503AE0A2400960E4FCDE90154804668
:102FA0002B461A22D0213868FEF71EF99DF80C0036
:102FB00008F0070100F0F80001438DF80C100096AE
:102FC000CDE9015401231A22D0213868FEF708FA0E
:102FD000BDE8FF81000000202DE9FF4101270DF130
:102FE0000C081B4CCDE900870A26054602963B4695
:102FF0001C22D0212068FEF7F7F89DF80C0005F0A0
:10300000070100F0E70040EAC1008DF80C00CDF8A0
:103010000080CDE9017601231C22D0212068FEF733
:10302000DFF95DB1012D0CD0022D0DD0032D03D1A0
:103030009FED080A84ED010ABDE8FF819FED060AB5
:10304000F8E79FED060AF5E79FED050AF2E70000B5
:103050000000002018F5FF3940DA7F3840DAFF38E9
:1030600040DA7F392DE9FF4101270DF10C081B4C97
:10307000CDE900870A26054602963B461B22D02151
:103080002068FEF7B1F89DF80C0005F0070100F08C
:10309000E70040EAC1008DF80C00CDF80080CDE9D2
:1030A000017601231B22D0212068FEF799F95DB13A
:1030B000012D0CD0022D0DD0032D03D19FED080A58
:1030C00084ED020ABDE8FF819FED060AF8E79FED57
:1030D000060AF5E79FED050AF2E700000000002070
:1030E000ECC0793D3F1EFA3B70227A3CDFBFF93CD1
:1030F0002DE9FF41012503AE0A2400960F4FCDE9CB
:10310000015480462B466B22D0213868FEF76CF8BC
:103110009DF80C0008F0010120F0400040EA811009
:103120008DF80C000096CDE9015401236B22D021CB
:103130003868FEF755F9BDE8FF8100000000002067
:103140002DE9F04387B014216846FDF771F8334844
:103150000024016841F010010160016801F01001D4
:103160000591016841F080010160016801F0800172
:103170000591016841F001010160016801F0010160
:103180000591016841F008010160016801F0080142
:103190000591016841F004010160016801F004013A
:1031A0000591016841F00201016000681C4F00F0C8
:1031B00002000590002208213846FDF746FFDFF89F
:1031C00064804FF43046002231464046FDF73DFF13
:1031D000DFF85490002210214846FDF736FF082002
:1031E00000900125CDE90154694638460394FDF766
:1031F00049FE0096CDE90154694640460394FDF727
:1032000041FE10200090CDE90154694648460394E0
:10321000FDF738FE07B0BDE8F0830000303802400B
:1032200000100240000C0240000402400B480A4912
:103230004FF4007201604FF482714160002181609F
:10324000C1600161C0E90512C16101624162816230
:103250000A21C162FEF7C6BC00300140C400002054
:1032600010B58EB000240794089409940A940B9426
:103270001C2168460C94FCF7DBFF17484FF0804197
:10328000016040F28F61C0E9011440F2E731C0E90A
:1032900003148461FEF778FD4FF48050079007A96E
:1032A0000D48FEF718FE0C48FEF7F5FF0B940BA92E
:1032B00009480C94FEF720FD6020CDE9000402943B
:1032C0000422694604480494FEF77DFF0248FEF795
:1032D00021FF0EB010BD00001C01002010B58EB003
:1032E00000240794089409940A940B941C216846BE
:1032F0000C94FCF79DFF17481549016040F2A3119B
:10330000C0E9011440F2E731C0E903148461FEF71B
:103310003BFD4FF48050079007A90E48FEF7DBFDF8
:103320000C48FEF7B8FF0B940BA90A480C94FEF763
:10333000E3FC6020CDE900040294002269460548C0
:103340000494FEF740FF0348FEF7E4FE0EB010BD04
:10335000000400405C01002010B58EB000240794EA
:10336000089409940A940B941C2168460C94FCF769
:103370005FFF17481549016040F2A311C0E901142D
:1033800040F2E731C0E903148461FEF7FDFC4FF41D
:103390008050079007A90E48FEF79DFD0C48FEF7E8
:1033A0007AFF0B940BA90A480C94FEF7A5FC602049
:1033B000CDE9000402940822694605480494FEF70A
:1033C00002FF0348FEF7A6FE0EB010BD0008004045
:1033D0009C010020FEE7704770477047FEF7CEB8AB
:1033E00030B593B030216846FCF722FF14210CA8B9
:1033F000FCF71EFF19480025016841F0805101606B
:10340000006800F0805011901548016841F4804137
:1034100001600068022400F48040119001200090B7
:10342000000401908001CDE9064004200890A82006
:10343000CDE9090407200B906846FEF725FA0CA990
:103440000F2081E831004FF4A0500F90E00210905F
:1034500005210CA8FEF72EF913B030BD403802400C
:10346000007000401048016841F4700101600F488D
:10347000016841F0010101600C4A0021083211602D
:1034800002680B4B1A400260031D0A4A1A60026868
:1034900022F48022026005480C300160024958067F
:1034A000803908607047000088ED00E00038024075
:1034B000FFFFF6FE103000240148FEF778BD000043
:1034C0001C0200200148FEF772BD0000DC01002054
:1034D0000148FEF76CBD00005C0100200148FEF7CA
:1034E00066BD00009C0100200148FEF760BD0000A1
:1034F0005C020020F0B50268254C264D264E274F71
:10350000274B4FF0804CA04209D0604507D0A8421D
:1035100005D0B04203D0B84201D0984204D122F085
:10352000700E4A6842EA0E02A0421BD0604519D0D4
:10353000A84217D0B04215D0B84213D0984211D04B
:10354000184DA8420ED0184DA8420BD0174DA842D6
:1035500008D0174DA84205D0164DA84202D0164DEE
:10356000A84203D122F44075CA682A434D6922F06B
:1035700080022A4302608A68C2620A688262A042AC
:1035800001D0984201D10969016301214161F0BD77
:10359000000001400004004000080040000C004012
:1035A0000004014000400140004401400048014047
:1035B00000180040001C00400020004010B501F041
:1035C0001F030121046A99408C430462016A9A40F6
:1035D0001143016210BD10B5846842EA032224F44D
:1035E0007F440A432243826010BD826822F0700249
:1035F0000A4342F00701816070470000F0B5026A9B
:1036000022F001020262036A42688469124E24F0C9
:1036100073050C682C4323F002058B682B430D4D7A
:10362000A84201D0B04205D123F00807CB683B4344
:1036300023F00403A84201D0B04205D14D6922F421
:10364000407215438A692A43426084614968416334
:103650000362F0BD0000014000040140F0B5026AC1
:1036600022F010020262026A436884690D6824F441
:10367000E64444EA05248D6822F0200242EA05125D
:103680000F4D104EA84201D0B04206D1CF6822F0B3
:10369000800242EA071222F04002A84201D0B04262
:1036A00007D14D6923F4406343EA85038D6943EAFA
:1036B000850343608461496881630262F0BD000054
:1036C0000000014000040140F0B5026A22F480725B
:1036D0000262026A4368C46922F4007224F073052E
:1036E0000C68124E2C438D6842EA05220E4DA8420A
:1036F00001D0B04206D1CF6822F4006242EA07222C
:1037000022F48062A84201D0B04207D14D6923F46F
:10371000405343EA05138D6943EA05134360C461CE
:103720004968C1630262F0BD00000140000401402D
:1037300030B5026A22F480520262046A4268C369A8
:103740000D6823F4E64343EA05238D6824F400540E
:1037500044EA0534084DA84202D0084DA84204D1DD
:103760004D6922F4804242EA85124260C361496891
:103770000164046230BD000000000140000401400B
:1037800010B5036A046A24F001040462846924F019
:10379000F00444EA021423F00A020A43846102623C
:1037A00010BD10B5036A23F0100303628369046A35
:1037B00023F4704343EA023224F0A00343EA0111E8
:1037C0008261016210BD10B5806B0021C185C1848A
:1037D000FEF7C7FE10BD70B5846B2068406994F891
:1037E0003910C0F3C0100025212904D118B1E58497
:1037F000204600F062F82068406994F83A10C0F35F
:103800008010222904D118B1E585204600F047F840
:10381000E06B40F01000E0632046FEF7A2FE70BDB2
:1038200010B50146806B09680968C90513D40021E9
:10383000C1850168CA6822F48072CA6001684A6959
:1038400022F001024A6101684A6922F040024A619D
:10385000202180F83A10FEF7FFFF10BD10B5806BF5
:10386000FFF78CF810BD10B50146806B0968096838
:10387000C9050CD40021C18401684A6922F0800284
:103880004A610068C16841F04001C16010BDFFF7A6
:10389000B7F810BD10B5806BFFF7B3F810BD016825
:1038A000CA6822F49072CA6001684A6922F0010273
:1038B0004A61202180F83A1070470168CA6822F0F6
:1038C000C002CA60202180F83910704710B590F806
:1038D0003A10222901D0022010BD8168B1F5805F25
:1038E00011D00169002901681FD0496801F07F03E8
:1038F000816A4A1C82620B70C18D491E0904090C41
:10390000C18518D02BE00269816A002A02685268DA
:1039100005D0D2B20A80816A491C8162ECE7C2F309
:1039200008020A80816A891CF7E74A68816A4B1C91
:1039300083620A70E0E70168CA6822F02002CA6068
:103940000168CA6822F48072CA6001684A6922F07C
:1039500001024A61202180F83A10FEF77DFF002025
:1039600010BD00002DE9F041044600680169E268DD
:1039700021F44051114301612169A068E2690843C3
:103980006169114308432168CA6849F20C639A438C
:103990000243CA6020684169A26921F44071114361
:1039A0004161E069192764253226B0F5004F354A98
:1039B000354920684FF0000806D0884201D0904277
:1039C00036D1FDF721FF35E0884201D0904202D187
:1039D000FDF71AFF01E0FDF707FF61684A18A0FB39
:1039E000070148EB0803FCF7EBFB0146B0FBF5F0E1
:1039F0000201B1FBF5F06FF01803584301EB8000B2
:103A000006EBC000B0FBF5F000F0F80002EB40025E
:103A1000B1FBF5F0584301EB800006EBC000B0FBB2
:103A2000F5F000F00700216810448860BDE8F081DF
:103A3000FDF7DAFE61688B0F8A00A0FB0701FCF737
:103A4000BFFB0146B0FBF5F06FF01802504301EBED
:103A5000800006EB0010B0FBF5F000F0F002B1FBC7
:103A6000F5F002EB0012B1FBF5F06FF018035843CC
:103A700001EB800006EB0010B0FBF5F000F00F004A
:103A8000D1E70000001401400010014090F8391007
:103A9000212901D0022070478168B1F5805F016A59
:103AA0000BD04A1C0262026809785160C18C491E21
:103AB0000904090CC1840ED017E009880268C1F31B
:103AC0000801516001690029016A02D0491C0162A4
:103AD000ECE7891CFBE70168CA6822F08002CA6033
:103AE0000068C16841F04001C160002070470000DB
:103AF0000148FEF737BD00009C020020FEE70000F1
:103B00000FB4084B10B504A902AA039800F03AFAC2
:103B1000044602A9002000F0CCFD204610BC5DF850
:103B200014FB0000B34600084100080218BF04203F
:103B30000A0E18BF40F001004FF07F4232EA010147
:103B400008BF40F00200012808BF052070470907A0
:103B5000090E002804DB00F1E02080F80014704713
:103B600000F00F0000F1E02080F8141D7047000005
:103B7000004870476C00002010EE100A10B510EEDF
:103B8000901A4FF0684202EB40032DED028BB3F127
:103B9000654F3CBF02EB4102B2F1654F7CD200BFE2
:103BA000C0F3C753C1F3C7529A1A1B2A09DD10F09C
:103BB000004F14BF9FED6E0A9FED6E0ABDEC028BA5
:103BC00010BD12F11A0F1BDA11F0004F09D010F0DE
:103BD000004F0CBF9FED680A9FED680ABDEC028B99
:103BE00010BD80EE208A18EE100AFFF79DFF042812
:103BF00008BF00F0EDF8B0EE480ABDEC028B10BD36
:103C00004200B2EB410F37D910F0004F19BFDFED82
:103C10005C1A9FED5C1ADFED5C1A9FED5C1AB0EE4A
:103C2000602A0A46F1EE400A80F00041B0EE420AF6
:103C300010460A1A5200B2F1807F34D2484010F088
:103C4000004FDFED532A9FED533A1DBFBEEE002A11
:103C500071EEE21A31EE431AB6EE002A04BF71EE9D
:103C6000A21A31EE031AF0EE402A42EE602A40EE2C
:103C7000020A82EEA02A18E011F0004F04BF9FED67
:103C8000461AF0EE411AD4D010F0004F1CBFDFED01
:103C9000431A9FED431A00E026E004BFDFED411A0E
:103CA0009FED411AC5E780EE202A22EE020ADFEDE1
:103CB0003F0ADFED3F2ABDEC028B40EE202ADFED0C
:103CC0003D0A40EE220ADFED3C2A40EE202ADFEDDD
:103CD0003B0A40EE220A22EE000A00EE201A31EEE4
:103CE000020A30EE210A10BD4FF07F42B2EB400FC6
:103CF00028BFB2EB410F05D2BDEC028BBDE81040EE
:103D000000F062B840EA01035B0008BF41F0FF41E8
:103D10000BD0B2EB400F08BFB2EB410F08D120F03F
:103D2000804000EE100A21F0804100EE901A37E743
:103D3000B2EB400F12BF5FEA410240F0FF4001F0DA
:103D400000413FF42DAF4A0092EA40033FF528AF0F
:103D5000002AACBF9FED1A1A9FED1A1A20EE010A35
:103D600060EE810A10EE100A10EE901A18E70000BB
:103D7000DB0FC9BFDB0FC93FDB0F4940DB0F49C079
:103D80000000C9BF22AAFDB90000C93F22AAFD391F
:103D90000060ED3EC30ACE3700000000000049C0BD
:103DA00022AA7DBA0000494022AA7D3A2DAD65BD08
:103DB0008FB8D53D0FB511BE61C84C3EA8AAAABEAA
:103DC0000000804F0000802F30EE200A7047000076
:103DD0009FED020A20EE000A70470000000000106C
:103DE00002E008C8121F08C1002AFAD170477047C4
:103DF000002001E001C1121F002AFBD17047000022
:103E00002DE9FF5F82B00021DDE90430020DDDF80D
:103E100040B0034318D044F61050A2F2FF324243A0
:103E20001514119801281FD0A5EB0B00401C5FEA68
:103E3000000A4FF000064E4FDFF83891B04650466A
:103E400015D5CAF1000413E0119801244AA30128F2
:103E500001D16FEA0B010298119AC0E90031C0E963
:103E6000024206B0BDE8F09FCBF10000DFE7044658
:103E70000021404A491842EB0450CDE9001012E0FD
:103E8000E00707D032463B4640464946FCF79DFADC
:103E90008046894632463B4610461946FCF795FA5D
:103EA00006460F466410002CEAD1DDE90401DDE985
:103EB0000023BAF1000F06DAFCF787FA42464B46B8
:103EC000FCF783FA05E0FCF7F2FA42464B46FCF7B2
:103ED000EEFA04460E460022284BFCF7B1FC03D84C
:103EE0004FF0FF30014607E00022254B20463146C7
:103EF000FCF7C4F9FCF78CFC102409E0002C0ADB69
:103F00000A220023FCF75CF9039B30321A55641E29
:103F100050EA0102F2D1641C039AC4F11103144463
:103F2000119A012A03D0012208430DD10AE0084367
:103F300004D000204FF0110B119072E7A3EB0B059A
:103F40006D1E0DE05B4504DD4FF0000205F101053B
:103F500004E003DA4FF00002A5F10105002AECD0DD
:103F600002981199C0E90231C0E9004579E70000E3
:103F7000000014400000F03F300000000000F0435B
:103F80000000E03F2DE9FF4F95B09B46894606466D
:103F900000250FE2252877D100242746F84A012181
:103FA000059400E0044316F8013F203B01FA03F0BA
:103FB0001042F7D130782A2811D06FF02F033078D3
:103FC000A0F13002092A16D8059A44F0020402EB47
:103FD000820203EB42021044761C0590EFE759F889
:103FE000042B0592002A03DA504244F40054059051
:103FF00044F00204761C30782E2816D116F8010FF2
:1040000044F004042A280DD06FF02F023078A0F17C
:104010003003092B09D807EB870302EB4303C718CA
:10402000761CF3E759F8047B761C30786C280FD0A7
:1040300006DC4C2817D068280DD06A2814D104E07B
:10404000742810D07A280FD10DE044F400140AE04F
:1040500044F4801401E044F440147278824202D1A6
:1040600004F58014761C761C307866280BD013DC9F
:10407000582877D009DC002875D04528F6D0462886
:10408000F4D047281AD19DE118E0632835D0642880
:1040900079D0652812D195E1702873D008DC6728A3
:1040A000F1D069286FD06E280DD06F2806D1B5E009
:1040B00073282CD0752875D0782874D05A46179953
:1040C00090476D1C75E1C4F30250022809D0032803
:1040D0000DD0D9F8001004280DD00D6009F10409A5
:1040E00067E1D9F80010EA17C1E90052F6E7D9F8FC
:1040F00000100D80F2E70D70F0E719F8041B8DF841
:10410000001000208DF80100EA46012003E059F874
:1041100004AB4FF0FF3061074FF0000102D40DE017
:1041200008F101018846B9420FDA8045F8DB1AF838
:1041300008100029F4D108E008F101018846814205
:10414000FADB1AF808100029F6D105985B46A0EBB7
:10415000080721463846179A00F094FA284400EBE5
:10416000080507E04DE029E10DE01AF8010B5A4679
:1041700017999047B8F10108F7D25B4621463846B7
:10418000179A13E142E00A220092C4F302524FF060
:10419000000A022A08D059F804CB032A4FEAEC712E
:1041A0000AD00DE029E02AE009F1070121F0070219
:1041B000F2E802C1914609E00FFA8CFC4FEAEC717B
:1041C000042A03D14FFA8CFC4FEAEC71002907DA7C
:1041D0000A460021DCF1000C61EB02012D2202E015
:1041E000220504D52B228DF80420012203E0E207EA
:1041F00001D02022F7E7904659E00A2102E0102280
:104200000DE010214FF0000A00910BE010224FF05A
:10421000000A44F004040827009203E008224FF04B
:10422000000A0092C4F30252022A05D059F804CBC6
:104230000021032A08D009E009F1070121F0070253
:10424000F2E802C1914605E01FFA8CFC042A01D174
:104250000CF0FF0C4FF00008220728D5702806D07C
:10426000009B83F0100353EA0A0305D00EE04022BE
:104270008DF80420012208E05CEA010206D0302219
:104280008DF804208DF8050002229046009B83F0F3
:10429000080353EA0A030AD15CEA010201D162076A
:1042A00005D530228DF804204FF001087F1E5828D4
:1042B00004D034A003900EA802900DE036A0F9E7D8
:1042C00053466046009AFBF77BFF84460398825C66
:1042D0000298401E029002705CEA0100F0D1029840
:1042E00006A9081A00F1200A600702D524F48034D8
:1042F00000E00127574502DDA7EB0A0000E000209F
:1043000000EB0A01009005984144401A0590E00333
:1043100006D45B462146179A059800F0B3F9054488
:10432000002706E001A85A46C05D179990476D1C0A
:104330007F1C4745F6DBE0030CD55B462146179A08
:10434000059800F09FF9054404E030205A4617997B
:1043500090476D1C0099481E00900029F5DC08E08C
:10436000029802995A460078491C02911799904781
:104370006D1CBAF10001AAF1010AF1DC65E100004F
:10438000092801003031323334353637383961622B
:1043900063646566000000003031323334353637EF
:1043A00038394142434445460000000000F058F9C6
:1043B0000544761C307800287FF4ECAD19B028460F
:1043C000BDE8F08F620700D4062709F1070222F04A
:1043D000070CFCE80223E14603F000485FEA080C02
:1043E00002D00FF2702C0DE05FEA045C02D50FF2F0
:1043F000682C07E05FEAC47C02D00FF2602C01E079
:10440000AFF2700C4FF0FF3823F00043CDF850C0EE
:1044100065280CD006DC452809D046281DD0472841
:104420003DD13DE0662818D067287ED138E00021D4
:10443000112F01DB112000E0781CCDE9000106A955
:104440000EA8FFF7DDFCDDE90F010E9A03910021B4
:10445000009207F1010A04914DE04FF000400097EF
:10446000CDE9011006A90EA8FFF7CAFCDDE90F028D
:1044700003920E9B11990022DDF80CA00093049288
:1044800011B9791C00EB010AB7EB0A0004D4C0F1A2
:10449000FF3007F1010A0490AAEB0700019044E005
:1044A000012F00DA01270021112F01DD112000E08A
:1044B0003846CDE9000106A90EA8FFF7A1FCDDE909
:1044C0000F010E9A0391002104910092BA46210730
:1044D0000CD40399514500DA8A46BAF1010F05DD83
:1044E000009AAAF10101515C302908D0B84202DAE1
:1044F00010F1040F06DA0121CDE9011015E0AAF14F
:104500000101E9E7002805DC049901440491AAEBC4
:10451000000102E0411C514500DD8A460499401A21
:10452000401C01904FF000400290200704D40198F5
:10453000504501DBCDF8048000208DF84F00029833
:104540000DF14F07B0F1004F25D02B200E900298AF
:104550004FF0020800280CDA404202902D200E9005
:1045600007E00A210298FCF740F83031029007F882
:10457000011DB8F10001A8F10108F2DC0298002841
:10458000EFD1791E0E980870307800F0200040F0CE
:10459000450007F8020D12A8C01B00F10708149887
:1045A000007800B1012000EB0A01019801EBE071F5
:1045B00005984144401A401E0590E00306D45B462E
:1045C0002146179A059800F05DF805441498007884
:1045D00018B15A46179990476D1CE00324D55B46E5
:1045E0002146179A059800F04DF805441CE0049800
:1045F000002807DBDDE90301884203DD0098405C09
:10460000179901E0179930205A469047049805F110
:104610000105401C04900198401E019004D12E20F9
:104620005A46179990476D1CBAF10001AAF1010A88
:10463000DDDC05E017F8010B5A46179990476D1C11
:10464000B8F10001A8F10108F4DC5B462146179A95
:104650000598ABE62D0000002B00000020000000B4
:104660002DE9F041044600251E461746880404D46F
:1046700005E039462020B0476D1C641EF9D5284658
:10468000BDE8F0812DE9F041044600251E46904624
:10469000C80301D5302700E02027880404D505E0B1
:1046A00041463846B0476D1C641EF9D52846BDE822
:1046B000F0810A68531C0B601070704790ED050A7A
:1046C000D0ED040A30EE600A81ED000AD0ED031A45
:1046D00090ED061A90ED072AC1EE810A81EE821A4A
:1046E00030EE600A30EE410A82ED000AD1ED000A98
:1046F00030EE800AD0ED030A20EE200AF6EE000A22
:1047000020EE200A70470000D0ED040A30EE601A57
:10471000D0ED050A70EEC00AB5EEC01AF1EE10FA3F
:1047200004D9F5EEC00AF1EE10FA02D89FED0E0A98
:1047300017E090ED060A20EE010A90ED071A61EEEF
:10474000200AB4EEE00AF1EE10FA01DDB0EE600AE4
:1047500010EE101A80ED030AB1F17E5F01DDB7EEB5
:10476000000A80ED030A7047000000007CB59FED51
:10477000314A0025304EF0EE442A2C46B0EE623A23
:10478000F0EE003AF0EE084A06EB441303F1100095
:104790006A4601A9FFF792FF012D23D06DB3DDED2D
:1047A000011A9DED001A61EEA30A20EEA12A01EE86
:1047B000412A00EE812A71EE810A20EEA41AC2EE8F
:1047C000010A00BF00EE203A72EE802A641C6D1CC4
:1047D000032CD9DBF5EEC02AF1EE10FA24D186EDD8
:1047E000034A7CBD93ED091AD3ED080AF6EE001AD0
:1047F00031EE601A41EE210AE4E7DDED010AB8EE80
:10480000002A20EEA31A20EE822A61EE201A9DEDE6
:10481000001A41EE411A70EE810A52EE011A20EEA2
:10482000A41AC1EE810ACDE783EE220A86ED030ABF
:104830007CBD000000000000AC04002030B50B4D32
:10484000002303EB4300C0EB4310002205EB800480
:1048500004EB421094ED030A1030FFF755FF521C91
:10486000032AF5DB5B1C022BEBDB30BDC40300200D
:1048700000B5B0EE401A00F013F8084880ED031AB6
:10488000C0ED200AFFF7DAFF00F0D8FAFFF76EFF5D
:104890000248E83090ED030A00BD0000C403002088
:1048A0009FED070A07490020C0EBC00201EB82021E
:1048B000401C1269062882ED000AF5DB70470000F3
:1048C000000000002005002010B5234AA2F1740169
:1048D0002DED028BA1F1740000F0B0F99FED1F8A5D
:1048E0001D481FA3B0EE480A1EA21FA1743000F09D
:1048F00087F819489FED1D0A1DA31AA21DA190302B
:1049000000F07EF81448B0EE480A1BA315A21BA1C4
:10491000AC3000F075F89FED1A8A0F4816A3B0EE80
:10492000480A18A20FA1C83000F06AF80A489FEDA3
:10493000160A0FA315A20BA1E43000F061F8B0EE47
:10494000480ABDEC028B06A3BDE8104010A205A1E9
:10495000104800F055B80000AC0400203333333F5A
:1049600048000000300000004C6500009A99193F93
:104970005A0000005A6500004C0000004865000025
:10498000CDCCCC3E4C6465009A99193E5A646500C2
:1049900048646500AC05002010B52DED048B00EBDC
:1049A00042140A46B0EE618AF0EE419AB0EE609A87
:1049B000F0EE408A04F1100010A1FFF7A1F879EEA3
:1049C000680AC4ED088A84ED098AF5EEC00AF1EEA2
:1049D00010FA10DDB7EE000A80EE201A78EE690AB0
:1049E000F5EEC00AF1EE10FA84ED0A1A03DD80EE4E
:1049F000201A84ED0B1ABDEC048B10BD257300004A
:104A00002DE9F0472D4F2E4E98462DED028BB0EE3E
:104A1000408A91468A460446002500BF06EB4510B1
:104A200051461030FBF70FFC50B3514625A0FBF761
:104A30000AFC28B36D1C032DF0DB002506EB4510A6
:104A400049468430FBF7FFFB30B349461DA0FBF716
:104A5000FAFB08B36D1C032DF0DB194E0025E83678
:104A600006EB451041461030FBF7EDFB00B36D1C23
:104A7000032DF5DB84ED068ABDEC028BBDE8F087E3
:104A8000514610A0FBF7DFFB20B106EB45101C30B0
:104A90002060D2E72760D0E749460AA0FBF7D3FBA6
:104AA00020B106EB45109030A060D6E7A760D4E7B0
:104AB00006EB45101C302061DCE7000050000020B0
:104AC000C40300203000000008B5FCF75FFDFEF7CE
:104AD00087FCFEF735FB4C480024016841F4800157
:104AE00001600068224600F48000009021463A20D0
:104AF000FCF7AEFD3A20FCF79DFD00221146462052
:104B0000FCF7A6FD4620FCF795FDFEF725FC404886
:104B10003E4901604FF4E131C0E901140C21C46049
:104B2000C0E904418461C461FDF7A6FD38483949F4
:104B3000803842F20F75C0E9001542F2CF01C0E99A
:104B4000024104618461FDF71FF9FEF789FBFEF75E
:104B50006DFB3248304901603149C0E901144FF41E
:104B60008041C0E9034144618461C4610462FCF78F
:104B700077FA27482B49C038C0E90015EF21C0E972
:104B8000024104618461FDF7FFF82148264940385D
:104B9000C0E900155321C0E9024104618461FDF7B9
:104BA000F3F8FEF79BFB08212048FDF791FB1F4817
:104BB00004218038FDF78CFB1C4800214038FDF7AC
:104BC00087FB13488038FDF775F918484030FDF72A
:104BD00071F90F484038FDF76DF9042214490C486B
:104BE000FDF7EEFD13494FF49670086039208107F8
:104BF0008863012210211048FCF727FA0748FEF7C6
:104C000085F9FFF761FEFEE73038024000100140F1
:104C10009C02002000480140005400407000002029
:104C2000801A060000440140001C00409C01002046
:104C30004400002034040040000402402DE9F0410B
:104C40005D4D00242DED068B90460F4606466C60A8
:104C500022469FED5A8AF0EE481ADFED598AB0EEEF
:104C6000681ADFED580A9FED580A58A14046AC601B
:104C7000FFF792FE01229FED569AB0EE481AF0EE31
:104C8000480AF0EE491AB0EE680A52A14046FFF712
:104C900083FE0222DFED501A9FED501AF0EE490A12
:104CA000B0EE480A4EA14046FFF776FE6C60002247
:104CB000F0EE481A9FED4B1A9FED4BAAF0EE4A0A10
:104CC000DFED4AAA4AA13046B0EE6A0AAC60FFF7AF
:104CD00063FE0122F0EE491AB0EE481AF0EE480ADF
:104CE000B0EE680A43A13046FFF756FE0222DFED20
:104CF000429AF0EE691AB0EE691ADFED400AB0EEA2
:104D0000480A3FA13046FFF747FE6C600022F0EEF4
:104D1000481A9FED3C1ADFED3C0A9FED3C0A3CA18E
:104D20003846AC60FFF738FE0122DFED3A1AB0EEEC
:104D3000481AF0EE480A9FED380A38A13846FFF7C6
:104D40002BFE0222DFED361A9FED361ADFED360A12
:104D5000B0EE480A35A13846FFF71EFE6C6000220F
:104D6000F0EE481A9FED321AF0EE4A0AB0EE6A0AE7
:104D700016A14046AC60FFF70FFE0122F0EE491A83
:104D8000B0EE481AF0EE480AB0EE680A11A14046AB
:104D9000FFF702FEB0EE691AB0EE480ABDEC068BD2
:104DA000404602220EA1BDE8F041DFED221ADFED00
:104DB000220AFFF7F1BD00005000002000000000B3
:104DC000000020C2000070C2000074C24C0000004D
:104DD000000020425A0000000000744200007042AF
:104DE00048000000000048C200008CC200008EC2D3
:104DF0004C6500005A65000000008C4200004842EB
:104E0000486500000000B4C2000016C3000017C3CC
:104E10004C6465000000A0420000A0C25A64650016
:104E200000001743000016430000B44248646500C8
:104E3000000034C200008E420000344210B5174B0F
:104E40000021B7EE001A00BFC1EBC102B0EE410A6B
:104E5000002003EB820200BF52F83040D4ED000A7C
:104E6000F4EEC00AF1EE10FA01D2B0EE600A401C76
:104E70000228F1DBD2ED060A106960EE800A90ED9F
:104E8000000AF4EEC00AF1EE10FA01D3B0EE600AA7
:104E9000491C80ED000A0629D6DB10BD2005002044
:104EA00000000000000000000102030406070809DA
:104EB0000000000001020304000610160006101690
:104EC000004040404040404040404141414141401D
:104ED00040404040404040404040404040404040D2
:104EE0004005020202020202020202020202020261
:104EF0000220202020202020202020020202020266
:104F000002029090909090901010101010101010BD
:104F100010101010101010101010101002020202C9
:104F2000020288888888888808080808080808080D
:104F30000808080808080808080808080202020209
:104F400040000000C14E0008684F0008000000202B
:104F500070000000E03D0008D84F000870000020FD
:104F600058090000F03D00080000000000000000AB
:104F70000000000001000000000000000000000030
:104F80000000000000000000000000000000000021
:104F90000000000086EB51BE7693D83ECB505FBE3A
:104FA000E32B3E3EFA8AAFBD000000000000000087
:104FB00000000000000000000000803F0000000032
:104FC000000000000024F4000100000010000000B8
:084FD0000000000000000000D9
:040000050800018965
:00000001FF
