:020000040800F2
:10000000C00700209D010008B73700083D290008FF
:10001000B5370008DF090008DD3E000800000000D9
:10002000000000000000000000000000BB370008D6
:10003000010C000800000000B9370008BD370008B7
:10004000B7010008B7010008B7010008B7010008B0
:10005000B7010008B7010008B7010008B7010008A0
:10006000B7010008B7010008B7010008B701000890
:10007000B7010008B7010008B7010008B701000880
:10008000B7010008B7010008B7010008B701000870
:10009000B7010008B7010008B7010008B701000860
:1000A000B7010008A538000899380008B701000812
:1000B000B7010008B1380008BD380008B7010008D2
:1000C000B7010008B7010008B7010008B701000830
:1000D000B7010008D13E0008B7010008B7010008C9
:1000E000B7010008B7010008B7010008B701000810
:1000F000C9380008B7010008B7010008B7010008B7
:10010000B7010008B7010008B7010008B7010008EF
:10011000B7010008B7010008B7010008B7010008DF
:10012000B7010008B7010008450B0008B701000837
:10013000B7010008B7010008B7010008B7010008BF
:10014000B7010008B7010008B7010008B7010008AF
:10015000B7010008B7010008510B0008B7010008FB
:10016000B7010008B7010008B7010008B70100088F
:10017000B7010008B7010008B7010008000000003F
:10018000B7010008B7010008DFF80CD000F0B4FB9D
:100190000048004789510008C007002006488047F2
:1001A00006480047FEE7FEE7FEE7FEE7FEE7FEE75C
:1001B000FEE7FEE7FEE7FEE7453800088901000894
:1001C0002DE9F05F0546002092469B46884606468C
:1001D000814640241BE0284641464746224600F01F
:1001E0001BFA53465A46C01A914110D3114618467D
:1001F000224600F002FA2D1A67EB01084F4622460C
:100200000120002100F0F9F917EB00094E41201EF2
:10021000A4F10104DFDC484631462A464346BDE8E6
:10022000F09FD2B201E000F8012B491EFBD27047CB
:100230000022F6E710B513460A4604461946FFF7B2
:10024000F0FF204610BD70B5064603F099FE046825
:1002500005460A220021304600F000FA2C6070BDED
:100260002DE9FE4F804681EA0300C00F0C46009046
:1002700021F0004123F00045B8EB0200A94105D26E
:100280004046214690461C460B46024623F000405D
:10029000104347D0270DC7F30A00C3F30A51029059
:1002A000401A019040286BDAC3F3130040F4801B1E
:1002B0000098924620B10023D2EB030A63EB0B0BAC
:1002C00001985946C0F14002504600F096F90646A2
:1002D0000D4650465946019A00F0AEF910EB080061
:1002E0006141002487EA115284EAE7731A4340D03F
:1002F000009A62B3019A012A4FEA075215DC001BEB
:1003000061EB02014FF0004202EA0752CDE90042E0
:10031000001C41F5801132462B4600F01DFA03B057
:10032000BDE8F08F40462146F9E7001B61EB020172
:10033000001C41F5801300185B412018A2F500173E
:1003400047EB030140EAD570B6196D4111E06D0825
:100350004FEA360645EAC0754FEA0752001B61EBCB
:100360000201001C41F5801149084FEA30000019D4
:10037000514132462B4603B0BDE8F04F00F0DDB9E5
:100380000098012240000023D0EB020263EBE073EF
:10039000009821464FEAE074B8EB000061EB0401DD
:1003A000E9E783F000435BE781F0004158E72DE97E
:1003B000FE4F81EA030404F0004421F00041009460
:1003C0004FF0000B23F0004350EA01045ED052EAE4
:1003D00003045BD0C3F30A54C1F30A552C44A4F2BE
:1003E000F3340194A0FB0254C1F3130141F48011D2
:1003F000C3F3130343F4801301FB024400FB034ED9
:10040000840A970A44EA815447EA8357A4FB0768A1
:1004100002958D0A05FB07854FEA932C04FB0C54CB
:100420002705029D4FEA065847EA1637B5EB08053F
:100430006EEB070C870E920E47EA811742EA831291
:10044000A7FB0201B6EB0B0164EB00042B0D43EAA2
:100450000C335E1844EB1C50DA465146E7FB0201B0
:10046000C5F313044FEA0B3343EA14534FEA043243
:10047000019C43EA0603A4F10C040294009CCDE91C
:1004800000B400F069F903B0BDE8F08F0020014628
:10049000F9E72DE9F04D81EA030404F0004B21F067
:1004A000004514464FF0000A23F0004150EA0502CF
:1004B00020D054EA01021DD0C5F30A570246C5F305
:1004C0001303C1F31300C1F30A5640F4801543F43B
:1004D0008013A7EB0608101BD64608F2FD3873EB15
:1004E000050002D308F1010801E092185B41B8F160
:1004F000000F03DA00200146BDE8F08D00204FF424
:100500008011064684460EE0171B73EB050705D3E2
:10051000121B63EB050306434CEA010C49084FEA42
:10052000300092185B4150EA0107EDD152EA030016
:1005300012D082EA040083EA0501084305D0101BAB
:10054000AB4106D20122002306E000224FF0004317
:1005500002E06FF0010253101AEB06004CEB085159
:1005600010EB0A0041EB0B01BDE8F04D00F0E5B8DF
:1005700000F0004230F000400AD0C10D01F560717A
:10058000C0F3160042EA0151C20840071143704708
:1005900000200146704701F0004330B421F00041D3
:1005A00050EA010206D00A0DA2F56072C1F31301F0
:1005B000002A02DC30BC00207047440F44EAC1042A
:1005C000C100E01830BC00EBC25000F07FB830B57D
:1005D0000B46014600202022012409E021FA02F501
:1005E0009D4205D303FA02F5491B04FA02F528449B
:1005F000151EA2F10102F1DC30BD202A04DB203AF5
:1006000000FA02F1002070479140C2F1200320FA65
:1006100003F3194390407047202A04DB203A21FA63
:1006200002F00021704721FA02F3D040C2F120020B
:100630009140084319467047202A06DBCB17203A21
:1006400041FA02F043EAE07306E041FA02F3D040D7
:10065000C2F1200291400843194670472DE9F04746
:1006600091460F4680460446002614F8015B2DB1E2
:1006700000F054F90068405DC007F6D12B2D02D080
:100680002D2D18D0641E4A463946204600F04AF9FE
:1006900027B13968A14201D1C7F8008071054FF038
:1006A00002040BD54042002803DD03F069FC04601E
:1006B000A007BDE8F08746F48066E4E70028F8DA92
:1006C00003F05EFC04606FF00040F2E70029A8BF71
:1006D0007047401C490008BF20F00100704710B46B
:1006E000B0FA80FC00FA0CF050EA010404BF10BC20
:1006F000704749B1CCF1200421FA04F411FA0CF14D
:1007000018BF012121430843A3EB0C01CB1D4FEA85
:1007100000614FEA102042BF002010BC704700EB80
:10072000C35010440029A4BF10BC7047401C4900AE
:1007300008BF20F0010010BC704710B5141E73F103
:10074000000408DA401C41F1000192185B411A4391
:1007500001D120F0010010BD2DE9F04D92469B46DD
:1007600011B1B1FA81F202E0B0FA80F22032904683
:10077000FFF743FF04460F4640EA0A0041EA0B0137
:1007800053465A46084313D0114653EA010019D084
:10079000C8F140025046FFF73FFF05460E4650465F
:1007A00059464246FFF729FF084305D0012004E0DF
:1007B00020463946BDE8F08D0020054346EAE07644
:1007C0002C4337430A986305E40AA0EB0800002293
:1007D000FD0A44EA47540A3002D500200146E9E701
:1007E000010510196941DDE9084500196941BDE8B5
:1007F000F04DA2E72DE9F04D00231A461B1A8A415D
:1008000003DB00200146BDE8F08DC1F30A52C1F3BD
:10081000130141F480154FF0000BD10702D10018ED
:100820006D41521E0027044640F2FF11384601EB8D
:10083000620A3E468046024600204FF48011FFF7D0
:10084000EBFEC2197141BB1846EB0100B4EB030C7F
:1008500075EB000C04D3E41A65EB000517460E4651
:10086000241908F101006D4180463428E3DDF919AF
:1008700046EB0600091BA84103D24FF0FF32134696
:1008800001E0002213461BEB070046EB0A51BDE8CE
:10089000F04DFFF752BFC1F30A52C1F3130140F20A
:1008A000FF3341F480119A4202DA0020014670477A
:1008B00040F233439A42A2F2334202DC5242FFF743
:1008C000ABBEFFF79ABE000030B5041E71F1000404
:1008D00004DB4FF00044404264EB0101141E73F14D
:1008E000000405DB1C464FF00043524263EB040357
:1008F000994208BF904230BD064C074D06E0E068C3
:1009000040F0010394E8070098471034AC42F6D356
:10091000FFF73EFCB0540008D05400080048704770
:10092000AC5400082DE9F05F824600780027154698
:100930008B460AF10104B946302801D09DB113E07D
:1009400014F8010B0127782803D0582801D045B1AD
:100950000AE00DB1102D07D10027102514F8010B66
:1009600002E0082500E00A250026B0460EE005FB5F
:10097000080005FB06F1012701EB10461FFA80F87D
:10098000B6F5803F00D3B94614F8010B294600F0B4
:1009900018F80028EBDABBF1000F05D00FB1641E88
:1009A00000E05446CBF80040B9F1000F06D003F048
:1009B000E7FA02210160C81EBDE8F09F48EA064040
:1009C000FAE73A2800D2303820F02002412A01D339
:1009D000A2F13700884201D34FF0FF307047FEE7A5
:1009E00030B50C462DED0A8B8DB005469FED4D8A36
:1009F00006AA07A905A802F0AFF908AA02A901A84A
:100A000002F020FA94ED000ADDED010A00EE880AFA
:100A100084ED000A95ED000ADDED020A00EEC80A39
:100A200085ED000ABDF91400BDF91830BDF91C2090
:100A3000002800DA4042111E00DA51420144181E1B
:100A400000DA584208446FF40051084445F6FF713B
:100A5000884263D200EE103AF8EEC00A00EE102A87
:100A6000B8EEC00A03F0F4FC9FED2FCA20EE0C0A8A
:100A700010EE100AFFF77CFD9FED2CAB53EC1A2B08
:100A8000FFF707FDFFF787FDFFF772FD9FED29BB1D
:100A900053EC1B2BFFF78BFC41EC180B2068FFF786
:100AA00067FD9FED269B53EC192BFFF780FC53EC61
:100AB000182BFFF7D5FBFFF76EFD2060BDF918007E
:100AC00000EE100ABDF91400F8EEC00A00EE100A9C
:100AD000B8EEC00A03F0BCFC20EE0C0A10EE100ABF
:100AE000FFF746FD53EC1A2BFFF7D3FCFFF753FD3E
:100AF000FFF73EFD53EC1B2BFFF759FC41EC180BA5
:100B00002868FFF735FD53EC192BFFF750FC53EC29
:100B1000182BFFF7A5FBFFF73EFD28600DB0BDECDD
:100B20000A8B30BD8E06703C00003443182D4454AF
:100B3000FB210940BA490C022B87963FB29DEFA7D3
:100B4000C64BEF3F014800F06FB800005C03002087
:100B5000014800F069B80000FC0200200168182379
:100B6000CAB2103AB2FBF3F2054B6FF30901032A44
:100B70009B5CC36500D9091D81650846704700006C
:100B80008053000810B5014600208B698A6A4FF037
:100B9000C07453B1B3F5005F15D072B1012A0CD007
:100BA000022A0AD0032A09D104E01AB1012A06D088
:100BB000022A03D1C96AC90100D5012010BDC96A42
:100BC000A142FAD010BD002AF7D0012AF2D0022AA1
:100BD000F3D0032AF3D010BD30B50468256825F49E
:100BE00080252560046863608368402B036803D018
:100BF00099600068C26030BD9A600068C16030BD15
:100C00007047704790F83510022903D08021416564
:100C100001207047052180F835100068016821F037
:100C200001010160002070472DE9F84304464FF0B0
:100C30000009CDF8009063484FF41651A56D006887
:100C4000B0FBF1F72E6894F85C10082000FA01F16F
:100C500031420FD021680A6852070BD50A6822F08A
:100C600004020A6094F85C108840A860606D40F04F
:100C70000100606594F85C104FF0010808FA01F07B
:100C8000304208D021684969090604D5A860606D22
:100C900040F00200606594F85C1004208840304207
:100CA00008D021680968890704D5A860606D40F004
:100CB0000400606594F85C1010208840304218D021
:100CC00021680968090714D5A860206801684903EC
:100CD00004D50068000308D5A16C07E00168C905C8
:100CE00003D4016821F008010160216C09B120469C
:100CF000884794F85C1020208840304231D0216829
:100D00000968C9062DD5A86094F835000528206823
:100D1000016806D0490347D5006800031DD4616C03
:100D20001CE021F0160101602068416921F080017A
:100D30004161206C08B9A06C20B12068016821F0E5
:100D40000801016094F85C103F208840A86084F896
:100D5000349084F83580216D1FE0E16B09B12046A5
:100D60008847606D00282BD0606DC00714D0052027
:100D700084F835002068016821F0010101600098C5
:100D8000401C0090B84203D820680068C007F6D124
:100D900084F8349084F83580E16C002910D001B0DB
:100DA0002046BDE8F04308470168C905D5D401686D
:100DB00021F01001016084F8349084F83580CCE78C
:100DC000BDE8F883540000202DE9F041044600F00E
:100DD00085F906465CB1002584F83450022084F879
:100DE00035002068016821F0010101600DE001205B
:100DF000BDE8F08100F072F9801B052805D920209C
:100E00006065032084F83500F2E720680068C007B9
:100E1000F0D12268116820480140D4E90103184349
:100E2000D4E903363343184363691843A36918436D
:100E3000E3691843236A18430843616A042903D10C
:100E4000D4E90B1319430843106020684069666AAF
:100E500020F0070130460E43012704280CD1A06A78
:100E60000643E06A40B12046FFF78CFE20B14020E7
:100E7000606584F83570BAE7206846612046FFF760
:100E80006DFE94F85C203F2191408160656584F897
:100E900035700020ACE700003F8010F02DE9F041F4
:100EA0000446866D90F83400002501280DD00120FD
:100EB00084F8340094F835700020012F07D084F8AE
:100EC000340002252846BDE8F0810220FBE7022716
:100ED00084F8357060652046FFF77EFE94F85C105C
:100EE0003F208840B0602068016841F01601016031
:100EF000206C20B12068016841F008010160206881
:100F0000016841F001010160DCE700002DE9F84FC4
:100F100000224FF0010803254FF00F0E0B6808FA6E
:100F200002F42340A3426ED14E68012E05D0022E5A
:100F300003D0112E01D0122E12D186684FEA420C36
:100F400005FA0CF7BE43CF6807FA0CF73743876002
:100F50004668A6430C79C4F30014944034434460BB
:100F6000C668570005FA07FC8C6826EA0C06BC40E8
:100F70003443C4604C68022C01D0122C13D1D40825
:100F800000EB8404A346D4F8209054074FEAD46AB7
:100F90000EFA0AF629EA06090E6906FA0AF646EA80
:100FA0000906CBF8206006680C7926EA0C0604F0E6
:100FB0000304BC40344304604C68E40065D5364CFF
:100FC000266846F480462660246822F0030604F46E
:100FD00080440094314C3444A446D4F80848960721
:100FE000370F0EFA07F6B4432D4EB04201D100265A
:100FF00024E02C4EB04201D101261FE02A4EB0421F
:1010000002D102261AE040E0284EB04201D1032668
:1010100014E0274EB04201D104260FE0254EB04225
:1010200001D105260AE0244EB04201D1062605E092
:10103000224EB04201D1072600E00826BE402643DA
:10104000CCF808681E4E34684F689C43FF0300D5F7
:101050001C4334601A4C241D26684F689E43BF030E
:1010600000D51E432660164E083634684F689C43F0
:10107000FF0200D51C433460114E0C3634684F68B3
:101080009C43BF0200D51C433460521C102AFFF45D
:1010900045AFBDE8F88F0000443802400030014001
:1010A000000002400004024000080240000C024020
:1010B000001002400014024000180240001C0240D0
:1010C000003C0140426931EA020200D10904816119
:1010D00070470AB1816170470904FBE701488068E5
:1010E000704700005800002070B5040025D094F827
:1010F0003D00002520B984F83C50204600F04CFA11
:10110000242084F83D002068016821F0010101607D
:101110002068016841F4004101602068016821F401
:101120000041016000F0A4FB4D4A6168914201D882
:101130004C4900E04C49884201D2012070BD4B4926
:101140002368B0FBF1F15E6826F03F060E435E6057
:101150006368934206D94FF4967359434FF47A73F8
:10116000B1FBF3F12368491C1E6A26F03F063143A8
:1011700019626168914210D84900401EB0FBF1F23B
:10118000521CC2F30B02042A01D2042022E0B0FB5D
:10119000F1F0401CC0F30B001CE0A268F2B301EBBD
:1011A000C10303EB0116431EB3FBF6F35B1C43F4D0
:1011B00080431B0549D092B301EBC10202EB011140
:1011C000401EB0FBF1F0401CC0F30B0040F4804027
:1011D00040F400402168CA694CF6FF739A431043FB
:1011E000C861D4E9071001432068026822F0C002F8
:1011F00011430160D4E9030101432068826848F289
:10120000FF339A4311438160D4E905010843216803
:10121000CA6822F0FF021043C86001E00EE016E049
:101220002068016841F0010101602564202084F8F4
:101230003D00256384F83E50002070BD01EB41065F
:10124000431EB3FBF6F35B1CB3E70120C2E701EBDF
:101250004101401EB0FBF1F0401CC0F30B00B7E7AA
:10126000A086010080841E0000093D0040420F005E
:101270002DE9FF4F83B09A46DDE911979346044666
:10128000DDF84080FFF72AFF054694F83D0020284E
:1012900070D11923012271492046009501F05EFCAE
:1012A0000028F5D194F83C00012863D0012084F88F
:1012B0003C0020680168C90703D1016841F00101C1
:1012C00001602068016821F400610160222084F837
:1012D0003D00402084F83E0000262664C4F82480A7
:1012E000A4F82A90608D20855D48E062CDE9007504
:1012F00053465A462046049901F038FB00287CD119
:10130000208DD0B1012821D00228206824D0416945
:1013100080690090208D032869D801282BD051497D
:1013200002283B464FF00002009559D088462046DF
:1013300001F014FC002860D13CE02068416981691B
:101340000091016841F40071016077E02068016854
:1013500021F480610160F0E7016821F4806101609F
:101360002068016841F4006101602068416980697A
:10137000009063E06FE02A463946204601F06DFC9C
:1013800098BB20680069616A08704EE020680168B7
:1013900041F40071016020680069616A0870606A48
:1013A000401C6062218D491E2185618D491E618529
:1013B000216838E02068016821F4806101602068BC
:1013C0000069616A0870606A401C6062208D401E7E
:1013D0002085608D401E60853B4600224146009579
:1013E000204601F0BBFB00B9D0E706E0FFE72A4644
:1013F0003946204601F031FC18B1012007B0BDE8A4
:10140000F08F20680069616A0870606A401C606241
:10141000218D491E2185618D491E618521684A699A
:10142000D24352070AD409690170606A401C6062A5
:10143000208D401E2085608D401E6085208D0028F7
:101440007FF468AF202084F83D0084F83E6084F883
:101450003C600020D2E70220D0E70000020010002C
:101460000000FFFF040001002DE9FF4F83B09A4602
:10147000DDE9119793460446DDF84080FFF72EFE24
:10148000054694F83D0020287FD1192301224049C8
:101490002046009501F062FB002876D194F83C00CC
:1014A000012872D0012084F83C0020680168C90737
:1014B00003D1016841F0010101602068016821F455
:1014C00000610160212084F83D00402084F83E0046
:1014D00000262664C4F82480A4F82A90608D208514
:1014E0002C48E062CDE9007553465A4620460499DF
:1014F00001F0BAFA70B930E02A463946204601F0C8
:10150000DFFB58B1206C042804D12068016841F445
:1015100000710160012007B0BDE8F08F606A2168AA
:1015200000780861606A401C6062218D491E89B2A2
:101530002185628D521E628522685369DB435B07F9
:101540000BD469B100781061606A401C6062208D24
:10155000401E2085608D401E6085208D0028CBD1E7
:101560002A463946204601F0D3FA0028CAD154F859
:101570003D0B016841F400710160202004F81E0950
:10158000E67766770020C6E7FFE70220C3E70000A2
:10159000020010000000FFFF10B586B004461421C1
:1015A0006846FEF745FE14492068884221D1134859
:1015B000016841F0020101600068694600F0020024
:1015C00005904FF44070009012200190012002908D
:1015D00003200390042004900948FFF797FC074874
:1015E0001030016841F400110160006800F400103F
:1015F000059006B010BD0000005400403038024095
:1016000000040240024881680278114481607047FA
:10161000580000200B4810B5016841F400710160CA
:10162000016841F480610160016841F480710160EA
:10163000032000F071F8002000F006F800F024F814
:10164000002010BD003C024070B50D4D04464FF423
:101650007A712878B1FBF0F00A490968B1FBF0F023
:1016600000F078FB48B9102C07D200222146501E0A
:1016700000F032F800206C6070BD012070BD0000E9
:1016800058000020540000200B4882B0016841F44B
:1016900080410160006800F4804000900648001F0F
:1016A000016841F080510160006800F080500090B6
:1016B000072002B000F030B844380240002809DBAF
:1016C00000F01F02012191404009800000F1E0205C
:1016D000C0F8001170470000F0B40E4B1B680C46B8
:1016E000C3F30223C3F10705042D00D90425191DF6
:1016F000072901D2002300E0DB1E012606FA05F1CE
:10170000491E214099409E40761E16403143F0BC50
:1017100002F025BC0CED00E0064900F00702086865
:101720004FF6FF03184040EA0220034A10430860C6
:10173000704700000CED00E00000FA052DE9F047CD
:101740000E46050065D0DFF81481D8F80000F7B226
:1017500000F00F00B04207D288F80070D8F80000FF
:1017600000F00F00B04254D128683D4C810712D5DB
:10177000400703D5206840F4E05020602878000737
:1017800003D5206840F4604020602068A96820F0FC
:10179000F000084320602878C0072DD030496868E1
:1017A0000839012812D0022813D0032811D0096863
:1017B000890700292DDA216821F003010143216006
:1017C000FFF78CFC814641F2883A0EE009688903F4
:1017D000EFE709688901ECE7FFF780FCA0EB09015E
:1017E000514502D90320BDE8F0872068696800F000
:1017F0000C00B0EB810FEFD1D8F80010404601F09B
:101800000F01B14207D90770006800F00F00B04225
:1018100001D00120E7E72878400705D52068E9686E
:1018200020F4E050084320602878000706D520689F
:10183000296920F4604040EAC100206000F038F8D7
:101840002168084AC1F30311515CC8400649086089
:1018500006480068FFF7F8FE0020C4E7003C02409D
:101860000838024068530008540000205C00002043
:101870000448054900680968044AC1F38221515CA3
:10188000C8407047540000200838024078530008D0
:101890000448054900680968044AC1F34231515CB3
:1018A000C8407047540000200838024078530008B0
:1018B000154810B5006810F00C02144813D0411000
:1018C000042A0FD0082A0ED10F4C241F2268236847
:1018D00002F03F025B0207D52068C0F38810A0FB2E
:1018E000010106E0084610BD2168C1F38811A1FB83
:1018F00000010023FEF764FC2168C1F30141491C8B
:101900004900B0FBF1F010BD083802400024F4009B
:101910002DE9F84F04006ED02078DFF83C93C00723
:10192000A9F104054AD009F104000168C1F381015D
:10193000012908D00068C0F3810002280AD1D9F833
:101940000000400206D52868800337D5606800286B
:10195000E1D033E06068B0F5803F10D0B0F5A02F43
:10196000286810D020F480302860286820F4802077
:1019700028606068A8B1FFF7B1FB06460DE0286853
:1019800040F48030F4E740F480202860F7E700BF9F
:10199000FFF7A4FB801B642873D828688003F7D561
:1019A0000CE0FFF79BFB064605E000BFFFF796FB48
:1019B000801B6428F0D828688003F7D42078DFF8EB
:1019C0009C8280074FF0000A3ED5A348001D0168A5
:1019D00011F00C0F08D00068C0F3810002280BD171
:1019E000D9F80000400207D42868800716D5E068BF
:1019F000012800D112E02BE1E068B8B10120C8F85D
:101A00000000FFF76BFB064605E000BFFFF766FB33
:101A1000801B0228C0D828688007F7D5286821696C
:101A200020F0F80040EAC10028600DE0C8F800A0EE
:101A3000FFF754FB064604E0FFF750FB801B02282B
:101A40001FD828688007F7D42078000722D5824E57
:101A500083486169703671B101210160FFF73EFB77
:101A6000074604E0FFF73AFBC01B022809D830689C
:101A70008007F7D50EE0C0F800A0FFF72FFB074660
:101A800005E082E0FFF72AFBC01B02287DD8306802
:101A90008007F7D42078400768D5DFF8BCB100276D
:101AA0000BF13C0BDBF80000C0000BD4DBF800109E
:101AB00041F08051CBF80010DBF80000012700F066
:101AC00080500090674E3068C00510D4306840F4F4
:101AD00080703060FFF702FB009005E0FFF7FEFA30
:101AE0000099401A022850D83068C005F6D55A4EE1
:101AF000A0686C3601280FD00528306810D020F07F
:101B000001003060306820F004003060A068B8B197
:101B1000FFF7E4FA00900FE0306840F00100F4E7CE
:101B200040F004003060F7E7FFF7D8FA0099411A57
:101B300041F28830814266D830688007F4D50EE0E3
:101B4000FFF7CCFA009007E0FFF7C8FA0099411AB6
:101B500041F28830814256D830688007F4D42FB1E2
:101B6000DBF8001021F08051CBF80010A069C8B359
:101B70003949091D0968C1F3810102294AD00228A7
:101B8000504607D0C8F8600000E03CE0FFF7A6FA36
:101B900004463BE04746C8F86000FFF79FFA064658
:101BA00005E000BFFFF79AFA801B02282BD82868AF
:101BB0008001F7D4D4E907010843A16A2A4A4908F9
:101BC00002EB0141626A41EA8211084394F82C1049
:101BD00040EA0161C9F8001001203866FFF77EFA7B
:101BE000044606E036E000BFFFF778FA001B022843
:101BF00009D828688001F7D52CE000BFFFF76EFAFE
:101C0000001B022802D90320BDE8F88F2868800154
:101C1000F4D41FE00128F7D0D9F80000E26900F4FD
:101C20008001914214D1226A00F03F0191420FD10C
:101C300047F6C071626A0140914209D1A26A00F47C
:101C40004031914204D1E16A00F07060884201D0D5
:101C50000120D9E70020D7E70438024000004742BE
:101C6000800E4742007000400000FFFF70B5040086
:101C700005D00025A56294F8510010B106E00120BE
:101C800070BD84F85050204600F030F8022084F8EF
:101C900051002068016821F040010160D4E9010190
:101CA0000843D4E903121143084361690843218BB7
:101CB00001F400710843E1690843216A0843A16AFD
:101CC000084321680860A069042101EA1040616AA4
:101CD0000843216848602068C16921F40061C1613E
:101CE0006565012084F85100002070BD10B586B0F4
:101CF000044614216846FEF79BFA1349206888427F
:101D000020D112480021026842F48052026000682B
:101D100000F4805005900D481438026842F001022A
:101D20000260006800F001000590E02000900220B1
:101D3000CDE9010103200390052004906946044881
:101D4000FFF7E4F806B010BD00300140443802400F
:101D50000000024010B5401EB0F1807F01D3012089
:101D600010BD4FF0E02460610F21601702F0F7F81A
:101D70000020A06107202061002010BD704770473F
:101D800070B590F83C20012A32D0012480F83C4004
:101D9000022280F83D2003685A689D6822F0700690
:101DA0000A6832435A60134B02689A4214D0B2F167
:101DB000804F11D0104B9A420ED0104B9A420BD04C
:101DC0000F4B9A4208D00F4B9A4205D00E4B9A42C5
:101DD00002D00E4B9A4204D1496825F08003194382
:101DE000916080F83D40002180F83C10084670BDAD
:101DF000022070BD000001400004004000080040C7
:101E0000000C004000040140004001400018004068
:101E100010B5040003D094F83D0010B107E0012094
:101E200010BD002084F83C00204600F00DF8022090
:101E300084F83D00211D206801F04CFD012084F84C
:101E40003D00002010BD000008B502683548B2F121
:101E5000804F11D034498A4217D1016841F0020104
:101E600001600068002200F00200009011461D2071
:101E7000FFF732FC1D2051E0016841F001010160D3
:101E8000006800F00100009008BD28498A420ED188
:101E9000016841F0040101600068002200F00400C4
:101EA000009011461E20FFF717FC1E2036E01D494A
:101EB0001F4B091D9A420ED1086840F4003008609B
:101EC0000868002200F40030009011461920FFF746
:101ED00003FC192022E0174B9A420ED1086840F407
:101EE000802008600868002200F4802000901146DD
:101EF0001A20FFF7F1FB1A2010E00F498A42C3D1E4
:101F0000016841F0800101600068002200F080005B
:101F1000009011462C20FFF7DFFB2C20BDE8084085
:101F2000FFF7CCBB403802400004004000080040EE
:101F30000044014000480140001C00400168CA689C
:101F400042F00102CA600068816801F007010629B9
:101F500003D0016841F0010101600020704770B5B5
:101F6000044690F83C00012817D0012584F83C5025
:101F7000022084F83D002068826822F0770222F473
:101F80007F4282600868502830D00DDC20284DD078
:101F900005DC98B310283BD148E0022070BD302802
:101FA00044D0402834D139E0602828D0702806D0A9
:101FB000B0F5805F2CD0B0F5005F29D10AE0CB6886
:101FC000D1E90121206801F0F6FC2068816841F028
:101FD000770109E0CB68D1E90121206801F0EBFC31
:101FE0002068816841F48041816011E0CA684968D5
:101FF000206801F0B5FD5021206807E016E0CA68AE
:102000004968206801F0BDFD6021206801F0DDFC19
:1020100084F83D50002084F83C0070BDCA684968CF
:10202000206801F09DFD40212068EFE7226801460D
:102030001046EBE7704770B50446006801694FF041
:102040000005C943890715D4C168C943890711D45C
:10205000E91E016101202077206880698007204601
:1020600002D0FFF7E7FF04E000F0F0F8204600F0B0
:1020700072F9257720680169C943490717D4C168F7
:10208000C943490713D46FF004010161022020778E
:102090002068806910F4407F204602D0FFF7CAFF15
:1020A00004E000F0D3F8204600F055F925772068C9
:1020B0000169C943090716D4C168C943090712D485
:1020C0006FF008010161042020772068C069800753
:1020D000204602D0FFF7AEFF04E000F0B7F820463C
:1020E00000F039F9257720680169C943C90617D47A
:1020F000C168C943C90613D46FF0100101610820FB
:1021000020772068C06910F4407F204602D0FFF796
:1021100091FF04E000F09AF8204600F01CF92577C2
:1021200020680169C943C90708D1C168C943C90703
:1021300004D1891E0161204600F030F92068016950
:10214000C943090609D4C168C943090605D46FF01B
:10215000800101612046FFF711FE20680169C94333
:10216000490609D4C168C943490605D46FF0400146
:102170000161204600F0C2F920680169C94389065F
:102180000BD4C168C943890607D46FF020010161EF
:102190002046BDE87040FFF7F2BD70BD30B587B096
:1021A000044614216846FEF743F8236800212148BD
:1021B00002221224B3F1804F16D01F4DAB4224D11E
:1021C000036843F004030360006800F00400059016
:1021D00040200090CDE90121CDE90312694617485E
:1021E000FEF794FE07B030BD036843F001030360BF
:1021F0000068009200F001000590CDE90141012046
:10220000CDE9031069460E48EAE70E4DAB42E9D12D
:10221000036843F008030360006800F008000590BD
:1022200028140090CDE90141CDE903126946064822
:10223000D6E70000303802400004004000080240A9
:102240000000024000080040000C0240704770B5DA
:10225000044690F83C000D4601280DD0012684F874
:102260003C60022084F83D0042B1042A18D0082ABC
:102270002AD00C2A4DD139E0022070BD206801F02F
:10228000ADFB2068816941F00801816120688169A6
:1022900021F004018161206881692A69114311E0FC
:1022A000206801F0CBFB2068816941F40061816105
:1022B0002068816921F480618161206881692A69CF
:1022C00041EA0221816124E0206801F0EDFB2068F1
:1022D000C16941F00801C1612068C16921F00401B0
:1022E000C1612068C1692A69114311E0206801F0C9
:1022F0000FFC2068C16941F40061C1612068C169B7
:1023000021F48061C1612068C1692A6941EA022122
:10231000C16184F83D60002084F83C0070BD10B5B8
:10232000040003D094F83D0010B107E0012010BD77
:10233000002084F83C00204600F00CF8022084F8CD
:102340003D00211D206801F0C5FA012084F83D0000
:10235000002010BD7047704710B504460068012288
:1023600001F01CFB0B492068884202D00A498842D0
:1023700003D1416C41F4004141642068816801F05F
:102380000701062903D0016841F001010160002026
:1023900010BD000000000140000401402DE9FE4393
:1023A000074601684748484C4FF08048814225D194
:1023B00004F14001081DFEF713FB04F13C01081F66
:1023C00000F072FD206CFEF7D3F805460E466069FA
:1023D000FEF7CEF841EC100BD8F838000095CDE9A7
:1023E000016053EC102B39A13C4801F079FD82B219
:1023F0003A496280A1F1400000F05EFA384938683D
:1024000088425CD130494031081DFEF7E9FA94ED6D
:10241000010AD4ED100AB6EE001A324970EE600AD5
:10242000C4ED020A94ED0A0A60EE201AC4ED081AFF
:1024300094ED0B0A20EE010A94ED0C1A20EE012A0D
:1024400094ED031A94ED090A70EE812A02EE220A35
:1024500084ED090A31EEC00A10EE100A84ED050A77
:10246000884202DD9FED200A06E010EE100A1F49A7
:10247000884203D99FED1E0A84ED050A20780128C1
:1024800011D1F3EE0E1A9FED1B2A60EE211A81EE98
:10249000820ADFED191A30EE210ABDEEC00A10EEF5
:1024A000100AC8F8380094ED060A84ED070A94ED86
:1024B000050A84ED060A84ED041AC4ED030ABDE89A
:1024C000FE830000004401400C000020252E3266EF
:1024D0002C252E32662C2564200A0000D402002010
:1024E000001C00400000C4420000C4420000C4C2FE
:1024F0000000C4C20000C842000064427047704738
:1025000070B5026804461068D168536910F00F0F67
:1025100052D003F0010501F490762E435FD0C2073C
:1025200005D0CA0503D5E26B42F00102E26342071F
:1025300005D5DA0703D0E26B42F00202E2638207BC
:1025400005D5DA0703D0E26B42F00402E26302072A
:1025500007D501F020022A4303D0E26B42F00802C3
:10256000E263E26B002A33D0800604D5880602D5E8
:10257000204601F09BFB20684069E16BC0F38010AE
:10258000090700D428B3204601F079FB206841698F
:1025900049061AD5416921F040014161606BA0B143
:1025A0001B490165606BFEF72DFB002810D0606BA6
:1025B000016DBDE870400847830610D58B060ED527
:1025C0002046BDE8704001F071BB2046FFF797FF41
:1025D00070BD2046FFF793FF0020E06370BD030647
:1025E00006D50B0604D52046BDE8704001F03EBC80
:1025F0004006F3D54806F1D5D168204621F04001C8
:10260000D160202184F8391000F096F970BD0000E7
:10261000A73B000870B5040004D094F839000025E9
:1026200010B106E0012070BD84F83850204600F05B
:1026300023F8242084F839002068C16821F400516F
:10264000C160204601F07EFB2068016921F49041C1
:1026500001612068416921F02A0141612068C16857
:1026600041F40051C160E563202084F8390084F80A
:102670003A00002070BD00002DE9F04186B006460A
:1026800014216846FDF7D4FD2E493068884256D1A2
:102690002D480024016841F010010160006800F03D
:1026A0001000059028481438016841F002010160CB
:1026B0000068694600F002000590C02000900220EA
:1026C000CDE9010403200390072004901F48FEF782
:1026D0001DFC204D1E484FF00067E5E80207402032
:1026E0004FF48068A5E811011A4845F81449AC6117
:1026F000EC612C626C62FEF767FB08B1FEF781FAB1
:102700003563AE631248144D78382860C5E901740A
:10271000C5E903486C61AC61EC612C6228466C62CF
:10272000FEF752FB08B1FEF76CFA75630022114602
:102730002520AE63FEF7D0FF2520FEF7BFFF06B0D1
:10274000BDE8F0810010014044380240000402401E
:10275000B8640240FC0200205C030020F8B5044687
:1027600090F83A0020283CD1C1B3BAB394F83800AD
:10277000012836D0012084F83800A162A285002506
:10278000E563222084F83A00636B1748D863636BD3
:1027900016481864636B1648D864606B1346056569
:1027A0000846666B216802463046091DFEF776FB37
:1027B000206801684168009184F83850C16841F48C
:1027C0008071C1602068416941F001014161206868
:1027D000416941F0400141610020F8BDFFE701205F
:1027E000FBE70220F9E70000013C00083D3C00083F
:1027F000B73B000870B52B4810F8015B10F8014B8F
:10280000FDF721FD6421532D06D0732D04D0542DE6
:102810001BD0742D19D038E0234A462C06D0662CE4
:1028200004D0522C09D0722C07D02EE0D22358436A
:1028300090FBF1F000F5967005E0D223584390FB31
:10284000F1F0C0F5967010601FE0164A4FF080431B
:10285000343A522C06D0722C04D04C2C0CD06C2C58
:102860000AD012E0127882B9C0EB0010400090FB51
:10287000F1F0C0F1390007E0127832B9C0EB001076
:10288000400090FBF1F03930986304220549074875
:10289000FFF764FFBDE870404FF400410448FEF7C5
:1028A00011BC0000400000203404004094020020CD
:1028B000000C02407047000070B5044690F83900E3
:1028C000202830D169B362B394F8380001282AD0A7
:1028D000012084F838002162A284E2840025E563A7
:1028E000212084F83900236B1048D863236B1048EB
:1028F0001864236B0F48D864206B1346056526685F
:10290000206B321DFEF7CAFA21686FF040000860A4
:1029100084F838502068416941F08001416100200D
:1029200070BD012070BD022070BD0000473C000852
:10293000753C0008B73B000870477047FEE7016828
:102940004A69D24352050FD46FF480624A61002174
:1029500040F8301F202242738173026942F0040262
:102960000261017301207047002070472DE9F84F84
:102970000446006889460B9D01689846174641F455
:10298000806101602068016841F4807101600095F8
:102990004FF0011B0022594620460A9B00F0DEF84A
:1029A0004FF4007A40B120680068C00501D5C4F832
:1029B00040A00320BDE8F88F216809F0FE000861FF
:1029C0002B46284920460A9A00F0FCF8F0BB206804
:1029D0004169806900902A4620460A9900F070F902
:1029E00040B1206C04283AD12068016841F400719C
:1029F000016034E0FEB2B8F1010F09D02168380A55
:102A000008612A4620460A9900F05AF90028E8D1C0
:102A1000206806612A4620460A9900F051F90028EC
:102A2000DFD12068016841F48071016000950022C7
:102A3000594620460A9B00F091F80028B3D121683E
:102A400009F0FF0040F00100086100E007E02B46BC
:102A5000044920460A9A00F0B5F80028AAD00120BF
:102A6000A8E70000020001002DE9F84304460068D1
:102A70000D46DDE9089701689846164641F48071D5
:102A800001604B4600224FF001112046009700F0F4
:102A900065F848B120680068C00502D54FF40070A1
:102AA00020640320BDE8F883216805F0FE0008617A
:102AB0003B464A461549204600F084F888B920680C
:102AC0004169806900903A464946204600F0F8F88E
:102AD00048B1206C042804D12068016841F40071D9
:102AE00001600120DEE7F5B2B8F1010F09D02168DD
:102AF000300A08613A464946204600F0E1F80028CD
:102B0000E7D1206805610020CCE700000200010049
:102B100070B516460D4604460DE02046FFF70FFF40
:102B200008B1012070BD681C05D0FEF7D7FA801BE4
:102B3000A84207D835B120684069C0434007ECD4AB
:102B4000002070BD002044F8300F20216173A07375
:102B5000216941F0200121612073E2E72DE9F0476E
:102B60001E4690460D460446C1F30747DDF8209007
:102B700008E0701C06D0FEF7B1FAA0EB0900B042E5
:102B80000FD876B12068012F18D0806925EA00009F
:102B90000004000C14D000214145EAD00020BDE81B
:102BA000F087002044F8300F20216173A073216961
:102BB00041F02001216120730120F0E74069E5E741
:102BC0000121E9E72DE9F0479A4691460E46044671
:102BD00000254FF02008C1F3074725E02068406931
:102BE000C043400514D42068016841F400710160BD
:102BF00021686FF480604861256384F83D8084F823
:102C00003E50206C40F00400206484F83C501FE0EB
:102C1000B9F1FF3F08D0FEF761FAA0EB0A01494580
:102C20000CD8B9F1000F09D02068012F13D08069AA
:102C300026EA00000004000C0BD0CFE744F8305F18
:102C400084F80D80A573206940F020002061257371
:102C50000120BDE8F0874069EAE72DE9F041002551
:102C600090460E460446202717E04069C043C00640
:102C70000CD454F8301B6FF01000486144F8105920
:102C80006777A577206A2062257717E0FEF726FA96
:102C9000A0EB0800B04208D83EB120684169C943A2
:102CA0004906E2D40020BDE8F08144F8305F677344
:102CB000A573206940F02000206125730120F2E710
:102CC00070B516460D4604460DE02046FFF737FE68
:102CD00008B1012070BD681C05D0FEF7FFF9801B0C
:102CE000A84207D835B120684069C0430006ECD43B
:102CF000002070BD002044F8300F20216173A073C4
:102D0000216941F0200121612073E2E72DE9FF41B3
:102D1000012503AE0A2400960E4FCDE901548046EA
:102D20002B466B22D0213868FEF7A2FA9DF80C00E2
:102D3000009620F0800040EAC8108DF80C00CDE924
:102D4000015401236B22D0213868FEF78DFBBDE8CA
:102D5000FF8100000000002070B586B014460D46CB
:102D600006460A22062103A88DE807000A48012327
:102D70003B22D0210068FEF77BFABDF80C0040BA78
:102D80003080BDF80E0040BA2880BDF8100040BA6F
:102D9000208006B070BD000000000020FEB5144683
:102DA0000D46064602AA01A96846FFF7D5FFBDF900
:102DB0000000124B00EE100AD3ED010AB8EEC00A73
:102DC00020EE200A86ED000ABDF90400D3ED010AC9
:102DD00000EE100AB8EEC00A20EE200A85ED000AC7
:102DE000BDF90800D3ED010A00EE100AB8EEC00AE2
:102DF00020EE200A84ED000AFEBD00000000002045
:102E000070B586B014460D4606460A22062103A870
:102E10008DE807000A4801234322D0210068FEF70D
:102E200027FABDF80C0040BA3080BDF80E0040BA59
:102E30002880BDF8100040BA208006B070BD0000A8
:102E400000000020FEB514460D46064602AA01A960
:102E50006846FFF7D5FFBDF90000124B00EE100ADF
:102E6000D3ED020AB8EEC00A20EE200A86ED000A71
:102E7000BDF90400D3ED020A00EE100AB8EEC00A54
:102E800020EE200A85ED000ABDF90800D3ED020A04
:102E900000EE100AB8EEC00A20EE200A84ED000A07
:102EA000FEBD00000000002030B50C462DED048B67
:102EB00083B0054601AA694602A8FFF76FFF019893
:102EC000FDF756FB41EC180B0098FDF751FB41EC68
:102ED000100BB0EE481AF0EE681A01F0C1F99FED40
:102EE000219B51EC100B53EC192BFDF760FA9FED71
:102EF0001F1B53EC112BFDF7CCFAFDF74CFB2860A0
:102F00009DED000ADDED010A20EE000A00EEA00AA8
:102F100010EE100AFDF72CFB41EC100B01F0C0FB8A
:102F2000B0EE408AF0EE608A0298FDF721FB41EC9A
:102F3000100BB0EE481AF0EE681A01F091F953EC5C
:102F4000192B51EC100BFDF732FA9FED0A1B53ECD5
:102F5000112BFDF79EFAFDF71EFB206003B0BDECC0
:102F6000048B30BD0000000000806640182D4454E2
:102F7000FB210940182D4454FB2109C00B4910B511
:102F800008600120FFF7C2FE002000F07DFA00205B
:102F900000F00EF8042000F057F8002000F0E4F8EC
:102FA000BDE81040002000F099B8000000000020AB
:102FB0002DE9FF41012503AE0A2400960E4FCDE90D
:102FC000015480462B466B22D0213868FEF750F919
:102FD0009DF80C0008F0070100F0F80001438DF89F
:102FE0000C100096CDE9015401236B22D0213868E2
:102FF000FEF73AFABDE8FF81000000202DE9FF410D
:10300000012503AE0A2400960E4FCDE901548046F7
:103010002B461C22D0213868FEF72AF99DF80C00B7
:1030200008F0070120F0070001438DF80C1000960E
:10303000CDE9015401231C22D0213868FEF714FA8F
:10304000BDE8FF81000000202DE9FF41012503AE0E
:103050000A2400960E4FCDE9015480462B461A22D1
:10306000D0213868FEF704F99DF80C0008F007013C
:1030700000F0F80001438DF80C100096CDE90154E2
:1030800001231A22D0213868FEF7EEF9BDE8FF814E
:103090000000002001B584B001210A2204A88DE8B7
:1030A000070004480B461E22D0210068FEF7DCF919
:1030B00005B000BD0000002001B584B001210A2246
:1030C00004A88DE8070004480B461D22D0210068A3
:1030D000FEF7CAF905B000BD000000202DE9FF4150
:1030E00001270DF10C081B4CCDE900870A26054687
:1030F00002963B461C22D0212068FEF7B9F89DF8C5
:103100000C0005F0070100F0E70040EAC1008DF86F
:103110000C00CDF80080CDE9017601231C22D021DE
:103120002068FEF7A1F95DB1012D0CD0022D0DD064
:10313000032D03D19FED080A84ED010ABDE8FF814C
:103140009FED060AF8E79FED060AF5E79FED050AF1
:10315000F2E700000000002018F5FF3940DA7F3860
:1031600040DAFF3840DA7F392DE9FF4101270DF1C0
:103170000C081B4CCDE900870A26054602963B4603
:103180001B22D0212068FEF773F89DF80C0005F093
:10319000070100F0E70040EAC1008DF80C00CDF80F
:1031A0000080CDE9017601231B22D0212068FEF7A3
:1031B0005BF95DB1012D0CD0022D0DD0032D03D193
:1031C0009FED080A84ED020ABDE8FF819FED060A23
:1031D000F8E79FED060AF5E79FED050AF2E7000024
:1031E00000000020ECC0793D3F1EFA3B70227A3C83
:1031F000DFBFF93C01B584B001210A2204A88DE8A3
:10320000070004480B463822D0210068FEF72CF94D
:1032100005B000BD000000202DE9FF41012503AEEF
:103220000A2400960E4FCDE9015480462B463822E1
:10323000D0213868FEF71CF89DF80C00009620F0AD
:10324000800040EAC8108DF80C00CDE9015401233C
:103250003822D0213868FEF707F9BDE8FF81000069
:10326000000000202DE9FF41012503AE0A2400964D
:103270000F4FCDE9015480462B463822D0213868C3
:10328000FDF7F6FF9DF80C0008F0010120F040006A
:1032900040EA81108DF80C000096CDE9015401231D
:1032A0003822D0213868FEF7DFF8BDE8FF81000042
:1032B000000000202DE9FF41012503AE0A240096FD
:1032C0000F4FCDE9015480462B463822D021386873
:1032D000FDF7CEFF9DF80C0008F0010120F0200062
:1032E00040EA41108DF80C000096CDE9015401230D
:1032F0003822D0213868FEF7B7F8BDE8FF8100001A
:10330000000000202DE9FF41012503AE0A240096AC
:103310000F4FCDE9015480462B463722D021386823
:10332000FDF7A6FF9DF80C0008F0010120F0400019
:1033300040EA81108DF80C000096CDE9015401237C
:103340003722D0213868FEF78FF8BDE8FF810000F2
:10335000000000202DE9FF41012503AE0A2400965C
:103360000F4FCDE9015480462B463722D0213868D3
:10337000FDF77EFF9DF80C0008F0010120F0100021
:1033800040EA01108DF80C000096CDE901540123AC
:103390003722D0213868FEF767F8BDE8FF810000CA
:1033A000000000202DE9FF41012503AE0A2400960C
:1033B0000F4FCDE9015480462B463722D021386883
:1033C000FDF756FF9DF80C0008F0010120F02000E9
:1033D00040EA41108DF80C000096CDE9015401231C
:1033E0003722D0213868FEF73FF8BDE8FF810000A2
:1033F000000000202DE9FF41012503AE0A240096BC
:103400000E4FCDE9015480462B463722D021386833
:10341000FDF72EFF9DF80C00009620F0800040EA9A
:10342000C8108DF80C00CDE9015401233722D021BA
:103430003868FEF719F8BDE8FF81000000000020A1
:1034400001B584B001210A2204A88DE807000448D0
:103450000B462022D0210068FEF706F805B000BD1B
:103460000000002001B584B001210A2204A88DE8E3
:10347000070004480B461F22D0210068FDF7F4FF27
:1034800005B000BD000000202DE9FF41012503AE7D
:103490000A2400960F4FCDE9015480462B466B223B
:1034A000D0213868FDF7E4FE9DF80C0008F001011A
:1034B00020F0400040EA81108DF80C000096CDE924
:1034C000015401236B22D0213868FDF7CDFFBDE800
:1034D000FF8100000000002001B584B001210A2214
:1034E00004A88DE8070004480B462222D02100687A
:1034F000FDF7BAFF05B000BD0000002001B584B0A3
:1035000001210A2204A88DE8070004480B46212265
:10351000D0210068FDF7A8FF05B000BD0000002025
:103520002DE9F04387B014216846FCF781FE33484B
:103530000024016841F010010160016801F01001F0
:103540000591016841F080010160016801F080018E
:103550000591016841F001010160016801F001017C
:103560000591016841F008010160016801F008015E
:103570000591016841F004010160016801F0040156
:103580000591016841F00201016000681C4F00F0E4
:1035900002000590002208213846FDF79AFDDFF869
:1035A00064804FF43046002231464046FDF791FDDD
:1035B000DFF85490002210214846FDF78AFD0820CC
:1035C00000900125CDE90154694638460394FDF782
:1035D0009DFC0096CDE90154694640460394FDF7F1
:1035E00095FC10200090CDE90154694648460394AB
:1035F000FDF78CFC07B0BDE8F083000030380240D6
:1036000000100240000C0240000402400B480A492E
:103610004FF4007201604FF48271416000218160BB
:10362000C1600161C0E90512C1610162416281624C
:103630000A21C162FEF71ABB00300140BC00002025
:1036400010B58EB000240794089409940A940B9442
:103650001C2168460C94FCF7EBFD17484FF08041A5
:10366000016040F28F61C0E9011440F2E731C0E926
:1036700003148461FEF7CCFB4FF48050079007A938
:103680000D48FEF76CFC0C48FEF749FE0B940BA9A5
:1036900009480C94FEF774FB6020CDE90004029405
:1036A0000422694604480494FEF7D1FD0248FEF75F
:1036B00075FD0EB010BD00001401002010B58EB0D5
:1036C00000240794089409940A940B941C216846DA
:1036D0000C94FCF7ADFD17481549016040F2A311A9
:1036E000C0E9011440F2E731C0E903148461FEF738
:1036F0008FFB4FF48050079007A90E48FEF72FFC70
:103700000C48FEF70CFE0B940BA90A480C94FEF72C
:1037100037FB6020CDE90004029400226946054889
:103720000494FEF794FD0348FEF738FD0EB010BD7B
:10373000000400405401002010B58EB0002407940E
:10374000089409940A940B941C2168460C94FCF785
:103750006FFD17481549016040F2A311C0E901143B
:1037600040F2E731C0E903148461FEF751FB4FF4E6
:103770008050079007A90E48FEF7F1FB0C48FEF7B2
:10378000CEFD0B940BA90A480C94FEF7F9FA6020C1
:10379000CDE9000402940822694605480494FEF726
:1037A00056FD0348FEF7FAFC0EB010BD00080040BD
:1037B00094010020FEE7704770477047FDF722BF75
:1037C00030B593B030216846FCF732FD14210CA8C7
:1037D000FCF72EFD19480025016841F08051016079
:1037E000006800F0805011901548016841F4804154
:1037F00001600068022400F48040119001200090D4
:10380000000401908001CDE9064004200890A82022
:10381000CDE9090407200B906846FEF779F80CA95A
:103820000F2081E831004FF4A0500F90E00210907B
:1038300005210CA8FDF782FF13B030BD40380240CF
:10384000007000401048016841F4700101600F48A9
:10385000016841F0010101600C4A00210832116049
:1038600002680B4B1A400260031D0A4A1A60026884
:1038700022F48022026005480C300160024958069B
:10388000803908607047000088ED00E00038024091
:10389000FFFFF6FE103000240148FEF7CCBB00000D
:1038A000140200200148FEF7C6BB0000D40100202E
:1038B0000148FEF7C0BB0000540100200148FEF79C
:1038C000BABB0000940100200148FEF7B4BB000021
:1038D00054020020F0B50268254C264D264E274F95
:1038E000274B4FF0804CA04209D0604507D0A8423A
:1038F00005D0B04203D0B84201D0984204D122F0A2
:10390000700E4A6842EA0E02A0421BD0604519D0F0
:10391000A84217D0B04215D0B84213D0984211D067
:10392000184DA8420ED0184DA8420BD0174DA842F2
:1039300008D0174DA84205D0164DA84202D0164D0A
:10394000A84203D122F44075CA682A434D6922F087
:1039500080022A4302608A68C2620A688262A042C8
:1039600001D0984201D10969016301214161F0BD93
:10397000000001400004004000080040000C00402E
:103980000004014000400140004401400048014063
:1039900000180040001C00400020004010B501F05D
:1039A0001F030121046A99408C430462016A9A4012
:1039B0001143016210BD10B5846842EA032224F469
:1039C0007F440A432243826010BD826822F0700265
:1039D0000A4342F00701816070470000F0B5026AB7
:1039E00022F001020262036A42688469124E24F0E6
:1039F00073050C682C4323F002058B682B430D4D97
:103A0000A84201D0B04205D123F00807CB683B4360
:103A100023F00403A84201D0B04205D14D6922F43D
:103A2000407215438A692A43426084614968416350
:103A30000362F0BD0000014000040140F0B5026ADD
:103A400022F010020262026A436884690D6824F45D
:103A5000E64444EA05248D6822F0200242EA051279
:103A60000F4D104EA84201D0B04206D1CF6822F0CF
:103A7000800242EA071222F04002A84201D0B0427E
:103A800007D14D6923F4406343EA85038D6943EA16
:103A9000850343608461496881630262F0BD000070
:103AA0000000014000040140F0B5026A22F4807277
:103AB0000262026A4368C46922F4007224F073054A
:103AC0000C68124E2C438D6842EA05220E4DA84226
:103AD00001D0B04206D1CF6822F4006242EA072248
:103AE00022F48062A84201D0B04207D14D6923F48C
:103AF000405343EA05138D6943EA05134360C461EB
:103B00004968C1630262F0BD000001400004014049
:103B100030B5026A22F480520262046A4268C369C4
:103B20000D6823F4E64343EA05238D6824F400542A
:103B300044EA0534084DA84202D0084DA84204D1F9
:103B40004D6922F4804242EA85124260C3614968AD
:103B50000164046230BD0000000001400004014027
:103B600010B5036A046A24F001040462846924F035
:103B7000F00444EA021423F00A020A438461026258
:103B800010BD10B5036A23F0100303628369046A51
:103B900023F4704343EA023224F0A00343EA011104
:103BA0008261016210BD10B5806B0021C185C184A6
:103BB000FEF7A5FC10BD70B5846B2068406994F8D1
:103BC0003910C0F3C0100025212904D118B1E584B3
:103BD000204600F062F82068406994F83A10C0F37B
:103BE0008010222904D118B1E585204600F047F85D
:103BF000E06B40F01000E0632046FEF780FC70BDF3
:103C000010B50146806B09680968C90513D4002105
:103C1000C1850168CA6822F48072CA6001684A6975
:103C200022F001024A6101684A6922F040024A61B9
:103C3000202180F83A10FEF7DDFD10BD10B5806B35
:103C4000FEF738FE10BD10B50146806B09680968A3
:103C5000C9050CD40021C18401684A6922F08002A0
:103C60004A610068C16841F04001C16010BDFEF7C3
:103C700063FE10BD10B5806BFEF75FFE10BD0168DE
:103C8000CA6822F49072CA6001684A6922F001028F
:103C90004A61202180F83A1070470168CA6822F012
:103CA000C002CA60202180F83910704710B590F822
:103CB0003A10222901D0022010BD8168B1F5805F41
:103CC00011D00169002901681FD0496801F07F0304
:103CD000816A4A1C82620B70C18D491E0904090C5D
:103CE000C18518D02BE00269816A002A02685268F7
:103CF00005D0D2B20A80816A491C8162ECE7C2F326
:103D000008020A80816A891CF7E74A68816A4B1CAD
:103D100083620A70E0E70168CA6822F02002CA6084
:103D20000168CA6822F48072CA6001684A6922F098
:103D300001024A61202180F83A10FEF75BFD002065
:103D400010BD00002DE9F041044600680169E268F9
:103D500021F44051114301612169A068E2690843DF
:103D60006169114308432168CA6849F20C639A43A8
:103D70000243CA6020684169A26921F4407111437D
:103D80004161E069192764253226B0F5004F354AB4
:103D9000354920684FF0000806D0884201D0904293
:103DA00036D1FDF775FD35E0884201D0904202D151
:103DB000FDF76EFD01E0FDF75BFD61684A18A0FBB1
:103DC000070148EB0803FCF7FBF90146B0FBF5F0EF
:103DD0000201B1FBF5F06FF01803584301EB8000CE
:103DE00006EBC000B0FBF5F000F0F80002EB40027B
:103DF000B1FBF5F0584301EB800006EBC000B0FBCF
:103E0000F5F000F00700216810448860BDE8F081FB
:103E1000FDF72EFD61688B0F8A00A0FB0701FCF700
:103E2000CFF90146B0FBF5F06FF01802504301EBFB
:103E3000800006EB0010B0FBF5F000F0F002B1FBE3
:103E4000F5F002EB0012B1FBF5F06FF018035843E8
:103E500001EB800006EB0010B0FBF5F000F00F0066
:103E6000D1E70000001401400010014090F8391023
:103E7000212901D0022070478168B1F5805F016A75
:103E80000BD04A1C0262026809785160C18C491E3D
:103E90000904090CC1840ED017E009880268C1F337
:103EA0000801516001690029016A02D0491C0162C0
:103EB000ECE7891CFBE70168CA6822F08002CA604F
:103EC0000068C16841F04001C160002070470000F7
:103ED0000148FEF715BB000094020020FEE7000039
:103EE0000FB4084B10B504A902AA039800F09CFD7A
:103EF000044602A9002001F02EF9204610BC5DF80E
:103F000014FB00005751000803B4019841000098C9
:103F100050EAC12018BF04204A0D18BF40F001002C
:103F200040F2FF72B2EB515F08BF40F0020001287F
:103F300008BF052002B070474100080218BF0420E6
:103F40000A0E18BF40F001004FF07F4232EA010133
:103F500008BF40F00200012808BF0520704709078C
:103F6000090E002804DB00F1E02080F800147047FF
:103F700000F00F0000F1E02080F8141D70470000F1
:103F8000004870476400002070B59B482DED020B7F
:103F90002DED068B079D25F00044A04218DC9748C4
:103FA000844202DC0AD1069840B19DED060BBDECBF
:103FB000068B02B0BDE8704000F02BBC002DCCBFDA
:103FC0009FED8F0B9FED900BBDEC068B02B070BD8B
:103FD0008F48A04215DD8F48A042D8BF4FF0FF3474
:103FE00058DD9DED060B51EC100BFFF78DFF0428FB
:103FF00008BF00F025FC9DED060BBDEC068B02B062
:1040000070BD9DED060B51EC100B01F0B1F8CDE940
:10401000060181489FED828BA0423CDD8248A04290
:104020001FDD00249FED82AB9DED060B53EC1A2B98
:1040300051EC100BFCF714F99DED060B41EC190B3C
:1040400053EC1A2B51EC100BFCF7B1F953EC182B75
:10405000FCF7A7F953EC192BFCF71BFACDE9060185
:1040600049E09DED060B012453EC182B51EC100B8D
:10407000FCF7F6F89DED060B41EC190B53EC182BF1
:1040800051EC100BFCF78DF953EC192BFCF701FAEE
:10409000CDE906012FE06848A0421FDD02249FED14
:1040A000689B9DED060B53EC192B51EC100BFCF7A4
:1040B0007EF953EC182BFCF7D3F89DED060B41EC81
:1040C000180B53EC192B51EC100BFCF76AF953EC5D
:1040D000182BFCF7DEF9CDE906010CE09DED060B8F
:1040E000032453EC102B9FED580B51EC100BFCF7F5
:1040F000D0F9CDE906019DED060B53EC102B51ECE8
:10410000100BFCF754F941EC180B53EC182BFCF78F
:104110004EF941EC190B4E480621B0EE490AF0EE7B
:10412000690A784400F0F9FA53EC182B51EC100BA3
:10413000FCF73DF941EC180B4648B0EE490AF0EEA9
:10414000690A0521784400F0E8FA53EC192B51EC88
:10415000100BFCF72CF941EC100B51EC180B53EC45
:10416000102B002C0EDAFCF77BF89DED061B53ECB0
:10417000112BFCF71CF99DED061B53EC112BFCF7E2
:1041800013F935E0FCF76CF89DED061B53EC112B91
:10419000FCF70DF941EC100B2F48784400EBC400FC
:1041A00090ED001B51EC100B53EC112BFCF7F9F8C0
:1041B0009DED061B53EC112BFCF7F3F841EC100BB3
:1041C0002648784400EBC40090ED001B51EC100B26
:1041D00053EC112BFCF7E8F841EC100B002DA2BFBB
:1041E000BDEC068B02B070BD51EC100B81F00041AC
:1041F00041EC100B01E70000000010440000F07FCC
:10420000182D4454FB21F93F182D4454FB21F9BFCC
:104210000000DC3F0000203E0000F33F00000000F3
:10422000000000000000F03F0000E63F000000003A
:10423000000000000000004000800340000000007B
:10424000000000000000F83F000000000000F0BF88
:10425000CA120000801200000A120000C211000001
:1042600070B56B4E2DED040B2DED028B82B0DDF899
:104270001CC0DDE905235C422CF000411C4341EAEF
:10428000D474049D22F00040B44205D86C422C4303
:1042900040EAD474B4420BD99DED061B9DED040B8E
:1042A00002B0BDEC028B04B0BDE8704000F0BBBAB8
:1042B000ACF14054A4F17F641C430BD0022404EA07
:1042C000AC7444EAD27405439FED538B9FED542B9D
:1042D00007D015E09DED040B51EC100B00F040FFF2
:1042E00042E0002C11BF012C9DED040B02B0BDEC8F
:1042F000028B04BF04B070BD022C38D0032C3BD01D
:104300000B439FED491B9FED4A0B0AD0B14218D1D8
:10431000B04209D121F0804120F080400791059002
:104320000FE0002A15DA10E0434B7B44002C08BF55
:1043300093ED000B0DD0012C10D0022C17D0032CC4
:104340001AD0B0421DD1002A03DAB0EE410AF0EED5
:10435000610A02B0BDEC028B04B070BD93ED000B9E
:1043600051EC100B81F0004141EC100BF1E7B0EE85
:10437000480AF0EE680AECE7B0EE420AF0EE620A94
:10438000E7E7401A00153C28C8BF8DED000B19DC8B
:10439000BCF1000FBEBF10F13C0F9FED290B8DED5E
:1043A000000B0FDB9DED060B53EC102B9DED040B6A
:1043B00051EC100BFCF76DF800F0DAFE00F0D0FEC7
:1043C000CDE90001002C08BF9DED000BC1D0012CF0
:1043D00010D0022C9FED1C0B53EC102B9DED000B0D
:1043E00051EC100B0DD0FBF7DCFF53EC182BFBF757
:1043F000D8FFB9E7019880F0004001909DED000BD7
:10440000A7E7FBF7CEFF53EC182BFBF7CDFFABE78D
:104410000000F07F00000000182D4454FB210940EB
:10442000182D4454FB2109C0182D4454FB21F9BF19
:10443000182D4454FB21F93FF21000000000000049
:104440000000000000000000075C143326A6A13C19
:1044500010EE100A10B510EE901A4FF0684202EB01
:1044600040032DED028BB3F1654F3CBF02EB4102DF
:10447000B2F1654F7CD200BFC0F3C753C1F3C7523E
:104480009A1A1B2A09DD10F0004F14BF9FED6E0A27
:104490009FED6E0ABDEC028B10BD12F11A0F1BDAF4
:1044A00011F0004F09D010F0004F0CBF9FED680ACB
:1044B0009FED680ABDEC028B10BD80EE208A18EEDD
:1044C000100AFFF739FD042808BF00F0CDF9B0EE5F
:1044D000480ABDEC028B10BD4200B2EB410F37D948
:1044E00010F0004F19BFDFED5C1A9FED5C1ADFED95
:1044F0005C1A9FED5C1AB0EE602A0A46F1EE400AA3
:1045000080F00041B0EE420A10460A1A5200B2F1A1
:10451000807F34D2484010F0004FDFED532A9FEDEA
:10452000533A1DBFBEEE002A71EEE21A31EE431A75
:10453000B6EE002A04BF71EEA21A31EE031AF0EEB5
:10454000402A42EE602A40EE020A82EEA02A18E0DB
:1045500011F0004F04BF9FED461AF0EE411AD4D07F
:1045600010F0004F1CBFDFED431A9FED431A00E02F
:1045700026E004BFDFED411A9FED411AC5E780EE4A
:10458000202A22EE020ADFED3F0ADFED3F2ABDECD2
:10459000028B40EE202ADFED3D0A40EE220ADFEDDD
:1045A0003C2A40EE202ADFED3B0A40EE220A22EEB2
:1045B000000A00EE201A31EE020A30EE210A10BD88
:1045C0004FF07F42B2EB400F28BFB2EB410F05D254
:1045D000BDEC028BBDE8104000F042B940EA010397
:1045E0005B0008BF41F0FF410BD0B2EB400F08BFAA
:1045F000B2EB410F08D120F0804000EE100A21F00C
:10460000804100EE901A37E7B2EB400F12BF5FEA2D
:10461000410240F0FF4001F000413FF42DAF4A005D
:1046200092EA40033FF528AF002AACBF9FED1A1A6B
:104630009FED1A1A20EE010A60EE810A10EE100AB0
:1046400010EE901A18E70000DB0FC9BFDB0FC93F5F
:10465000DB0F4940DB0F49C00000C9BF22AAFDB9EA
:104660000000C93F22AAFD390060ED3EC30ACE37E3
:1046700000000000000049C022AA7DBA00004940A5
:1046800022AA7D3A2DAD65BD8FB8D53D0FB511BEBF
:1046900061C84C3EA8AAAABE0000804F0000802F2F
:1046A00000B52DED048BB0EE409AF0EE609A83B029
:1046B00051EC190BFCF79EF841EC180B18EE100AA0
:1046C00018EE901A8DED008B002818BF01200843CA
:1046D00020F00040C0F17F6000F1E040C00F14D036
:1046E00019EE101A19EE900A8DED009B002918BFE3
:1046F0000121084320F00040C0F17F6000F1E0405C
:10470000C00F04BF012000F0C7F8B0EE480A03B0A4
:10471000F0EE680ABDEC048B00BD70B504462DEDCB
:10472000028B4D1E00EBC500B0EE408AF0EE608AB1
:1047300090ED000B35F0060017D053EC182B51EC20
:10474000100BFBF734FE41EC100B6D1E04EBC500A3
:1047500090ED001B51EC100B53EC112BFBF780FD7F
:1047600041EC100B35F00600E7D1022D36D0042DB8
:104770001CD0062D1CBFBDEC028B70BD53EC182B5A
:1047800051EC100BFBF713FE94ED0A1B53EC112BAD
:10479000FBF766FD53EC182BFBF709FE94ED081BA5
:1047A00053EC112BFBF75CFD41EC100B53EC182B79
:1047B00051EC100BFBF7FBFD94ED061B53EC112B9A
:1047C000FBF74EFD53EC182BFBF7F1FD94ED040BBA
:1047D00053EC102BFBF744FD41EC100B53EC182B62
:1047E00051EC100BFBF7E3FD94ED021B53EC112B86
:1047F000FBF736FD53EC182BFBF7D9FD94ED001BAE
:1048000053EC112BFBF72CFDBDEC028B41EC100B94
:1048100070BD10B553EC102B51EC100BFBF720FDC5
:1048200041EC100B10BD10B553EC112B51EC100BDB
:10483000FBF716FD41EC100B10BD0000000000005E
:104840009FED050B10B553EC102B51EC100BFBF743
:10485000AEFD41EC100B10BD000000000000001088
:1048600030EE200A704700009FED020A20EE000A99
:10487000704700000000001002E008C8121F08C1C5
:10488000002AFAD170477047002001E001C1121FD1
:10489000002AFBD170470000014908607047000002
:1048A000640000202DE9FF5F82B00021DDE90430C3
:1048B000020DDDF840B0034318D044F61050A2F2C8
:1048C000FF3242431514119801281FD0A5EB0B00AD
:1048D000401C5FEA000A4FF000064E4FDFF83891A7
:1048E000B046504615D5CAF1000413E011980124D2
:1048F0004AA3012801D16FEA0B010298119AC0E97D
:104900000031C0E9024206B0BDE8F09FCBF10000E3
:10491000DFE704460021404A491842EB0450CDE944
:10492000001012E0E00707D032463B4640464946B9
:10493000FBF73DFD8046894632463B461046194608
:10494000FBF735FD06460F466410002CEAD1DDE981
:104950000401DDE90023BAF1000F06DAFBF727FDB9
:1049600042464B46FBF723FD05E0FBF792FD42462E
:104970004B46FBF78EFD04460E460022284BFBF704
:10498000A3FF03D84FF0FF30014607E00022254B7C
:1049900020463146FBF764FCFBF77DFF102409E05D
:1049A000002C0ADB0A220023FBF70AFC039B3032AF
:1049B0001A55641E50EA0102F2D1641C039AC4F134
:1049C00011031444119A012A03D0012208430DD186
:1049D0000AE0084304D000204FF0110B119072E759
:1049E000A3EB0B056D1E0DE05B4504DD4FF00002EF
:1049F00005F1010504E003DA4FF00002A5F101051D
:104A0000002AECD002981199C0E90231C0E90045B2
:104A100079E70000000014400000F03F3000000083
:104A20000000F0430000E03F2DE9FF4F95B09B46AA
:104A30008946064600250FE2252877D1002427461F
:104A4000F84A0121059400E0044316F8013F203B99
:104A500001FA03F01042F7D130782A2811D06FF014
:104A60002F033078A0F13002092A16D8059A44F0B5
:104A7000020402EB820203EB42021044761C059012
:104A8000EFE759F8042B0592002A03DA504244F468
:104A90000054059044F00204761C30782E2816D17C
:104AA00016F8010F44F004042A280DD06FF02F02ED
:104AB0003078A0F13003092B09D807EB870302EB0C
:104AC0004303C718761CF3E759F8047B761C30784B
:104AD0006C280FD006DC4C2817D068280DD06A2827
:104AE00014D104E0742810D07A280FD10DE044F4DA
:104AF00000140AE044F4801401E044F44014727895
:104B0000824202D104F58014761C761C3078662827
:104B10000BD013DC582877D009DC002875D0452845
:104B2000F6D04628F4D047281AD19DE118E0632832
:104B300035D0642879D0652812D195E1702873D0DA
:104B400008DC6728F1D069286FD06E280DD06F2857
:104B500006D1B5E073282CD0752875D0782874D08C
:104B60005A46179990476D1C75E1C4F3025002280C
:104B700009D003280DD0D9F8001004280DD00D60FD
:104B800009F1040967E1D9F80010EA17C1E90052F8
:104B9000F6E7D9F800100D80F2E70D70F0E719F88C
:104BA000041B8DF8001000208DF80100EA4601205A
:104BB00003E059F804AB4FF0FF3061074FF00001FC
:104BC00002D40DE008F101018846B9420FDA8045B0
:104BD000F8DB1AF808100029F4D108E008F1010107
:104BE00088468142FADB1AF808100029F6D10598A8
:104BF0005B46A0EB080721463846179A00F094FA66
:104C0000284400EB080507E04DE029E10DE01AF823
:104C1000010B5A4617999047B8F10108F7D25B4645
:104C200021463846179A13E142E00A220092C4F363
:104C300002524FF0000A022A08D059F804CB032A86
:104C40004FEAEC710AD00DE029E02AE009F10701F2
:104C500021F00702F2E802C1914609E00FFA8CFC4C
:104C60004FEAEC71042A03D14FFA8CFC4FEAEC7145
:104C7000002907DA0A460021DCF1000C61EB020191
:104C80002D2202E0220504D52B228DF804200122DA
:104C900003E0E20701D02022F7E7904659E00A211D
:104CA00002E010220DE010214FF0000A00910BE00D
:104CB00010224FF0000A44F004040827009203E099
:104CC00008224FF0000A0092C4F30252022A05D0D3
:104CD00059F804CB0021032A08D009E009F10701A3
:104CE00021F00702F2E802C1914605E01FFA8CFCB0
:104CF000042A01D10CF0FF0C4FF00008220728D540
:104D0000702806D0009B83F0100353EA0A0305D0F5
:104D10000EE040228DF80420012208E05CEA010246
:104D200006D030228DF804208DF80500022290462E
:104D3000009B83F0080353EA0A030AD15CEA0102EC
:104D400001D1620705D530228DF804204FF001080B
:104D50007F1E582804D034A003900EA802900DE0C6
:104D600036A0F9E753466046009AFBF729FA8446D5
:104D70000398825C0298401E029002705CEA010077
:104D8000F0D1029806A9081A00F1200A600702D59E
:104D900024F4803400E00127574502DDA7EB0A0028
:104DA00000E0002000EB0A01009005984144401A01
:104DB0000590E00306D45B462146179A059800F05B
:104DC000B3F90544002706E001A85A46C05D1799CB
:104DD00090476D1C7F1C4745F6DBE0030CD55B4616
:104DE0002146179A059800F09FF9054404E0302009
:104DF0005A46179990476D1C0099481E009000294B
:104E0000F5DC08E0029802995A460078491C0291A4
:104E1000179990476D1CBAF10001AAF1010AF1DC63
:104E200065E100000928010030313233343536376E
:104E300038396162636465660000000030313233E6
:104E40003435363738394142434445460000000086
:104E500000F058F90544761C307800287FF4ECAD5A
:104E600019B02846BDE8F08F620700D4062709F183
:104E7000070222F0070CFCE80223E14603F0004899
:104E80005FEA080C02D00FF2702C0DE05FEA045CC0
:104E900002D50FF2682C07E05FEAC47C02D00FF263
:104EA000602C01E0AFF2700C4FF0FF3823F00043AC
:104EB000CDF850C065280CD006DC452809D046281E
:104EC0001DD047283DD13DE0662818D067287ED107
:104ED00038E00021112F01DB112000E0781CCDE922
:104EE000000106A90EA8FFF7DDFCDDE90F010E9A0F
:104EF00003910021009207F1010A04914DE04FF067
:104F000000400097CDE9011006A90EA8FFF7CAFCE2
:104F1000DDE90F0203920E9B11990022DDF80CA02F
:104F20000093049211B9791C00EB010AB7EB0A0057
:104F300004D4C0F1FF3007F1010A0490AAEB070086
:104F4000019044E0012F00DA01270021112F01DD3B
:104F5000112000E03846CDE9000106A90EA8FFF7B0
:104F6000A1FCDDE90F010E9A03910021049100924A
:104F7000BA4621070CD40399514500DA8A46BAF1A2
:104F8000010F05DD009AAAF10101515C302908D01A
:104F9000B84202DA10F1040F06DA0121CDE901105E
:104FA00015E0AAF10101E9E7002805DC04990144B4
:104FB0000491AAEB000102E0411C514500DD8A4644
:104FC0000499401A401C01904FF0004002902007C5
:104FD00004D40198504501DBCDF8048000208DF801
:104FE0004F0002980DF14F07B0F1004F25D02B2054
:104FF0000E9002984FF0020800280CDA404202900E
:105000002D200E9007E00A210298FBF7E0FA3031DC
:10501000029007F8011DB8F10001A8F10108F2DCC7
:1050200002980028EFD1791E0E980870307800F0B1
:10503000200040F0450007F8020D12A8C01B00F147
:1050400007081498007800B1012000EB0A010198CC
:1050500001EBE07105984144401A401E0590E003C1
:1050600006D45B462146179A059800F05DF8054482
:105070001498007818B15A46179990476D1CE003B0
:1050800024D55B462146179A059800F04DF8054453
:105090001CE00498002807DBDDE90301884203DDFA
:1050A0000098405C179901E0179930205A469047C4
:1050B000049805F10105401C04900198401E0190E0
:1050C00004D12E205A46179990476D1CBAF1000161
:1050D000AAF1010ADDDC05E017F8010B5A46179921
:1050E00090476D1CB8F10001A8F10108F4DC5B46A3
:1050F0002146179A0598ABE62D0000002B00000012
:10510000200000002DE9F041044600251E46174608
:10511000880404D405E039462020B0476D1C641E85
:10512000F9D52846BDE8F0812DE9F0410446002577
:105130001E469046C80301D5302700E0202788048A
:1051400004D505E041463846B0476D1C641EF9D5CC
:105150002846BDE8F0810A68531C0B601070704748
:1051600010B541EC100BFEF70FFF51EC100B10BD0A
:1051700082B0CDE9000121F0004001909DED000BCF
:1051800002B051EC100B704708B5FCF743FAFEF77C
:1051900017FBFEF7C5F966480024016841F4800159
:1051A00001600068224600F48000009021463A2009
:1051B000FCF792FA3A20FCF781FA002211464620C9
:1051C000FCF78AFA4620FCF779FAFEF7B5FA5A4856
:1051D000584901604FF4E131C0E901140C21C46069
:1051E000C0E904418461C461FDF714FA524853498F
:1051F000803842F20F75C0E9001542F2CF01C0E9D4
:10520000024104618461FCF703FEFEF719FAFEF720
:10521000FDF94C484A4901604B49C0E901144FF47B
:105220008041C0E9034144618461C4610462FBF7C9
:105230005BFF41484549C038C0E90015EF21C0E98E
:10524000024104618461FCF7E3FD3B48404940387A
:10525000C0E900155321C0E9024104618461FCF7F3
:10526000D7FDFEF72BFA08213A48FDF775F83948C3
:1052700004218038FDF770F8364800214038FDF7EA
:105280006BF82D488038FCF759FE32484030FCF767
:1052900055FE29484038FCF751FE04222E49264885
:1052A000FDF75CFA2D494FF4967008602C490860B0
:1052B0003920810788632B4C012210212046FBF7FF
:1052C00008FF012210212046FBF703FF1D48FDF7D0
:1052D00055FE0020FEF78EF80020FEF713F801209F
:1052E000FEF738F80020FEF75DF80020FDF782FF9A
:1052F0000120FDF783FE0120FDF7B4FF0120FDF73B
:10530000D9FF0120FDF788FF0220FDF7C3FE05202D
:10531000FDF7D2FE0520FEF793F80220FEF7A2F873
:105320000220FEF7D9F80420FEF7E8F8FEE70000B7
:105330003038024000100140940200200048014033
:105340000054004068000020801A0600004401401C
:10535000001C004094010020400000203C08004058
:10536000340400400004024000000000000000007F
:1053700001020304060708090000000001020304FB
:1053800000061016000610164FBB610567ACDD3F26
:10539000182D4454FB21E93F9BF681D20B73EF3F5C
:1053A000182D4454FB21F93FE2652F227F2B7A3CD4
:1053B000075C143326A6813CBDCBF07A8807703C8D
:1053C000075C143326A6913CC4EB98999999C9BF00
:1053D000711623FEC671BCBF6D9A74AFF2B0B3BF35
:1053E0009AFDDE522DDEADBF2F6C6A2C44B4A2BFF5
:1053F0000D5555555555D53FFF8300922449C23F61
:105400006E204CC5CD45B73F513DD0A0660DB13F94
:10541000EB0D76244B7BA93F11DA22E33AAD903FA6
:1054200000000000000000000040404040404040BC
:105430004040414141414140404040404040404067
:10544000404040404040404040050202020202020B
:10545000020202020202020202202020202020205A
:10546000202020020202020202029090909090906E
:10547000101010101010101010101010101010102C
:1054800010101010020202020202888888888888A0
:10549000080808080808080808080808080808088C
:1054A000080808080202020240000000295400080F
:1054B000D054000800000020680000007848000870
:1054C0003855000868000020580700008848000888
:1054D00000000000000000000000000000000000CC
:1054E00000000000000000000000000000000000BC
:1054F00000000000000000000000000000000000AC
:1055000000000000666666BFCDCC4C3ECDCCCC3DE5
:10551000000000000000000000000000000000008B
:10552000000000000024F400010000001000000052
:08553000000000000000000073
:040000050800018965
:00000001FF
