:020000040800F2
:10000000200600209D0100083F2E00085D2000080A
:100010003D2E0008DF090008D1350008000000006F
:10002000000000000000000000000000632E000837
:10003000E109000800000000612E0008652E00089C
:10004000B7010008B7010008B7010008B7010008B0
:10005000B7010008B7010008E3090008B70100086C
:10006000B7010008B7010008B7010008B701000890
:10007000B7010008B7010008B7010008B701000880
:10008000B7010008B7010008B7010008B701000870
:10009000B7010008B7010008B7010008B701000860
:1000A000B7010008B7010008412F0008B701000898
:1000B000B7010008B7010008B7010008B701000840
:1000C000B7010008B7010008B7010008B701000830
:1000D000B7010008C5350008B7010008B7010008DE
:1000E000B7010008B7010008B7010008B701000810
:1000F000B7010008B7010008B7010008B701000800
:10010000B7010008B7010008B7010008B7010008EF
:10011000B7010008B7010008B7010008B7010008DF
:10012000B7010008B7010008B7010008B7010008CF
:10013000B7010008B7010008B7010008B7010008BF
:10014000B7010008B7010008B7010008B7010008AF
:10015000B7010008B7010008B7010008B70100089F
:10016000B7010008B7010008B7010008B70100088F
:10017000B7010008B7010008B7010008000000003F
:10018000B7010008B7010008DFF80CD000F0B4FB9D
:1001900000480047D1450008200600200648804757
:1001A00006480047FEE7FEE7FEE7FEE7FEE7FEE75C
:1001B000FEE7FEE7FEE7FEE7ED2E000889010008F6
:1001C0002DE9F05F0546002092469B46884606468C
:1001D000814640241BE0284641464746224600F01F
:1001E0001BFA53465A46C01A914110D3114618467D
:1001F000224600F002FA2D1A67EB01084F4622460C
:100200000120002100F0F9F917EB00094E41201EF2
:10021000A4F10104DFDC484631462A464346BDE8E6
:10022000F09FD2B201E000F8012B491EFBD27047CB
:100230000022F6E710B513460A4604461946FFF7B2
:10024000F0FF204610BD70B5064603F0EFF90468D4
:1002500005460A220021304600F000FA2C6070BDED
:100260002DE9FE4F804681EA0300C00F0C46009046
:1002700021F0004123F00045B8EB0200A94105D26E
:100280004046214690461C460B46024623F000405D
:10029000104347D0270DC7F30A00C3F30A51029059
:1002A000401A019040286BDAC3F3130040F4801B1E
:1002B0000098924620B10023D2EB030A63EB0B0BAC
:1002C00001985946C0F14002504600F096F90646A2
:1002D0000D4650465946019A00F0AEF910EB080061
:1002E0006141002487EA115284EAE7731A4340D03F
:1002F000009A62B3019A012A4FEA075215DC001BEB
:1003000061EB02014FF0004202EA0752CDE90042E0
:10031000001C41F5801132462B4600F01DFA03B057
:10032000BDE8F08F40462146F9E7001B61EB020172
:10033000001C41F5801300185B412018A2F500173E
:1003400047EB030140EAD570B6196D4111E06D0825
:100350004FEA360645EAC0754FEA0752001B61EBCB
:100360000201001C41F5801149084FEA30000019D4
:10037000514132462B4603B0BDE8F04F00F0DDB9E5
:100380000098012240000023D0EB020263EBE073EF
:10039000009821464FEAE074B8EB000061EB0401DD
:1003A000E9E783F000435BE781F0004158E72DE97E
:1003B000FE4F81EA030404F0004421F00041009460
:1003C0004FF0000B23F0004350EA01045ED052EAE4
:1003D00003045BD0C3F30A54C1F30A552C44A4F2BE
:1003E000F3340194A0FB0254C1F3130141F48011D2
:1003F000C3F3130343F4801301FB024400FB034ED9
:10040000840A970A44EA815447EA8357A4FB0768A1
:1004100002958D0A05FB07854FEA932C04FB0C54CB
:100420002705029D4FEA065847EA1637B5EB08053F
:100430006EEB070C870E920E47EA811742EA831291
:10044000A7FB0201B6EB0B0164EB00042B0D43EAA2
:100450000C335E1844EB1C50DA465146E7FB0201B0
:10046000C5F313044FEA0B3343EA14534FEA043243
:10047000019C43EA0603A4F10C040294009CCDE91C
:1004800000B400F069F903B0BDE8F08F0020014628
:10049000F9E72DE9F04D81EA030404F0004B21F067
:1004A000004514464FF0000A23F0004150EA0502CF
:1004B00020D054EA01021DD0C5F30A570246C5F305
:1004C0001303C1F31300C1F30A5640F4801543F43B
:1004D0008013A7EB0608101BD64608F2FD3873EB15
:1004E000050002D308F1010801E092185B41B8F160
:1004F000000F03DA00200146BDE8F08D00204FF424
:100500008011064684460EE0171B73EB050705D3E2
:10051000121B63EB050306434CEA010C49084FEA42
:10052000300092185B4150EA0107EDD152EA030016
:1005300012D082EA040083EA0501084305D0101BAB
:10054000AB4106D20122002306E000224FF0004317
:1005500002E06FF0010253101AEB06004CEB085159
:1005600010EB0A0041EB0B01BDE8F04D00F0E5B8DF
:1005700000F0004230F000400AD0C10D01F560717A
:10058000C0F3160042EA0151C20840071143704708
:1005900000200146704701F0004330B421F00041D3
:1005A00050EA010206D00A0DA2F56072C1F31301F0
:1005B000002A02DC30BC00207047440F44EAC1042A
:1005C000C100E01830BC00EBC25000F07FB830B57D
:1005D0000B46014600202022012409E021FA02F501
:1005E0009D4205D303FA02F5491B04FA02F528449B
:1005F000151EA2F10102F1DC30BD202A04DB203AF5
:1006000000FA02F1002070479140C2F1200320FA65
:1006100003F3194390407047202A04DB203A21FA63
:1006200002F00021704721FA02F3D040C2F120020B
:100630009140084319467047202A06DBCB17203A21
:1006400041FA02F043EAE07306E041FA02F3D040D7
:10065000C2F1200291400843194670472DE9F04746
:1006600091460F4680460446002614F8015B2DB1E2
:1006700000F054F90068405DC007F6D12B2D02D080
:100680002D2D18D0641E4A463946204600F04AF9FE
:1006900027B13968A14201D1C7F8008071054FF038
:1006A00002040BD54042002803DD02F0BFFF0460C6
:1006B000A007BDE8F08746F48066E4E70028F8DA92
:1006C00002F0B4FF04606FF00040F2E70029A8BF19
:1006D0007047401C490008BF20F00100704710B46B
:1006E000B0FA80FC00FA0CF050EA010404BF10BC20
:1006F000704749B1CCF1200421FA04F411FA0CF14D
:1007000018BF012121430843A3EB0C01CB1D4FEA85
:1007100000614FEA102042BF002010BC704700EB80
:10072000C35010440029A4BF10BC7047401C4900AE
:1007300008BF20F0010010BC704710B5141E73F103
:10074000000408DA401C41F1000192185B411A4391
:1007500001D120F0010010BD2DE9F04D92469B46DD
:1007600011B1B1FA81F202E0B0FA80F22032904683
:10077000FFF743FF04460F4640EA0A0041EA0B0137
:1007800053465A46084313D0114653EA010019D084
:10079000C8F140025046FFF73FFF05460E4650465F
:1007A00059464246FFF729FF084305D0012004E0DF
:1007B00020463946BDE8F08D0020054346EAE07644
:1007C0002C4337430A986305E40AA0EB0800002293
:1007D000FD0A44EA47540A3002D500200146E9E701
:1007E000010510196941DDE9084500196941BDE8B5
:1007F000F04DA2E72DE9F04D00231A461B1A8A415D
:1008000003DB00200146BDE8F08DC1F30A52C1F3BD
:10081000130141F480154FF0000BD10702D10018ED
:100820006D41521E0027044640F2FF11384601EB8D
:10083000620A3E468046024600204FF48011FFF7D0
:10084000EBFEC2197141BB1846EB0100B4EB030C7F
:1008500075EB000C04D3E41A65EB000517460E4651
:10086000241908F101006D4180463428E3DDF919AF
:1008700046EB0600091BA84103D24FF0FF32134696
:1008800001E0002213461BEB070046EB0A51BDE8CE
:10089000F04DFFF752BFC1F30A52C1F3130140F20A
:1008A000FF3341F480119A4202DA0020014670477A
:1008B00040F233439A42A2F2334202DC5242FFF743
:1008C000ABBEFFF79ABE000030B5041E71F1000404
:1008D00004DB4FF00044404264EB0101141E73F14D
:1008E000000405DB1C464FF00043524263EB040357
:1008F000994208BF904230BD064C074D06E0E068C3
:1009000040F0010394E8070098471034AC42F6D356
:10091000FFF73EFC084900082849000800487047D6
:10092000044900082DE9F05F82460078002715464B
:100930008B460AF10104B946302801D09DB113E07D
:1009400014F8010B0127782803D0582801D045B1AD
:100950000AE00DB1102D07D10027102514F8010B66
:1009600002E0082500E00A250026B0460EE005FB5F
:10097000080005FB06F1012701EB10461FFA80F87D
:10098000B6F5803F00D3B94614F8010B294600F0B4
:1009900018F80028EBDABBF1000F05D00FB1641E88
:1009A00000E05446CBF80040B9F1000F06D002F049
:1009B0003DFE02210160C81EBDE8F09F48EA0640E6
:1009C000FAE73A2800D2303820F02002412A01D339
:1009D000A2F13700884201D34FF0FF307047FEE7A5
:1009E0007047012000F026B890F83510022903D096
:1009F0008021416501207047052180F8351000688D
:100A0000016821F0010101600020704770B50446C3
:100A100000F0FEF80546601C02D00448007804444B
:100A200000F0F6F8401BA042FAD370BD3800002059
:100A300070470000044910B50A68024202D00860FD
:100A4000FFF7F6FF10BD0000143C01402DE9F84F00
:100A5000DFF87CB100224FF001084FF0030A4FF09D
:100A60000F090BF1040E00BF0B6808FA02F42340D3
:100A7000A3426ED14D68022D01D0122D0ED1D508A2
:100A800000EB850CDCF820505607F70E09FA07F644
:100A9000B5430E69BE402E43CCF820600668550071
:100AA0000F790AFA05FC07F0030726EA0C06AF40A7
:100AB000374307604E68012E05D0022E03D0112E59
:100AC00001D0122E0ED18668CF6826EA0C06AF4000
:100AD000374387604668A6430C79C4F300149440FA
:100AE00034434460C6688C6826EA0C06AC40344344
:100AF000C4604C68E40065D5364C256845F48045F3
:100B00002560246822F0030504F480440094324CEC
:100B10002E19D6F8084895072F0F09FA07F5AC43A8
:100B20002E4DA84201D1002524E02D4DA84201D12F
:100B300001251FE02B4DA84201D102251AE02A4DC4
:100B4000A84201D1032515E0284DA84202D1042571
:100B500010E037E0264DA84201D105250AE0254DD9
:100B6000A84201D1062505E0234DA84201D1072561
:100B700000E00825BD402543C6F80858DBF80040D2
:100B80005D464E689C43F60300D51C432C60DEF89E
:100B9000004075464E689C43B60300D51C432C604C
:100BA0000B4D08352C684E689C43F60200D51C435B
:100BB0002C60074D0C352C684E689C43B60200D55E
:100BC0001C432C60521C102AFFF44EAFBDE8F88F76
:100BD000003C014044380240003001400000024027
:100BE0000004024000080240000C024000100240D5
:100BF0000014024000180240001C024042694A40B2
:100C0000426170470AB1816170470904FBE7000047
:100C100001488068704700003800002070B504006B
:100C200004D094F83D00002510B106E0012070BD0D
:100C300084F83C50204600F011FA242084F83D004E
:100C40002068016821F00101016000F06FFB334969
:100C50002268B0FBF1F15160314A6368934206D9D2
:100C60004FF4967359434FF47A73B1FBF3F1236851
:100C7000491C1962616891420BD84900B0FBF1F23E
:100C8000C2F30B02042A01D2042019E0B0FBF1F0F8
:100C900016E0A3689BB301EBC10202EB0112B0FBAB
:100CA000F2F242F48042120530D04BB301EBC102A4
:100CB00002EB0111B0FBF1F040F4804040F4004041
:100CC0002168C861D4E90701084321680860D4E9B4
:100CD0000310084321688860D4E9050108432168AE
:100CE000C8602068016841F001010160256420208E
:100CF00084F83D00256384F83E50002070BD00E07C
:100D000006E001EB4102B0FBF2F2CCE70120D7E7AD
:100D100001EB4101B0FBF1F0D0E7000040420F00D1
:100D2000A08601002DE9FF4F83B09A46DDE91187C7
:100D300093460446DDF84090FFF76AFF054694F8B5
:100D40003D00202874D119230122724920460095C4
:100D500001F089FA0028F5D194F83C00012867D009
:100D6000012084F83C0020680168C90703D10168AC
:100D700041F0010101602068016821F40061016017
:100D8000222084F83D00402084F83E00002626649E
:100D9000C4F82490A4F82A805F48E062608D208522
:100DA000CDE9007553465A462046049901F06BF987
:100DB00028B1206C84F83C60042843D076E0208D74
:100DC000C8B1012820D00228206823D04169806959
:100DD0000090208D03286BD801282AD04F49022883
:100DE0003B464FF0000200955BD08846204601F05C
:100DF0003AFAE8BB40E020684169816900910168E6
:100E000041F40071016076E02068016821F480619E
:100E10000160F0E7016821F48061016020680168E9
:100E200041F400610160206841698069009062E0DE
:100E30006EE02A463946204601F08AFA30B1206C2D
:100E4000202833D0012007B0BDE8F08F206847E0AC
:100E50002068016841F40071016020680169606ADE
:100E6000421C62620170208D401E2085608D00E072
:100E70001CE0401E6085E9E72068016821F480617C
:100E8000016020680169606A421C62620170208D05
:100E9000401E2085608D401E60853B4600224146F5
:100EA0000095204601F0DFF90028D1D00320CAE7E1
:100EB0002A463946204601F04BFA0028BFD1206867
:100EC0000169606A421C62620170208D401E2085AB
:100ED000608D401E608520684169C94349070AD476
:100EE0000169606A421C62620170208D401E20858B
:100EF000608D401E6085208D00287FF46AAF202021
:100F000084F83D0084F83E6084F83C6000209AE755
:100F1000022098E7020010000000FFFF040001001B
:100F20002DE9FF4F83B09A46DDE9118793460446C9
:100F3000DDF84090FFF76CFE064694F83D0020284F
:100F40007DD11923012243492046009601F08BF9F7
:100F500000287CD194F83C00012878D0012084F846
:100F60003C0020680168C90703D1016841F0010114
:100F700001602068016821F400610160212084F88B
:100F80003D00402084F83E0000252564C4F82490EC
:100F9000A4F82A803048E062608D2085CDE9007693
:100FA00053465A462046049901F0E6F880B3206C77
:100FB00084F83C50042848D008E0324639462046A0
:100FC00001F0F7F930B1206C042839D0032007B0C4
:100FD000BDE8F08F606A411C616221680078086199
:100FE000208D401E80B22085618D491E618521685B
:100FF0004A69D24352070BD468B1606A421C6262EC
:1010000000780861208D401E2085608D401E60851F
:10101000208D0028D1D132463946204601F0FCF817
:101020000028D0D154F83D0B016841F400710160F3
:10103000202004F81E09E57765770020C7E706E061
:101040002068016841F4007101600120BFE70220BF
:10105000BDE70000020010000000FFFF10B586B0E1
:10106000044614216846FFF7E3F8144920688842D3
:1010700021D11348016841F002010160006869460E
:1010800000F0020005904FF4407000901220019093
:101090000120029003200390042004900948FFF7E8
:1010A000D5FC07481030016841F400110160006868
:1010B00000F40010059006B010BD00000054004080
:1010C000303802400004024002488168027811442E
:1010D00081607047380000200B4810B5016841F46A
:1010E00000710160016841F480610160016841F4B0
:1010F00080710160032000F06FF8002000F006F816
:1011000000F024F8002010BD003C024070B50D4DE9
:1011100004464FF47A712878B1FBF0F00A49096867
:10112000B1FBF0F000F054FB48B9102C07D20022BC
:101130002146501E00F030F800206C6070BD012088
:1011400070BD000038000020340000200B4882B041
:10115000016841F480410160006800F48040009023
:101160000648001F016841F080510160006800F0EE
:1011700080500090072002B000F02EB844380240A2
:1011800000F01F02012191404009800000F1E020A1
:10119000C0F8001170470000F0B40E4B1B680C46FD
:1011A000C3F30223C3F10705042D00D90425191D3B
:1011B000072901D2002300E0DB1E012606FA05F113
:1011C000491E214099409E40761E16403143F0BC96
:1011D00001F036BE0CED00E0064900F00702086899
:1011E0004FF6FF03184040EA0220034A104308600C
:1011F000704700000CED00E00000FA052DE9F04713
:101200000E46050065D0DFF81481D8F80000F7B26B
:1012100000F00F00B04207D288F80070D8F8000044
:1012200000F00F00B04254D128683D4C810712D520
:10123000400703D5206840F4E0502060287800077C
:1012400003D5206840F4604020602068A96820F041
:10125000F000084320602878C0072DD03049686826
:101260000839012812D0022813D0032811D00968A8
:10127000890700292DDA216821F00301014321604B
:10128000FFF7C6FC814641F2883A0EE009688903FF
:10129000EFE709688901ECE7FFF7BAFCA0EB090169
:1012A000514502D90320BDE8F0872068696800F045
:1012B0000C00B0EB810FEFD1D8F80010404601F0E0
:1012C0000F01B14207D90770006800F00F00B0426B
:1012D00001D00120E7E72878400705D52068E968B4
:1012E00020F4E050084320602878000706D52068E5
:1012F000296920F4604040EAC100206000F036F81F
:101300002168084AC1F30311515CC84006490860CE
:101310000020FFF7FBFE0020C5E70000003C024074
:1013200008380240C8470008340000200448054936
:1013300000680968044AC1F38221515CC8407047C3
:101340003400002008380240D84700080448054906
:1013500000680968044AC1F34231515CC8407047D3
:101360003400002008380240D8470008154810B55E
:10137000006810F00C02144813D04110042A0FD05A
:10138000082A0ED10F4C241F2268236802F03F0266
:101390005B0207D52068C0F38810A0FB010106E0BE
:1013A000084610BD2168C1F38811A1FB000100238C
:1013B000FEF706FF2168C1F30141491C4900B0FB5B
:1013C000F1F010BD083802400024F4002DE9F84F78
:1013D000050076D02878DFF8F8B2BE4CC00749D0B7
:1013E000DBF800105846C1F38101012908D00068DC
:1013F000C0F3810002280AD1201D0068400206D5F2
:101400002068800336D568680028E2D032E068683A
:10141000B0F5803F10D0B0F5A02F206810D020F498
:1014200080302060206820F4802020606868A0B1AF
:10143000FFF7EEFB06460CE0206840F48030F4E74E
:1014400040F480202060F7E7FFF7E2FB801B642870
:1014500073D820688003F7D50CE0FFF7D9FB064668
:1014600005E000BFFFF7D4FB801B6428F0D820689C
:101470008003F7D42878DFF8608280074FF00009F6
:101480003ED5DBF80010584611F00C0F09D000686B
:10149000C0F3810002280BD18D48001F0068400274
:1014A00006D42068800715D5E868012809D111E025
:1014B000E868B8B10120C8F80000FFF7A9FB0646AC
:1014C00005E002E1FFF7A4FB801B0228C0D82068DA
:1014D0008007F7D52068296920F0F80040EAC100AC
:1014E00020600DE0C8F80090FFF792FB064604E08C
:1014F000FFF78EFB801B02281FD820688007F7D4D7
:101500002878000722D5724E744869696C3671B12B
:1015100001210160FFF77CFB074604E0FFF778FB41
:10152000C01B022809D830688007F7D50EE0C0F844
:101530000090FFF76DFB074605E083E0FFF768FBCF
:10154000C01B02287ED830688007F7D4287840076F
:1015500068D5DFF87CA100270AF1380ADAF8000024
:10156000C0000BD4DAF8001041F08051CAF8001026
:10157000DAF80000012700F080500090584E3068E3
:10158000C00510D4306840F480703060FFF740FB35
:10159000009005E0FFF73CFB0099401A022851D863
:1015A0003068C005F6D54A4EA868683601280FD0C5
:1015B0000528306810D020F001003060306820F03D
:1015C00004003060A868B8B1FFF722FB00900FE07C
:1015D000306840F00100F4E740F004003060F7E7C5
:1015E000FFF716FB0099411A41F28830814264D816
:1015F00030688007F4D50EE0FFF70AFB009007E0A3
:10160000FFF706FB0099411A41F28830814254D815
:1016100030688007F4D42FB1DAF8001021F080513F
:10162000CAF80010A869C0B3DBF80010C1F381014B
:1016300002294AD00228484607D0C8F86000FFF7C0
:10164000E7FA00E039E005463AE04746C8F86000AE
:10165000FFF7DEFA064604E0FFF7DAFA801B0228FD
:101660002BD820688001F7D4D5E907010843A96A7F
:101670001C4A490802EB01416A6A41EA82110843A7
:1016800095F82C1040EA01611148001F016001200B
:101690003866FFF7BDFA054605E014E0FFF7B8FA33
:1016A000401B022809D820688001F7D50BE000BF55
:1016B000FFF7AEFA401B022802D90320BDE8F88FDD
:1016C00020688001F4D40020F8E70120F6E700004C
:1016D000083802400038024000004742800E47426E
:1016E000007000400000FFFF70B5040005D0002529
:1016F000A56294F8510010B106E0012070BD84F895
:101700005050204600F030F8022084F85100206844
:10171000016821F040010160D4E901010843D4E9E6
:1017200003121143084361690843218B01F40071DE
:101730000843E1690843216A0843A16A0843216814
:101740000860A069042101EA1040616A0843216829
:1017500048602068C16921F40061C16165650120AC
:1017600084F85100002070BD10B586B004461421E5
:101770006846FEF75DFD13492068884220D1124873
:101780000021026842F480520260006800F4805038
:1017900005900D481438026842F0010202600068AA
:1017A00000F001000590E02000900220CDE9010149
:1017B000032003900520049069460448FFF746F98A
:1017C00006B010BD00300140443802400000024025
:1017D00010B5401EB0F1807F01D3012010BD4FF045
:1017E000E02460610F21601701F02AFB0020A06156
:1017F00007202061002010BD7047704730B590F879
:101800003820012A20D0012280F83820022380F8D5
:10181000393003685C6824F070045C6003685C68BD
:101820000D682C435C6003689C6824F080049C6015
:1018300003689C6849680C439C6080F8392000214B
:1018400080F83810084630BD022030BD10B50400C5
:1018500003D094F8390010B107E0012010BD00203A
:1018600084F83800204600F00DF8022084F8390092
:10187000211D206801F06AFB012084F83900002056
:1018800010BD000008B501681748B1F1804F0BD0BA
:10189000164A914210D1016841F0040101600068CC
:1018A00000F00400009008BD016841F001010160F2
:1018B000006800F00100F5E70D488142F3D10A48C5
:1018C000001D016841F4802101600068002200F4DD
:1018D0008020009011461A20FFF75EFCBDE808400A
:1018E0001A20FFF74DBC00004038024000080040BD
:1018F000004801400168CA6842F00102CA600068FD
:10190000016841F0010101600020704770B5044694
:1019100090F83800012817D0012584F838500220AB
:1019200084F839002068826822F0770222F47F422E
:1019300082600868502837D00DDC202859D005DC9B
:1019400088B3102841D151E0022070BD302853D017
:1019500040283AD13FE060282ED070280BD0B0F557
:10196000805F03D0B0F5005F2FD110E02068816860
:1019700021F0070115E0CB68D1E90121206801F0D1
:1019800050FB2168886840F0770088601DE0CB68D4
:10199000D1E90121206801F044FB2068816841F40D
:1019A0008041816011E01EE0CA684968206801F04A
:1019B00001FC5021206806E0CA684968206801F0EF
:1019C0000AFC6021206801F036FB84F839500020C1
:1019D00084F8380070BDCA684968206801F0EAFBE5
:1019E00040212068EFE700212068ECE71021206803
:1019F000E9E720212068E6E730212068E3E7704727
:101A000070B50446006801694FF00005C9438907B5
:101A100015D4C168C943890711D4E91E01610120A9
:101A20002076206880698007204602D0FFF7E7FF14
:101A300004E000F0D9F8204600F05BF92576206834
:101A40000169C943490717D4C168C943490713D479
:101A50006FF004010161022020762068806910F493
:101A6000407F204602D0FFF7CAFF04E000F0BCF838
:101A7000204600F03EF9257620680169C943090730
:101A800016D4C168C943090712D46FF00801016177
:101A9000042020762068C0698007204602D0FFF726
:101AA000AEFF04E000F0A0F8204600F022F9257611
:101AB00020680169C943C90617D4C168C943C9066A
:101AC00013D46FF010010161082020762068C069EE
:101AD00010F4407F204602D0FFF791FF04E000F0B1
:101AE00083F8204600F005F9257620680169C9438E
:101AF000C90708D1C168C943C90704D1891E01615A
:101B0000204600F013F920680169C943090609D489
:101B1000C168C943090605D46FF080010161204600
:101B2000FFF76AFE20680169C943490609D4C16804
:101B3000C943490605D46FF040010161204600F019
:101B4000F6F820680169C94389060BD4C168C94306
:101B5000890607D46FF0200101612046BDE870407E
:101B6000FFF74BBE70BD000030B587B004461421AE
:101B70006846FEF75DFB2468002117480222122305
:101B8000B4F1804F16D0154DAC4211D1046844F029
:101B900008040460006800F00800059050030090FD
:101BA000CDE90131CDE9031269460D48FEF74EFF3C
:101BB00007B030BD046844F001040460006800927E
:101BC00000F001000590CDE901310120CDE90310BD
:101BD00069460448EAE70000303802400008004047
:101BE000000C024000000240704770B5044690F8B7
:101BF00038000D4601280DD0012684F838600220F7
:101C000084F8390042B1042A18D0082A2AD00C2AB4
:101C10004DD139E0022070BD206801F015FA20682E
:101C2000816941F0080181612068816921F0040126
:101C30008161206881692A69114311E0206801F0FF
:101C40002FFA2068816941F400618161206881690F
:101C500021F480618161206881692A6941EA022159
:101C6000816124E0206801F04DFA2068C16941F0EB
:101C70000801C1612068C16921F00401C1612068C7
:101C8000C1692A69114311E0206801F06BFA2068EC
:101C9000C16941F40061C1612068C16921F48061BA
:101CA000C1612068C1692A6941EA0221C16184F8E1
:101CB0003960002084F8380070BD10B5040003D0EE
:101CC00094F8390010B107E0012010BD002084F81D
:101CD0003800204600F00CF8022084F83900211D5D
:101CE000206801F033F9012084F83900002010BD8C
:101CF0007047704710B504460068012201F086F96C
:101D000008492068884202D00749884203D1416CC3
:101D100041F4004141642068016841F00101016023
:101D2000002010BD000001400004014070477047D2
:101D30007047000070B5026804461068D1685369A6
:101D400010F00F0F50D003F0010501F490763543E9
:101D50005DD0C20705D0CA0503D5E26B42F001028F
:101D6000E263420705D5DA0703D0E26B42F00202D4
:101D7000E263820705D5DA0703D0E26B42F0040282
:101D8000E263020705D5DA0703D0E26B42F00802EE
:101D9000E263E26B002A33D0800604D5880602D5C0
:101DA000204601F040FA20684069E16BC0F38010E2
:101DB000090700D428B3204601F027FA20684169BA
:101DC00049061AD5416921F040014161606BA0B11B
:101DD0001B490165606BFEF707FE002810D0606BA1
:101DE000016DBDE870400847830610D58B060ED5FF
:101DF0002046BDE8704001F016BA2046FFF798FF74
:101E000070BD2046FFF794FF0020E06370BD03061D
:101E100006D50B0604D52046BDE8704001F0A0BBF6
:101E20004006F3D54806F1D5D168204621F040019F
:101E3000D160202184F8391000F00FF970BD000046
:101E4000FB31000870B5040004D094F83900002577
:101E500010B106E0012070BD84F83850204600F033
:101E600023F8242084F839002068C16821F4005147
:101E7000C160204601F01EFA2068016921F49041FA
:101E800001612068416921F02A0141612068C1682F
:101E900041F40051C160E563202084F8390084F8E2
:101EA0003A00002070BD000010B586B00446142131
:101EB0006846FEF7BDF917492068884228D11648C0
:101EC000016841F010010160006800F01000059009
:101ED00011481438016841F0020101600068694648
:101EE00000F002000590C020009002200190012027
:101EF000029003200390072004900848FEF7A6FDF7
:101F0000002211462520FFF747F92520FFF738F971
:101F100006B010BD001001404438024000040240E9
:101F200090F83A30202B1DD1D1B1CAB190F8383099
:101F3000012B17D081628285C2850021C1632222D4
:101F400080F83A2080F8381001684A6942F00102AE
:101F50004A610068C16841F49071C1600020704717
:101F6000012070470220704770B5284810F8015BC7
:101F700010F8014BFEF767F96421532D06D0732D3D
:101F800004D0542D1CD0742D1AD033E0204A462C96
:101F900006D0662C04D0522C0AD0722C08D029E02E
:101FA00000EB0010400090FBF1F0C0F14A0005E0AA
:101FB00000EB0010400090FBF1F04A30106019E097
:101FC0004FF08042522C06D0722C04D04C2C0AD0F8
:101FD0006C2C08D00EE0C0EB0010400090FBF1F03C
:101FE000C0F1380005E0C0EB0010400090FBF1F0BC
:101FF00038309063042205490648FFF791FFBDE899
:1020000070404FF400410448FEF7F8BD0E00002078
:102010003C080040A8010020000C024090F8393034
:10202000202B18D1A9B1A2B190F83830012B12D0D1
:1020300001628284C2840021C163212280F8392098
:1020400080F838100068C16841F08001C16000204C
:10205000704701207047022070477047FEE7016813
:102060004A69D24352050CD46FF480624A6104215C
:102070000164002140F8301F2022427301730120C7
:102080007047002070472DE9F84F044600688946E4
:102090000B9D01689846174641F4806101602068F5
:1020A000016841F48071016000954FF0011A00222F
:1020B000514620460A9B00F0D6F8F0BB216809F093
:1020C000FE0008610AF1010B2B46594620460A9A88
:1020D00000F0FAF818B1206C042812D03AE0206819
:1020E0004169806900902A4620460A9900F061F90A
:1020F00050B1206C04282DD12068016841F4007192
:1021000001600120BDE8F88FFEB2B8F1010F09D0DF
:102110002168380A08612A4620460A9900F049F9E0
:102120000028E6D1206806612A4620460A9900F078
:1021300040F90028DDD1206800E00BE0016841F49F
:102140008071016000950022514620460A9B00F0F4
:102150008AF808B10320D5E7216809F0FF0040F0B4
:10216000010008612B46594620460A9A00F0ACF857
:102170000028B0D1C6E700002DE9F8430446006806
:102180000D46DDE9089701689846164641F48071CE
:1021900001604B4600224FF001112046009700F0ED
:1021A00062F8E8B9216805F0FE0008613B464A463E
:1021B0001849204600F088F828B1206C04280FD177
:1021C0000120BDE8F88320684169806900903A46A3
:1021D0004946204600F0EDF820B1206C042813D0C9
:1021E0000320EEE7F5B2B8F1010F09D02168300AFB
:1021F00008613A464946204600F0DBF80028ECD159
:10220000206805610020DCE72068016841F4007166
:102210000160D5E70200010070B516460D46044680
:102220001AE02046FFF71BFF08B1012070BD681CB3
:1022300012D025B1FEF7ECFC801BA8420CD954F853
:10224000400F40F0200044F81009002020602021B9
:1022500061732073032070BD20684069C04340074C
:10226000DFD4002070BD2DE9F0471E4690460D4694
:102270000446C1F30747DDF8209012E0701C10D02F
:102280002EB1FEF7C5FCA0EB0900B04209D9002031
:1022900044F8300F20216173A07320730320BDE840
:1022A000F0872068012F0AD0806925EA0000000429
:1022B000000C06D000214145E0D00020EFE7406946
:1022C000F3E70121F7E700002DE9F0479A46914630
:1022D0000D46044600264FF02008C1F307472AE0C8
:1022E00020684069C043400512D42068016841F469
:1022F0000071016021686FF48060486104202064EF
:10230000266384F83D8084F83C600120BDE8F087B6
:10231000B9F1FF3F0FD0B9F1000F05D0FEF778FCFF
:10232000A0EB0A01494506D944F8306F84F80D80C6
:1023300026730320EAE72068012F07D0D0F81800A1
:1023400025EA00000004000CE0D0C9E74069F7E787
:102350002DE9F041002590460E460446202721E055
:102360004069C043C0060CD421686FF0100048617A
:102370002564256384F83D7084F83C500120BDE855
:10238000F0812EB1FEF744FCA0EB0800B04209D961
:1023900054F8400F40F0200044F80409677025709D
:1023A0000320ECE720684169C9434906D8D40020DE
:1023B000E5E770B516460D4604461AE02046FFF7DD
:1023C0004EFE08B1012070BD681C12D025B1FEF789
:1023D0001FFC801BA8420CD954F8400F40F020008D
:1023E00044F810090020206020216173207303202D
:1023F00070BD20684069C0430006DFD4002070BD76
:102400002DE9FF41012503AE0A2400960E4FCDE9C8
:10241000015480462B466B22D0213868FEF782FC9F
:102420009DF80C00009620F0800040EAC8108DF85E
:102430000C00CDE9015401236B22D0213868FEF74E
:102440006FFDBDE8FF8100000000002070B586B080
:1024500014460D4606460A22062103A88DE8070009
:102460000A4801233B22D0210068FEF75BFCBDF83F
:102470000C0040BA3080BDF80E0040BA2880BDF88C
:10248000100040BA208006B070BD0000000000209F
:10249000FEB514460D46064602AA01A96846FFF796
:1024A000D5FFBDF90000124B00EE100AD3ED010A72
:1024B000B8EEC00A20EE200A86ED000ABDF904003D
:1024C000D3ED010A00EE100AB8EEC00A20EE200A91
:1024D00085ED000ABDF90800D3ED010A00EE100AEF
:1024E000B8EEC00A20EE200A84ED000AFEBD00000E
:1024F0000000002070B586B014460D4606460A223C
:10250000062103A88DE807000A4801234322D021B1
:102510000068FEF707FCBDF80C0040BA3080BDF83B
:102520000E0040BA2880BDF8100040BA208006B0E6
:1025300070BD000000000020FEB514460D460646A2
:1025400002AA01A96846FFF7D5FFBDF90000124BAA
:1025500000EE100AD3ED020AB8EEC00A20EE200AFF
:1025600086ED000ABDF90400D3ED020A00EE100A60
:10257000B8EEC00A20EE200A85ED000ABDF9080079
:10258000D3ED020A00EE100AB8EEC00A20EE200ACF
:1025900084ED000AFEBD00000000002030B50C46AE
:1025A0002DED048B83B0054601AA694602A8FFF70A
:1025B0006FFF0198FDF7DCFF41EC180B0098FDF769
:1025C000D7FF41EC100BB0EE481AF0EE681A01F09C
:1025D0009FF99FED219B51EC100B53EC192BFDF74C
:1025E000E6FE9FED1F1B53EC112BFDF752FFFDF78D
:1025F000D2FF28609DED000ADDED010A20EE000A01
:1026000000EEA00A10EE100AFDF7B2FF41EC100B2D
:1026100001F076FAB0EE408AF0EE608A0298FDF79B
:10262000A7FF41EC100BB0EE481AF0EE681A01F06B
:102630006FF953EC192B51EC100BFDF7B8FE9FED21
:102640000A1B53EC112BFDF724FFFDF7A4FF2060BC
:1026500003B0BDEC048B30BD00000000008066407C
:10266000182D4454FB210940182D4454FB2109C066
:102670000B4910B508600120FFF7C2FE002000F0F2
:102680007DFA002000F00EF8042000F057F800203A
:1026900000F0E4F8BDE81040002000F099B8000018
:1026A000000000202DE9FF41012503AE0A24009619
:1026B0000E4FCDE9015480462B466B22D02138685D
:1026C000FEF730FB9DF80C0008F0070100F0F80061
:1026D00001438DF80C100096CDE9015401236B22C3
:1026E000D0213868FEF71CFCBDE8FF810000002007
:1026F0002DE9FF41012503AE0A2400960E4FCDE9D6
:10270000015480462B461C22D0213868FEF70AFB74
:102710009DF80C0008F0070120F0070001438DF838
:102720000C100096CDE9015401231C22D0213868F9
:10273000FEF7F6FBBDE8FF81000000202DE9FF4118
:10274000012503AE0A2400960E4FCDE901548046C0
:102750002B461A22D0213868FEF7E4FA9DF80C00C7
:1027600008F0070100F0F80001438DF80C10009606
:10277000CDE9015401231A22D0213868FEF7D0FB9D
:10278000BDE8FF810000002001B584B001210A22CC
:1027900004A88DE8070004480B461E22D0210068DB
:1027A000FEF7BEFB05B000BD0000002001B584B0FF
:1027B00001210A2204A88DE8070004480B461D22C7
:1027C000D0210068FEF7ACFB05B000BD0000002082
:1027D0002DE9FF4101270DF10C081B4CCDE90087C5
:1027E0000A26054602963B461C22D0212068FEF7A9
:1027F00099FA9DF80C0005F0070100F0E70040EAA7
:10280000C1008DF80C00CDF80080CDE901760123E0
:102810001C22D0212068FEF783FB5DB1012D0CD076
:10282000022D0DD0032D03D19FED080A84ED010A7E
:10283000BDE8FF819FED060AF8E79FED060AF5E780
:102840009FED050AF2E700000000002018F5FF39AF
:1028500040DA7F3840DAFF3840DA7F392DE9FF412E
:1028600001270DF10C081B4CCDE900870A2605460F
:1028700002963B461B22D0212068FEF753FA9DF8B2
:102880000C0005F0070100F0E70040EAC1008DF8F8
:102890000C00CDF80080CDE9017601231B22D02168
:1028A0002068FEF73DFB5DB1012D0CD0022D0DD04F
:1028B000032D03D19FED080A84ED020ABDE8FF81D4
:1028C0009FED060AF8E79FED060AF5E79FED050A7A
:1028D000F2E7000000000020ECC0793D3F1EFA3B0B
:1028E00070227A3CDFBFF93C01B584B001210A2295
:1028F00004A88DE8070004480B463822D021006860
:10290000FEF70EFB05B000BD000000202DE9FF41E1
:10291000012503AE0A2400960E4FCDE901548046EE
:102920002B463822D0213868FEF7FCF99DF80C00C0
:10293000009620F0800040EAC8108DF80C00CDE928
:10294000015401233822D0213868FEF7E9FABDE8A6
:10295000FF810000000000202DE9FF41012503AEAA
:102960000A2400960F4FCDE9015480462B463822A9
:10297000D0213868FEF7D6F99DF80C0008F0010167
:1029800020F0400040EA81108DF80C000096CDE95F
:10299000015401233822D0213868FEF7C1FABDE87E
:1029A000FF810000000000202DE9FF41012503AE5A
:1029B0000A2400960F4FCDE9015480462B46382259
:1029C000D0213868FEF7AEF99DF80C0008F001013F
:1029D00020F0200040EA41108DF80C000096CDE96F
:1029E000015401233822D0213868FEF799FABDE856
:1029F000FF810000000000202DE9FF41012503AE0A
:102A00000A2400960F4FCDE9015480462B46372209
:102A1000D0213868FEF786F99DF80C0008F0010116
:102A200020F0400040EA81108DF80C000096CDE9BE
:102A3000015401233722D0213868FEF771FABDE82E
:102A4000FF810000000000202DE9FF41012503AEB9
:102A50000A2400960F4FCDE9015480462B463722B9
:102A6000D0213868FEF75EF99DF80C0008F00101EE
:102A700020F0100040EA01108DF80C000096CDE91E
:102A8000015401233722D0213868FEF749FABDE806
:102A9000FF810000000000202DE9FF41012503AE69
:102AA0000A2400960F4FCDE9015480462B46372269
:102AB000D0213868FEF736F99DF80C0008F00101C6
:102AC00020F0200040EA41108DF80C000096CDE97E
:102AD000015401233722D0213868FEF721FABDE8DE
:102AE000FF810000000000202DE9FF41012503AE19
:102AF0000A2400960E4FCDE9015480462B4637221A
:102B0000D0213868FEF70EF99DF80C00009620F0F1
:102B1000800040EAC8108DF80C00CDE90154012373
:102B20003722D0213868FEF7FBF9BDE8FF810000AD
:102B30000000002001B584B001210A2204A88DE81C
:102B4000070004480B462022D0210068FEF7E8F970
:102B500005B000BD0000002001B584B001210A22AB
:102B600004A88DE8070004480B461F22D021006806
:102B7000FEF7D6F905B000BD000000202DE9FF41A9
:102B8000012503AE0A2400960F4FCDE9015480467B
:102B90002B466B22D0213868FEF7C4F89DF80C0054
:102BA00008F0010120F0400040EA81108DF80C008F
:102BB0000096CDE9015401236B22D0213868FEF73D
:102BC000AFF9BDE8FF8100000000002001B584B02E
:102BD00001210A2204A88DE8070004480B4622229E
:102BE000D0210068FEF79CF905B000BD0000002070
:102BF00001B584B001210A2204A88DE80700044829
:102C00000B462122D0210068FEF78AF905B000BDED
:102C1000000000202DE9F04387B014216846FDF73D
:102C200007FB37480024016841F01001016001688A
:102C300001F010010591016841F080010160016817
:102C400001F080010591016841F001010160016816
:102C500001F001010591016841F00801016001687E
:102C600001F008010591016841F00201016000686E
:102C7000DFF8909000F002000590002208214846FD
:102C8000FDF7C0FF204F4FF4304600223146384652
:102C9000FDF7B8FFDFF87480002210214046FDF7F1
:102CA000B1FF082000900125CDE90154694648464E
:102CB0000394FDF7CBFE0096CDE9015469463846F2
:102CC0000394FDF7C3FE10200090CDE9015469463E
:102CD00040460394FDF7BAFE0D480095CDE9010486
:102CE00069464846FDF7B2FE002211460620FEF76F
:102CF00053FA0620FEF744FA07B0BDE8F08300005F
:102D00003038024000100240000C02400004024033
:102D1000000011100B480A494FF4007201604FF493
:102D20008271416000218160C1600161C0E90512CA
:102D3000C1610162416281620A21C162FEF7D4BCB5
:102D4000003001409C00002010B58EB00024079494
:102D5000089409940A940B941C2168460C94FDF77E
:102D600067FA16484FF08041016040F28F61C0E978
:102D7000011440F2E731C0E90314FEF767FD4FF498
:102D80008050079007A90D48FEF7C0FD0B48FEF7DD
:102D900094FF0B940BA909480C94FEF72FFD6020BB
:102DA000CDE9000402940422694604480494FEF725
:102DB0001CFF0248FEF7D8FE0EB010BDF400002044
:102DC00010B58EB000240794089409940A940B94CB
:102DD0001C2168460C94FDF72BFA17481549016031
:102DE00040F28F61C0E9011440F2E731C0E90314F9
:102DF000FEF72CFD4FF48050079007A90E48FEF710
:102E000085FD0D48FEF759FF0B940BA90A480C9459
:102E1000FEF7F4FC6020CDE9000402940822694624
:102E200005480494FEF7E1FE0348FEF79DFE0EB050
:102E300010BD00000008004030010020FEE7704790
:102E40000907090E002806DA00F00F0000F1E02063
:102E500080F8141D704700F1E02080F800147047DE
:102E600070477047FEF730B930B593B030216846EF
:102E7000FDF7DEF914210CA8FDF7DAF91948002551
:102E8000016841F080510160006800F080501190AD
:102E90001548016841F4804101600068022400F493
:102EA0008040119001200090000401908001CDE944
:102EB000064004200890A820CDE9090407200B90C3
:102EC0006846FEF783FA0CA90F2081E831004FF421
:102ED000A0500F90E002109005210CA8FEF78EF98B
:102EE00013B030BD40380240007000401048016807
:102EF00041F4700101600F48016841F00101016077
:102F00000C4A00210832116002680B4B1A40026023
:102F1000031D0A4A1A60026822F4802202600548F2
:102F20000C30016002495806803908607047000083
:102F300088ED00E000380240FFFFF6FE103000246C
:102F40000148FEF75DBD00006C010020F0B502688D
:102F5000234B244D244E254F254C4FF0804C984256
:102F600009D0604507D0A84205D0B04203D0B8428E
:102F700001D0A04204D122F0700E4A6842EA0E024B
:102F800098421BD0604519D0A84217D0B04215D046
:102F9000B84213D0A04211D0164DA8420ED0164D03
:102FA000A8420BD0154DA84208D0154DA84205D017
:102FB000144DA84202D0144DA84203D122F440750A
:102FC000CA682A4302608A68C2620A6882629842BA
:102FD00001D0A04201D10969016301214161F0BD25
:102FE000000001400004004000080040000C0040C8
:102FF00000040140004001400044014000480140FD
:1030000000180040001C00400020004010B50123C3
:10301000046A8B409C430462036A8A401343036240
:1030200010BD10B5846842EA032224F47F440A43A9
:103030002243826010BD826822F070020A4342F08F
:10304000070181607047000030B5026A22F001027A
:103050000262026A436884690D6824F073042543A0
:1030600022F002048A6822430B4CA04202D00B4C8F
:10307000A0420BD122F00804CA6823F44073224313
:103080004C6922F004021C438B6923434360856131
:1030900049684163026230BD000001400004014004
:1030A00030B5026A22F010020262026A4368846943
:1030B0000D6824F4E64444EA05248D6822F02002D9
:1030C00042EA05120D4DA84202D00D4DA8420ED184
:1030D000CD6822F0800242EA05124D6923F4406374
:1030E00043EA85038D6922F0400243EA8503436089
:1030F000846149688163026230BD000000000140C4
:103100000004014030B5026A22F480720262036A50
:103110004268C46923F4007324F073050C682C43DF
:103120008D6843EA05230D4DA84202D00C4DA842FC
:103130000ED1CD6823F4006343EA05234D6922F4E0
:10314000405242EA05128D6923F4806342EA051277
:103150004260C4614968C163036230BD0000014040
:103160000004014030B5026A22F480520262046A0F
:103170004268C3690D6823F4E64343EA05238D687A
:1031800024F4005444EA0534084DA84202D0084D06
:10319000A84204D14D6922F4804242EA851242607D
:1031A000C36149680164046230BD00000000014051
:1031B0000004014010B5036A046A24F001040462AB
:1031C000846924F0F00444EA021423F00A020A435A
:1031D0008461026210BD10B5036A23F0100303621C
:1031E0008369046A23F4704343EA023224F0A003A3
:1031F00043EA01118261016210BD10B5806B0021AC
:10320000C185C184FEF794FD10BD0168CA6822F42F
:103210009072CA6001684A6922F001024A61202165
:1032200080F83A10704710B590F83A10222901D072
:10323000022010BD8168B1F5805F11D001690029BD
:1032400001681FD0496801F07F03816A4A1C8262CD
:103250000B70C18D491E0904090CC18518D026E0E8
:103260000269816A002A0268526805D0D2B20A80D7
:10327000816A491C8162ECE7C2F308020A80816A14
:10328000891CF7E74A68816A4B1C83620A70E0E791
:103290000168CA6822F49072CA6001684A6922F023
:1032A00001024A61202180F83A10FEF75DFE0020FD
:1032B00010BD00002DE9F04104460068016921F4C9
:1032C0004052E168114301612168C86849F20C620B
:1032D00090432369A268E5691A4363692B431A4343
:1032E0000243CA602168486920F44072A069104313
:1032F0004861E1696425B1F5004F9748974A216814
:103300004FF032083FD0914201D081427CD1FEF78C
:103310001DF800EBC00101EB001061688900B0FBF3
:10332000F1F6FEF713F800EBC00101EB0010616845
:103330008900B0FBF1F0B0FBF5F06FF018014843E5
:1033400006EB800108EB0110B0FBF5F000F0F00691
:10335000FDF7FCFF00EBC00101EB00106168890084
:10336000B0FBF1F0B0FBF5F006EB0016FDF7EEFF59
:1033700000EBC00101EB001061688900B0FBF1F7C0
:10338000FDF7E4FFD2E0914201D081423DD1FDF74B
:10339000DDFF00EBC00101EB001061684900B0FBEC
:1033A000F1F0B0FBF5F00601FDF7D0FF00EBC00136
:1033B00001EB001061684900B0FBF1F7FDF7C6FFB3
:1033C00000EBC00101EB001061684900B0FBF1F0B7
:1033D000B0FBF5F06FF01801484307EB800108EBF4
:1033E000C100B0FBF5F000F0F80006EB4006FDF779
:1033F000ADFF00EBC00101EB001061684900B0FBBC
:10340000F1F7FDF7A3FF3CE055E0FDF78FFF00EB80
:10341000C00101EB001061684900B0FBF1F0B0FBA6
:10342000F5F00601FDF782FF00EBC00101EB001093
:1034300061684900B0FBF1F7FDF778FF00EBC001D0
:1034400001EB001061684900B0FBF1F0B0FBF5F052
:103450006FF01801484307EB800108EBC100B0FB97
:10346000F5F000F0F80006EB4006FDF75FFF00EB1B
:10347000C00101EB001061684900B0FBF1F7FDF7F6
:1034800055FF00EBC00101EB001061684900B0FB83
:10349000F1F0B0FBF5F06FF01801484307EB800145
:1034A00008EBC100B0FBF5F000F0070021683044E4
:1034B0008860BDE8F081FDF739FF00EBC00101EB4A
:1034C000001061688900B0FBF1F6FDF72FFF00EBFB
:1034D000C00101EB001061688900B0FBF1F0B0FBA6
:1034E000F5F06FF01801484306EB800108EB01107E
:1034F000B0FBF5F000F0F006FDF718FF00EBC0019F
:1035000001EB001061688900B0FBF1F0B0FBF5F051
:1035100006EB0016FDF70AFF00EBC00101EB0010FF
:1035200061688900B0FBF1F7FDF700FF00EBC00117
:1035300001EB001061688900B0FBF1F0B0FBF5F021
:103540006FF01801484307EB800108EB0110B0FB56
:10355000F5F000F00F00A9E7001401400010014051
:1035600090F83910212901D0022070478168B1F507
:10357000805F016A0BD04A1C0262026809785160C0
:10358000C18C491E0904090CC1840ED017E00988BA
:103590000268C1F30801516001690029016A02D083
:1035A000491C0162ECE7891CFBE70168CA6822F04C
:1035B0008002CA600068C16841F04001C16000201B
:1035C000704700000148FEF7B5BB0000A8010020CD
:1035D000FEE700000FB4084B10B504A902AA039837
:1035E00000F046FC044602A9002000F0D8FF204667
:1035F00010BC5DF814FB00009F45000803B401985F
:103600004100009850EAC12018BF04204A0D18BF9D
:1036100040F0010040F2FF72B2EB515F08BF40F092
:103620000200012808BF052002B07047004870471B
:10363000440000200000000070B59B482DED020BF7
:103640002DED068B079D25F00044A04218DC97481D
:10365000844202DC0AD1069840B19DED060BBDEC18
:10366000068B02B0BDE8704000F003BB002DCCBF5C
:103670009FED8F0B9FED900BBDEC068B02B070BDE4
:103680008F48A04215DD8F48A042D8BF4FF0FF34CD
:1036900058DD9DED060B51EC100BFFF7AFFF042832
:1036A00008BF00F0FDFA9DED060BBDEC068B02B0E5
:1036B00070BD9DED060B51EC100B00F07DFFCDE9C8
:1036C000060181489FED828BA0423CDD8248A042EA
:1036D0001FDD00249FED82AB9DED060B53EC1A2BF2
:1036E00051EC100BFCF7BCFD9DED060B41EC190BEA
:1036F00053EC1A2B51EC100BFCF759FE53EC182B22
:10370000FCF74FFE53EC192BFCF7C3FECDE9060185
:1037100049E09DED060B012453EC182B51EC100BE6
:10372000FCF79EFD9DED060B41EC190B53EC182B9D
:1037300051EC100BFCF735FE53EC192BFCF7A9FEEE
:10374000CDE906012FE06848A0421FDD02249FED6D
:10375000689B9DED060B53EC192B51EC100BFCF7FD
:1037600026FE53EC182BFCF77BFD9DED060B41EC80
:10377000180B53EC192B51EC100BFCF712FE53EC09
:10378000182BFCF786FECDE906010CE09DED060B3B
:10379000032453EC102B9FED580B51EC100BFCF74E
:1037A00078FECDE906019DED060B53EC102B51EC94
:1037B000100BFCF7FCFD41EC180B53EC182BFCF73D
:1037C000F6FD41EC190B4E480621B0EE490AF0EE29
:1037D000690A784400F0D1F953EC182B51EC100B26
:1037E000FCF7E5FD41EC180B4648B0EE490AF0EE57
:1037F000690A0521784400F0C0F953EC192B51EC0B
:10380000100BFCF7D4FD41EC100B51EC180B53ECF2
:10381000102B002C0EDAFCF723FD9DED061B53EC5C
:10382000112BFCF7C4FD9DED061B53EC112BFCF78F
:10383000BBFD35E0FCF714FD9DED061B53EC112B91
:10384000FCF7B5FD41EC100B2F48784400EBC400A9
:1038500090ED001B51EC100B53EC112BFCF7A1FD6C
:103860009DED061B53EC112BFCF79BFD41EC100B5F
:103870002648784400EBC40090ED001B51EC100B7F
:1038800053EC112BFCF790FD41EC100B002DA2BF67
:10389000BDEC068B02B070BD51EC100B81F0004105
:1038A00041EC100B01E70000000010440000F07F25
:1038B000182D4454FB21F93F182D4454FB21F9BF26
:1038C0000000DC3F0000203E0000F33F000000004D
:1038D000000000000000F03F0000E63F0000000094
:1038E00000000000000000400080034000000000D5
:1038F000000000000000F83F000000000000F0BFE2
:103900007210000028100000B20F00006A0F0000C3
:1039100070B56B4E2DED040B2DED028B82B0DDF8F2
:103920001CC0DDE905235C422CF000411C4341EA48
:10393000D474049D22F00040B44205D86C422C435C
:1039400040EAD474B4420BD99DED061B9DED040BE7
:1039500002B0BDEC028B04B0BDE8704000F093B93A
:10396000ACF14054A4F17F641C430BD0022404EA60
:10397000AC7444EAD27405439FED538B9FED542BF6
:1039800007D015E09DED040B51EC100B00F00CFE80
:1039900042E0002C11BF012C9DED040B02B0BDECE8
:1039A000028B04BF04B070BD022C38D0032C3BD076
:1039B0000B439FED491B9FED4A0B0AD0B14218D132
:1039C000B04209D121F0804120F08040079105905C
:1039D0000FE0002A15DA10E0434B7B44002C08BFAF
:1039E00093ED000B0DD0012C10D0022C17D0032C1E
:1039F0001AD0B0421DD1002A03DAB0EE410AF0EE2F
:103A0000610A02B0BDEC028B04B070BD93ED000BF7
:103A100051EC100B81F0004141EC100BF1E7B0EEDE
:103A2000480AF0EE680AECE7B0EE420AF0EE620AED
:103A3000E7E7401A00153C28C8BF8DED000B19DCE4
:103A4000BCF1000FBEBF10F13C0F9FED290B8DEDB7
:103A5000000B0FDB9DED060B53EC102B9DED040BC3
:103A600051EC100BFCF715FD00F0A6FD00F09CFDDD
:103A7000CDE90001002C08BF9DED000BC1D0012C49
:103A800010D0022C9FED1C0B53EC102B9DED000B66
:103A900051EC100B0DD0FCF784FC53EC182BFCF709
:103AA00080FCB9E7019880F0004001909DED000B8B
:103AB000A7E7FCF776FC53EC182BFCF775FCABE79B
:103AC0000000F07F00000000182D4454FB21094045
:103AD000182D4454FB2109C0182D4454FB21F9BF73
:103AE000182D4454FB21F93F9A0E000000000000FD
:103AF0000000000000000000075C143326A6A13C73
:103B000000B52DED048BB0EE409AF0EE609A83B0D4
:103B100051EC190BFCF76EFE41EC180B18EE100A75
:103B200018EE901A8DED008B002818BF0120084375
:103B300020F00040C0F17F6000F1E040C00F14D0E1
:103B400019EE101A19EE900A8DED009B002918BF8E
:103B50000121084320F00040C0F17F6000F1E04007
:103B6000C00F04BF012000F0BBF8B0EE480A03B05C
:103B7000F0EE680ABDEC048B00BD70B504462DED77
:103B8000028B4D1E00EBC500B0EE408AF0EE608A5D
:103B900090ED000B35F0060017D053EC182B51ECCC
:103BA000100BFCF704FC41EC100B6D1E04EBC50080
:103BB00090ED001B51EC100B53EC112BFCF750FB5C
:103BC00041EC100B35F00600E7D1022D36D0042D64
:103BD0001CD0062D1CBFBDEC028B70BD53EC182B06
:103BE00051EC100BFCF7E3FB94ED0A1B53EC112B8B
:103BF000FCF736FB53EC182BFCF7D9FB94ED081BB4
:103C000053EC112BFCF72CFB41EC100B53EC182B55
:103C100051EC100BFCF7CBFB94ED061B53EC112B76
:103C2000FCF71EFB53EC182BFCF7C1FB94ED040BC7
:103C300053EC102BFCF714FB41EC100B53EC182B3E
:103C400051EC100BFCF7B3FB94ED021B53EC112B62
:103C5000FCF706FB53EC182BFCF7A9FB94ED001BBB
:103C600053EC112BFCF7FCFABDEC028B41EC100B72
:103C700070BD10B553EC102B51EC100BFCF7F0FAA3
:103C800041EC100B10BD10B553EC112B51EC100B87
:103C9000FCF7E6FA41EC100B10BD0000000000003C
:103CA0009FED050B10B553EC102B51EC100BFCF7EE
:103CB0007EFB41EC100B10BD000000000000001066
:103CC00002E008C8121F08C1002AFAD170477047E5
:103CD000002001E001C1121F002AFBD17047000043
:103CE0000149086070470000440000202DE9FF5F93
:103CF00082B00021DDE90430020DDDF840B003435D
:103D000018D044F61050A2F2FF3242431514119815
:103D100001281FD0A5EB0B00401C5FEA000A4FF002
:103D200000064E4FDFF83891B046504615D5CAF11F
:103D3000000413E0119801244AA3012801D16FEA7D
:103D40000B010298119AC0E90031C0E9024206B0A5
:103D5000BDE8F09FCBF10000DFE704460021404AB8
:103D6000491842EB0450CDE9001012E0E00707D0FB
:103D700032463B4640464946FCF719FB8046894699
:103D800032463B4610461946FCF711FB06460F46E5
:103D90006410002CEAD1DDE90401DDE90023BAF169
:103DA000000F06DAFCF703FB42464B46FCF7FFFA2E
:103DB00005E0FCF76EFB42464B46FCF76AFB044607
:103DC0000E460022284BFCF77FFD03D84FF0FF3052
:103DD000014607E00022254B20463146FCF740FA19
:103DE000FCF759FD102409E0002C0ADB0A2200230D
:103DF000FCF7E6F9039B30321A55641E50EA0102C3
:103E0000F2D1641C039AC4F111031444119A012ADB
:103E100003D0012208430DD10AE0084304D000205A
:103E20004FF0110B119072E7A3EB0B056D1E0DE027
:103E30005B4504DD4FF0000205F1010504E003DA03
:103E40004FF00002A5F10105002AECD0029811996B
:103E5000C0E90231C0E9004579E7000000001440E4
:103E60000000F03F300000000000F0430000E03FA1
:103E70002DE9FF4F95B09B468946064600250FE287
:103E8000252877D100242746F84A0121059400E02F
:103E9000044316F8013F203B01FA03F01042F7D12A
:103EA00030782A2811D06FF02F033078A0F130023B
:103EB000092A16D8059A44F0020402EB820203EBA9
:103EC00042021044761C0590EFE759F8042B059246
:103ED000002A03DA504244F40054059044F00204EE
:103EE000761C30782E2816D116F8010F44F0040401
:103EF0002A280DD06FF02F023078A0F13003092B63
:103F000009D807EB870302EB4303C718761CF3E7D6
:103F100059F8047B761C30786C280FD006DC4C28CE
:103F200017D068280DD06A2814D104E0742810D066
:103F30007A280FD10DE044F400140AE044F4801410
:103F400001E044F440147278824202D104F58014F6
:103F5000761C761C307866280BD013DC582877D076
:103F600009DC002875D04528F6D04628F4D047282B
:103F70001AD19DE118E0632835D0642879D06528EE
:103F800012D195E1702873D008DC6728F1D0692838
:103F90006FD06E280DD06F2806D1B5E073282CD0D5
:103FA000752875D0782874D05A46179990476D1C9B
:103FB00075E1C4F30250022809D003280DD0D9F8C6
:103FC000001004280DD00D6009F1040967E1D9F84B
:103FD0000010EA17C1E90052F6E7D9F800100D8089
:103FE000F2E70D70F0E719F8041B8DF800100020BF
:103FF0008DF80100EA46012003E059F804AB4FF0C8
:10400000FF3061074FF0000102D40DE008F101011B
:104010008846B9420FDA8045F8DB1AF80810002903
:10402000F4D108E008F1010188468142FADB1AF870
:1040300008100029F6D105985B46A0EB0807214639
:104040003846179A00F094FA284400EB080507E078
:104050004DE029E10DE01AF8010B5A4617999047F7
:10406000B8F10108F7D25B4621463846179A13E1AA
:1040700042E00A220092C4F302524FF0000A022AE0
:1040800008D059F804CB032A4FEAEC710AD00DE0AE
:1040900029E02AE009F1070121F00702F2E802C154
:1040A000914609E00FFA8CFC4FEAEC71042A03D127
:1040B0004FFA8CFC4FEAEC71002907DA0A4600211E
:1040C000DCF1000C61EB02012D2202E0220504D597
:1040D0002B228DF80420012203E0E20701D02022E8
:1040E000F7E7904659E00A2102E010220DE0102186
:1040F0004FF0000A00910BE010224FF0000A44F04C
:1041000004040827009203E008224FF0000A0092FE
:10411000C4F30252022A05D059F804CB0021032A25
:1041200008D009E009F1070121F00702F2E802C115
:10413000914605E01FFA8CFC042A01D10CF0FF0C1B
:104140004FF00008220728D5702806D0009B83F086
:10415000100353EA0A0305D00EE040228DF8042034
:10416000012208E05CEA010206D030228DF804202A
:104170008DF8050002229046009B83F0080353EA65
:104180000A030AD15CEA010201D1620705D5302297
:104190008DF804204FF001087F1E582804D034A069
:1041A00003900EA802900DE036A0F9E75346604652
:1041B000009AFCF705F884460398825C0298401E3A
:1041C000029002705CEA0100F0D1029806A9081A78
:1041D00000F1200A600702D524F4803400E00127B2
:1041E000574502DDA7EB0A0000E0002000EB0A01C2
:1041F000009005984144401A0590E00306D45B46C0
:104200002146179A059800F0B3F90544002706E007
:1042100001A85A46C05D179990476D1C7F1C474501
:10422000F6DBE0030CD55B462146179A059800F0B3
:104230009FF9054404E030205A46179990476D1CB9
:104240000099481E00900029F5DC08E002980299C8
:104250005A460078491C0291179990476D1CBAF193
:104260000001AAF1010AF1DC65E100000928010062
:1042700030313233343536373839616263646566DC
:10428000000000003031323334353637383941429E
:10429000434445460000000000F058F90544761CF0
:1042A000307800287FF4ECAD19B02846BDE8F08FD7
:1042B000620700D4062709F1070222F0070CFCE888
:1042C0000223E14603F000485FEA080C02D00FF237
:1042D000702C0DE05FEA045C02D50FF2682C07E059
:1042E0005FEAC47C02D00FF2602C01E0AFF2700CE8
:1042F0004FF0FF3823F00043CDF850C065280CD0B4
:1043000006DC452809D046281DD047283DD13DE090
:10431000662818D067287ED138E00021112F01DBF4
:10432000112000E0781CCDE9000106A90EA8FFF7D6
:10433000DDFCDDE90F010E9A03910021009207F1E7
:10434000010A04914DE04FF000400097CDE90110C3
:1043500006A90EA8FFF7CAFCDDE90F0203920E9B27
:1043600011990022DDF80CA00093049211B9791C78
:1043700000EB010AB7EB0A0004D4C0F1FF3007F1EB
:10438000010A0490AAEB0700019044E0012F00DA33
:1043900001270021112F01DD112000E03846CDE971
:1043A000000106A90EA8FFF7A1FCDDE90F010E9A96
:1043B0000391002104910092BA4621070CD403997D
:1043C000514500DA8A46BAF1010F05DD009AAAF1DB
:1043D0000101515C302908D0B84202DA10F1040F13
:1043E00006DA0121CDE9011015E0AAF10101E9E7A2
:1043F000002805DC049901440491AAEB000102E0C5
:10440000411C514500DD8A460499401A401C019028
:104410004FF000400290200704D40198504501DB82
:10442000CDF8048000208DF84F0002980DF14F0761
:10443000B0F1004F25D02B200E9002984FF00208CB
:1044400000280CDA404202902D200E9007E00A214D
:104450000298FCF7BCF83031029007F8011DB8F162
:104460000001A8F10108F2DC02980028EFD1791EC2
:104470000E980870307800F0200040F0450007F8F2
:10448000020D12A8C01B00F107081498007800B1B3
:10449000012000EB0A01019801EBE071059841440D
:1044A000401A401E0590E00306D45B462146179A49
:1044B000059800F05DF805441498007818B15A4644
:1044C000179990476D1CE00324D55B462146179A47
:1044D000059800F04DF805441CE00498002807DB1F
:1044E000DDE90301884203DD0098405C179901E093
:1044F000179930205A469047049805F10105401C51
:1045000004900198401E019004D12E205A4617991C
:1045100090476D1CBAF10001AAF1010ADDDC05E04B
:1045200017F8010B5A46179990476D1CB8F1000116
:10453000A8F10108F4DC5B462146179A0598ABE622
:104540002D0000002B000000200000002DE9F041AC
:10455000044600251E461746880404D405E0394663
:104560002020B0476D1C641EF9D52846BDE8F081B7
:104570002DE9F041044600251E469046C80301D5AA
:10458000302700E02027880404D505E0414638465E
:10459000B0476D1C641EF9D52846BDE8F0810A6855
:1045A000531C0B601070704710B541EC100BFFF7F7
:1045B00043F851EC100B10BD82B0CDE9000121F0A1
:1045C000004001909DED000B02B051EC100B7047C4
:1045D0008AB0FCF781FDFEF747FCFEF71BFBFEF7F8
:1045E000EFFB69486749002401604FF41651C0E9A8
:1045F00001140C21C460C0E904418461C461FDF769
:1046000021FC614861493C38016042F20F71C0E908
:10461000011442F2CF01C0E90314FDF717F9FEF7C8
:1046200093FBFEF777FB5B48594901605A49C0E9A3
:1046300001144FF48041C0E9034144618461C461C5
:104640000462FCF7EBFA504808217838FDF752FB7A
:1046500050480421AC30FDF74DFB4B483C38FDF78A
:1046600049F904224D494848FDF75AFC4C494A2073
:1046700008604FF0804138208863012210214948AA
:10468000FCF7C0FA4348FDF7F3FF0020FEF72CFAD1
:104690000020FEF7B1F90120FEF7D6F90020FEF761
:1046A000FBF90020FEF720F90120FEF721F8012098
:1046B000FEF752F90120FEF777F90120FEF726F9FF
:1046C0000220FEF761F80520FEF770F80520FEF7DE
:1046D00031FA0220FEF740FA0220FEF777FA0420B2
:1046E000FEF786FA2D4CA41E2C4A0E32111F081F0D
:1046F000FDF7CEFE294A1A32111F081FFDF71CFFD5
:1047000026492231081FFDF749FFE069FBF730FF1A
:1047100005460E46A069FBF72BFFCDE90201606953
:10472000FBF726FFCDE900012069FBF721FF814659
:104730008A46E068FBF71CFF07468846A068FBF73F
:1047400017FFCDE9085641EC100BDDE90201CDE978
:104750000601DDE90001CDE904018DE880070A4882
:1047600053EC102B10A14030FEF734FF82B2064903
:10477000228040310448FDF751FC2820FCF746F91F
:10478000B2E7000000100140A801002000480140ED
:104790000054004048000020801A06000E0000204F
:1047A0003C08004000040240252E32662C252E32A3
:1047B000662C252E32662C252E32662C252E32664E
:1047C0002C252E32660A00000000000000000000C8
:1047D00001020304060708090000000001020304A7
:1047E0004FBB610567ACDD3F182D4454FB21E93F09
:1047F0009BF681D20B73EF3F182D4454FB21F93FF8
:10480000E2652F227F2B7A3C075C143326A6813C7D
:10481000BDCBF07A8807703C075C143326A6913C28
:10482000C4EB98999999C9BF711623FEC671BCBF94
:104830006D9A74AFF2B0B3BF9AFDDE522DDEADBFFC
:104840002F6C6A2C44B4A2BF0D5555555555D53F14
:10485000FF8300922449C23F6E204CC5CD45B73F2F
:10486000513DD0A0660DB13FEB0D76244B7BA93FA7
:1048700011DA22E33AAD903F000000000000000092
:104880000040404040404040404041414141414063
:104890004040404040404040404040404040404018
:1048A00040050202020202020202020202020202A7
:1048B00002202020202020202020200202020202AC
:1048C0000202909090909090101010101010101004
:1048D0001010101010101010101010100202020210
:1048E0000202888888888888080808080808080854
:1048F0000808080808080808080808080202020250
:1049000040000000814800082849000800000020FD
:1049100048000000C03C0008704900084800002022
:10492000D8050000D03C0008000000000000000096
:104930000000000000000000000000000000000077
:104940000000000000000000000000000000000067
:104950000000000000000000000000000024F4003F
:104960000100000010000000000000000000000036
:040000050800018965
:00000001FF
